{
  "abi": [
    {
      "inputs": [],
      "stateMutability": "nonpayable",
      "type": "constructor"
    },
    {
      "anonymous": false,
      "inputs": [
        {
          "indexed": true,
          "internalType": "bytes32",
          "name": "role",
          "type": "bytes32"
        },
        {
          "indexed": true,
          "internalType": "bytes32",
          "name": "previousAdminRole",
          "type": "bytes32"
        },
        {
          "indexed": true,
          "internalType": "bytes32",
          "name": "newAdminRole",
          "type": "bytes32"
        }
      ],
      "name": "RoleAdminChanged",
      "type": "event"
    },
    {
      "anonymous": false,
      "inputs": [
        {
          "indexed": true,
          "internalType": "bytes32",
          "name": "role",
          "type": "bytes32"
        },
        {
          "indexed": true,
          "internalType": "address",
          "name": "account",
          "type": "address"
        },
        {
          "indexed": true,
          "internalType": "address",
          "name": "sender",
          "type": "address"
        }
      ],
      "name": "RoleGranted",
      "type": "event"
    },
    {
      "anonymous": false,
      "inputs": [
        {
          "indexed": true,
          "internalType": "bytes32",
          "name": "role",
          "type": "bytes32"
        },
        {
          "indexed": true,
          "internalType": "address",
          "name": "account",
          "type": "address"
        },
        {
          "indexed": true,
          "internalType": "address",
          "name": "sender",
          "type": "address"
        }
      ],
      "name": "RoleRevoked",
      "type": "event"
    },
    {
      "anonymous": false,
      "inputs": [
        {
          "indexed": false,
          "internalType": "address",
          "name": "_tokenContract",
          "type": "address"
        },
        {
          "indexed": false,
          "internalType": "bool",
          "name": "_approved",
          "type": "bool"
        }
      ],
      "name": "TokenContractApproved",
      "type": "event"
    },
    {
      "inputs": [],
      "name": "DEFAULT_ADMIN_ROLE",
      "outputs": [
        {
          "internalType": "bytes32",
          "name": "",
          "type": "bytes32"
        }
      ],
      "stateMutability": "view",
      "type": "function"
    },
    {
      "inputs": [],
      "name": "TOKEN_REGISTER_ROLE",
      "outputs": [
        {
          "internalType": "bytes32",
          "name": "",
          "type": "bytes32"
        }
      ],
      "stateMutability": "view",
      "type": "function"
    },
    {
      "inputs": [
        {
          "internalType": "address",
          "name": "_tokenContract",
          "type": "address"
        }
      ],
      "name": "addApprovedToken",
      "outputs": [],
      "stateMutability": "nonpayable",
      "type": "function"
    },
    {
      "inputs": [
        {
          "internalType": "bytes32",
          "name": "role",
          "type": "bytes32"
        }
      ],
      "name": "getRoleAdmin",
      "outputs": [
        {
          "internalType": "bytes32",
          "name": "",
          "type": "bytes32"
        }
      ],
      "stateMutability": "view",
      "type": "function"
    },
    {
      "inputs": [
        {
          "internalType": "bytes32",
          "name": "role",
          "type": "bytes32"
        },
        {
          "internalType": "address",
          "name": "account",
          "type": "address"
        }
      ],
      "name": "grantRole",
      "outputs": [],
      "stateMutability": "nonpayable",
      "type": "function"
    },
    {
      "inputs": [
        {
          "internalType": "bytes32",
          "name": "role",
          "type": "bytes32"
        },
        {
          "internalType": "address",
          "name": "account",
          "type": "address"
        }
      ],
      "name": "hasRole",
      "outputs": [
        {
          "internalType": "bool",
          "name": "",
          "type": "bool"
        }
      ],
      "stateMutability": "view",
      "type": "function"
    },
    {
      "inputs": [
        {
          "internalType": "address",
          "name": "_tokenContract",
          "type": "address"
        }
      ],
      "name": "isApprovedToken",
      "outputs": [
        {
          "internalType": "bool",
          "name": "",
          "type": "bool"
        }
      ],
      "stateMutability": "view",
      "type": "function"
    },
    {
      "inputs": [
        {
          "internalType": "address",
          "name": "_tokenContract",
          "type": "address"
        }
      ],
      "name": "removeApprovedToken",
      "outputs": [],
      "stateMutability": "nonpayable",
      "type": "function"
    },
    {
      "inputs": [
        {
          "internalType": "bytes32",
          "name": "role",
          "type": "bytes32"
        },
        {
          "internalType": "address",
          "name": "account",
          "type": "address"
        }
      ],
      "name": "renounceRole",
      "outputs": [],
      "stateMutability": "nonpayable",
      "type": "function"
    },
    {
      "inputs": [
        {
          "internalType": "bytes32",
          "name": "role",
          "type": "bytes32"
        },
        {
          "internalType": "address",
          "name": "account",
          "type": "address"
        }
      ],
      "name": "revokeRole",
      "outputs": [],
      "stateMutability": "nonpayable",
      "type": "function"
    },
    {
      "inputs": [
        {
          "internalType": "bool",
          "name": "_allTokensApproved",
          "type": "bool"
        }
      ],
      "name": "setAllTokensApproved",
      "outputs": [],
      "stateMutability": "nonpayable",
      "type": "function"
    },
    {
      "inputs": [
        {
          "internalType": "bytes4",
          "name": "interfaceId",
          "type": "bytes4"
        }
      ],
      "name": "supportsInterface",
      "outputs": [
        {
          "internalType": "bool",
          "name": "",
          "type": "bool"
        }
      ],
      "stateMutability": "view",
      "type": "function"
    }
  ],
  "bytecode": {
    "object": "0x608060405234801561001057600080fd5b5061001c60003361004b565b6100467f3ad8ed3e368783ee4585bc47a56e79dca48fef21d48900016e8700a420ec14aa3361004b565b6100f7565b6100558282610059565b5050565b6000828152602081815260408083206001600160a01b038516845290915290205460ff16610055576000828152602081815260408083206001600160a01b03851684529091529020805460ff191660011790556100b33390565b6001600160a01b0316816001600160a01b0316837f2f8788117e7eff1d82e926ec794901d17c78024a50270940304540a733656f0d60405160405180910390a45050565b610c5c806101066000396000f3fe608060405234801561001057600080fd5b50600436106100b45760003560e01c806336568abe1161007157806336568abe146101625780635705987a1461017557806391d1485414610188578063a217fddf1461019b578063cd10534b146101a3578063d547741f146101b657600080fd5b806301ffc9a7146100b95780630e063fcb146100e1578063248a9ca3146101045780632d5ad3d5146101275780632f2ff15d1461013a57806332a801a21461014f575b600080fd5b6100cc6100c7366004610983565b6101c9565b60405190151581526020015b60405180910390f35b6100f6600080516020610c0783398151915281565b6040519081526020016100d8565b6100f66101123660046109ad565b60009081526020819052604090206001015490565b6100cc6101353660046109e2565b610200565b61014d6101483660046109fd565b61021a565b005b61014d61015d366004610a29565b610244565b61014d6101703660046109fd565b610294565b61014d6101833660046109e2565b610312565b6100cc6101963660046109fd565b6103e0565b6100f6600081565b61014d6101b13660046109e2565b610409565b61014d6101c43660046109fd565b6104d0565b60006001600160e01b03198216637965db0b60e01b14806101fa57506301ffc9a760e01b6001600160e01b03198316145b92915050565b60035460009060ff16806101fa57506101fa6001836104f5565b6000828152602081905260409020600101546102358161051a565b61023f8383610527565b505050565b61025c600080516020610c07833981519152336103e0565b6102815760405162461bcd60e51b815260040161027890610a4b565b60405180910390fd5b6003805460ff1916911515919091179055565b6001600160a01b03811633146103045760405162461bcd60e51b815260206004820152602f60248201527f416363657373436f6e74726f6c3a2063616e206f6e6c792072656e6f756e636560448201526e103937b632b9903337b91039b2b63360891b6064820152608401610278565b61030e82826105ab565b5050565b6001600160a01b03811661035a5760405162461bcd60e51b815260206004820152600f60248201526e496e76616c6964204164647265737360881b6044820152606401610278565b610372600080516020610c07833981519152336103e0565b61038e5760405162461bcd60e51b815260040161027890610a4b565b610399600182610610565b50604080516001600160a01b0383168152600060208201527f76155f7a43ecf42488af976246d070fd4994de62773a83b0ed16175f49f4b02f91015b60405180910390a150565b6000918252602082815260408084206001600160a01b0393909316845291905290205460ff1690565b6001600160a01b0381166104515760405162461bcd60e51b815260206004820152600f60248201526e496e76616c6964204164647265737360881b6044820152606401610278565b610469600080516020610c07833981519152336103e0565b6104855760405162461bcd60e51b815260040161027890610a4b565b610490600182610625565b50604080516001600160a01b0383168152600160208201527f76155f7a43ecf42488af976246d070fd4994de62773a83b0ed16175f49f4b02f91016103d5565b6000828152602081905260409020600101546104eb8161051a565b61023f83836105ab565b6001600160a01b038116600090815260018301602052604081205415155b9392505050565b610524813361063a565b50565b61053182826103e0565b61030e576000828152602081815260408083206001600160a01b03851684529091529020805460ff191660011790556105673390565b6001600160a01b0316816001600160a01b0316837f2f8788117e7eff1d82e926ec794901d17c78024a50270940304540a733656f0d60405160405180910390a45050565b6105b582826103e0565b1561030e576000828152602081815260408083206001600160a01b0385168085529252808320805460ff1916905551339285917ff6391f5c32d9c69d2a47ea670b442974b53935d1edc7fd64eb21e047a839171b9190a45050565b6000610513836001600160a01b038416610693565b6000610513836001600160a01b038416610786565b61064482826103e0565b61030e57610651816107d5565b61065c8360206107e7565b60405160200161066d929190610aa1565b60408051601f198184030181529082905262461bcd60e51b825261027891600401610b16565b6000818152600183016020526040812054801561077c5760006106b7600183610b5f565b85549091506000906106cb90600190610b5f565b90508181146107305760008660000182815481106106eb576106eb610b76565b906000526020600020015490508087600001848154811061070e5761070e610b76565b6000918252602080832090910192909255918252600188019052604090208390555b855486908061074157610741610b8c565b6001900381819060005260206000200160009055905585600101600086815260200190815260200160002060009055600193505050506101fa565b60009150506101fa565b60008181526001830160205260408120546107cd575081546001818101845560008481526020808220909301849055845484825282860190935260409020919091556101fa565b5060006101fa565b60606101fa6001600160a01b03831660145b606060006107f6836002610ba2565b610801906002610bc1565b67ffffffffffffffff81111561081957610819610bd9565b6040519080825280601f01601f191660200182016040528015610843576020820181803683370190505b509050600360fc1b8160008151811061085e5761085e610b76565b60200101906001600160f81b031916908160001a905350600f60fb1b8160018151811061088d5761088d610b76565b60200101906001600160f81b031916908160001a90535060006108b1846002610ba2565b6108bc906001610bc1565b90505b6001811115610934576f181899199a1a9b1b9c1cb0b131b232b360811b85600f16601081106108f0576108f0610b76565b1a60f81b82828151811061090657610906610b76565b60200101906001600160f81b031916908160001a90535060049490941c9361092d81610bef565b90506108bf565b5083156105135760405162461bcd60e51b815260206004820181905260248201527f537472696e67733a20686578206c656e67746820696e73756666696369656e746044820152606401610278565b60006020828403121561099557600080fd5b81356001600160e01b03198116811461051357600080fd5b6000602082840312156109bf57600080fd5b5035919050565b80356001600160a01b03811681146109dd57600080fd5b919050565b6000602082840312156109f457600080fd5b610513826109c6565b60008060408385031215610a1057600080fd5b82359150610a20602084016109c6565b90509250929050565b600060208284031215610a3b57600080fd5b8135801515811461051357600080fd5b6020808252600c908201526b155b985d5d1a1bdc9a5e995960a21b604082015260600190565b60005b83811015610a8c578181015183820152602001610a74565b83811115610a9b576000848401525b50505050565b7f416363657373436f6e74726f6c3a206163636f756e7420000000000000000000815260008351610ad9816017850160208801610a71565b7001034b99036b4b9b9b4b733903937b6329607d1b6017918401918201528351610b0a816028840160208801610a71565b01602801949350505050565b6020815260008251806020840152610b35816040850160208701610a71565b601f01601f19169190910160400192915050565b634e487b7160e01b600052601160045260246000fd5b600082821015610b7157610b71610b49565b500390565b634e487b7160e01b600052603260045260246000fd5b634e487b7160e01b600052603160045260246000fd5b6000816000190483118215151615610bbc57610bbc610b49565b500290565b60008219821115610bd457610bd4610b49565b500190565b634e487b7160e01b600052604160045260246000fd5b600081610bfe57610bfe610b49565b50600019019056fe3ad8ed3e368783ee4585bc47a56e79dca48fef21d48900016e8700a420ec14aaa2646970667358221220c689f9b78b87f2656f4b8cf3292f282822f321f5fea473d694b933ba104efe7064736f6c634300080f0033",
    "linkReferences": {}
  },
  "methodIdentifiers": {
    "DEFAULT_ADMIN_ROLE()": "a217fddf",
    "TOKEN_REGISTER_ROLE()": "0e063fcb",
    "addApprovedToken(address)": "cd10534b",
    "getRoleAdmin(bytes32)": "248a9ca3",
    "grantRole(bytes32,address)": "2f2ff15d",
    "hasRole(bytes32,address)": "91d14854",
    "isApprovedToken(address)": "2d5ad3d5",
    "removeApprovedToken(address)": "5705987a",
    "renounceRole(bytes32,address)": "36568abe",
    "revokeRole(bytes32,address)": "d547741f",
    "setAllTokensApproved(bool)": "32a801a2",
    "supportsInterface(bytes4)": "01ffc9a7"
  },
  "id": 61
}