{
  "abi": [
    {
      "anonymous": false,
      "inputs": [
        {
          "indexed": false,
          "internalType": "uint8",
          "name": "version",
          "type": "uint8"
        }
      ],
      "name": "Initialized",
      "type": "event"
    },
    {
      "anonymous": false,
      "inputs": [
        {
          "indexed": true,
          "internalType": "uint256",
          "name": "claimId",
          "type": "uint256"
        },
        {
          "indexed": true,
          "internalType": "bytes32",
          "name": "root",
          "type": "bytes32"
        }
      ],
      "name": "NewClaim",
      "type": "event"
    },
    {
      "anonymous": false,
      "inputs": [
        {
          "indexed": true,
          "internalType": "address",
          "name": "previousOwner",
          "type": "address"
        },
        {
          "indexed": true,
          "internalType": "address",
          "name": "newOwner",
          "type": "address"
        }
      ],
      "name": "OwnershipTransferred",
      "type": "event"
    },
    {
      "anonymous": false,
      "inputs": [
        {
          "indexed": true,
          "internalType": "bytes32",
          "name": "root",
          "type": "bytes32"
        },
        {
          "indexed": true,
          "internalType": "address",
          "name": "addr",
          "type": "address"
        },
        {
          "indexed": true,
          "internalType": "uint256",
          "name": "claimId",
          "type": "uint256"
        },
        {
          "indexed": false,
          "internalType": "uint256",
          "name": "amt",
          "type": "uint256"
        }
      ],
      "name": "RoyaltyClaimed",
      "type": "event"
    },
    {
      "inputs": [
        {
          "internalType": "uint256",
          "name": "amount",
          "type": "uint256"
        },
        {
          "internalType": "bytes32[]",
          "name": "proof",
          "type": "bytes32[]"
        }
      ],
      "name": "claim",
      "outputs": [],
      "stateMutability": "nonpayable",
      "type": "function"
    },
    {
      "inputs": [],
      "name": "claimRoot",
      "outputs": [
        {
          "internalType": "bytes32",
          "name": "",
          "type": "bytes32"
        }
      ],
      "stateMutability": "view",
      "type": "function"
    },
    {
      "inputs": [
        {
          "internalType": "bytes32",
          "name": "newRoot",
          "type": "bytes32"
        }
      ],
      "name": "createNewClaim",
      "outputs": [],
      "stateMutability": "nonpayable",
      "type": "function"
    },
    {
      "inputs": [],
      "name": "currentClaimId",
      "outputs": [
        {
          "internalType": "uint256",
          "name": "",
          "type": "uint256"
        }
      ],
      "stateMutability": "view",
      "type": "function"
    },
    {
      "inputs": [
        {
          "internalType": "bytes32",
          "name": "merkleRoot",
          "type": "bytes32"
        }
      ],
      "name": "initialize",
      "outputs": [],
      "stateMutability": "nonpayable",
      "type": "function"
    },
    {
      "inputs": [],
      "name": "owner",
      "outputs": [
        {
          "internalType": "address",
          "name": "",
          "type": "address"
        }
      ],
      "stateMutability": "view",
      "type": "function"
    },
    {
      "inputs": [],
      "name": "pause",
      "outputs": [],
      "stateMutability": "nonpayable",
      "type": "function"
    },
    {
      "inputs": [],
      "name": "paused",
      "outputs": [
        {
          "internalType": "bool",
          "name": "",
          "type": "bool"
        }
      ],
      "stateMutability": "view",
      "type": "function"
    },
    {
      "inputs": [],
      "name": "renounceOwnership",
      "outputs": [],
      "stateMutability": "nonpayable",
      "type": "function"
    },
    {
      "inputs": [
        {
          "internalType": "address",
          "name": "",
          "type": "address"
        },
        {
          "internalType": "uint256",
          "name": "",
          "type": "uint256"
        }
      ],
      "name": "rewardClaimedForClaim",
      "outputs": [
        {
          "internalType": "bool",
          "name": "",
          "type": "bool"
        }
      ],
      "stateMutability": "view",
      "type": "function"
    },
    {
      "inputs": [
        {
          "internalType": "address[]",
          "name": "addrs",
          "type": "address[]"
        },
        {
          "internalType": "uint256",
          "name": "claimId",
          "type": "uint256"
        }
      ],
      "name": "setClaimMappingToFalse",
      "outputs": [],
      "stateMutability": "nonpayable",
      "type": "function"
    },
    {
      "inputs": [
        {
          "internalType": "address",
          "name": "newOwner",
          "type": "address"
        }
      ],
      "name": "transferOwnership",
      "outputs": [],
      "stateMutability": "nonpayable",
      "type": "function"
    },
    {
      "inputs": [],
      "name": "unpause",
      "outputs": [],
      "stateMutability": "nonpayable",
      "type": "function"
    },
    {
      "inputs": [
        {
          "internalType": "bytes32",
          "name": "newRoot",
          "type": "bytes32"
        }
      ],
      "name": "updateMerkleRoot",
      "outputs": [],
      "stateMutability": "nonpayable",
      "type": "function"
    },
    {
      "inputs": [
        {
          "internalType": "address",
          "name": "recipient",
          "type": "address"
        },
        {
          "internalType": "uint256",
          "name": "value",
          "type": "uint256"
        },
        {
          "internalType": "bytes32[]",
          "name": "proof",
          "type": "bytes32[]"
        }
      ],
      "name": "verifyEntitled",
      "outputs": [
        {
          "internalType": "bool",
          "name": "",
          "type": "bool"
        }
      ],
      "stateMutability": "view",
      "type": "function"
    },
    {
      "stateMutability": "payable",
      "type": "receive"
    }
  ],
  "bytecode": {
    "object": "0x608060405234801561001057600080fd5b50610dad806100206000396000f3fe6080604052600436106100ec5760003560e01c8063715018a61161008a5780639498bd71116100595780639498bd711461024a578063aad1a0081461026a578063c3709caf146102a5578063f2fde38b146102c557600080fd5b8063715018a6146101e257806372806c5a146101f75780638456cb591461020d5780638da5cb5b1461022257600080fd5b80634783f0ef116100c65780634783f0ef146101585780635c975abb1461017857806365d1f30b146101a257806367d9b44c146101c257600080fd5b806314ea35e7146100f85780632f52ebb7146101215780633f4ba83a1461014357600080fd5b366100f357005b600080fd5b34801561010457600080fd5b5061010e60655481565b6040519081526020015b60405180910390f35b34801561012d57600080fd5b5061014161013c366004610a1b565b6102e5565b005b34801561014f57600080fd5b506101416104eb565b34801561016457600080fd5b50610141610173366004610a9a565b6104ff565b34801561018457600080fd5b506068546101929060ff1681565b6040519015158152602001610118565b3480156101ae57600080fd5b506101416101bd366004610a9a565b61050c565b3480156101ce57600080fd5b506101416101dd366004610b3a565b610565565b3480156101ee57600080fd5b506101416105e7565b34801561020357600080fd5b5061010e60675481565b34801561021957600080fd5b506101416105fb565b34801561022e57600080fd5b506033546040516001600160a01b039091168152602001610118565b34801561025657600080fd5b50610141610265366004610a9a565b610612565b34801561027657600080fd5b50610192610285366004610bdd565b606660209081526000928352604080842090915290825290205460ff1681565b3480156102b157600080fd5b506101926102c0366004610c07565b610785565b3480156102d157600080fd5b506101416102e0366004610cb4565b6107db565b60685460ff16156103495760405162461bcd60e51b8152602060048201526024808201527f43616e6e6f742063616c6c207768656e20636f6e74726163742069732070617560448201526339b2b21760e11b60648201526084015b60405180910390fd5b610387338484848080602002602001604051908101604052809392919081815260200183836020028082843760009201919091525061078592505050565b6103d35760405162461bcd60e51b815260206004820181905260248201527f5468652070726f6f6620636f756c64206e6f742062652076657269666965642e6044820152606401610340565b336000908152606660209081526040808320606754845290915290205460ff16156104585760405162461bcd60e51b815260206004820152602f60248201527f596f75206861766520616c72656164792077697468647261776e20796f75722060448201526e32b73a34ba3632b2103a37b5b2b71760891b6064820152608401610340565b3360008181526066602090815260408083206067548452909152808220805460ff191660011790555182916108fc871502918791818181858888f193505050501580156104a9573d6000803e3d6000fd5b506067546065546040518681523391907ef26f7fcd9e9238aed6e2f9ee35e05d5f84b0d8659e2235a2a61377c94170029060200160405180910390a450505050565b6104f3610854565b6068805460ff19169055565b610507610854565b606555565b610514610854565b606754610522906001610ce5565b606781905560658290556068805460ff191690556040518291907f567738e2bb1cd8ded1f4f85ada2d94f3ccd4956306e4347c0710f99a0114153190600090a350565b61056d610854565b60005b82518110156105e25760006066600085848151811061059157610591610cfd565b6020908102919091018101516001600160a01b0316825281810192909252604090810160009081208682529092529020805460ff1916911515919091179055806105da81610d13565b915050610570565b505050565b6105ef610854565b6105f960006108ae565b565b610603610854565b6068805460ff19166001179055565b600054610100900460ff16158080156106325750600054600160ff909116105b8061064c5750303b15801561064c575060005460ff166001145b6106af5760405162461bcd60e51b815260206004820152602e60248201527f496e697469616c697a61626c653a20636f6e747261637420697320616c72656160448201526d191e481a5b9a5d1a585b1a5e995960921b6064820152608401610340565b6000805460ff1916600117905580156106d2576000805461ff0019166101001790555b8161071f5760405162461bcd60e51b815260206004820152601960248201527f4d65726b6c65526f6f742063616e7420626520656d7074792e000000000000006044820152606401610340565b610727610900565b606582905560006067556068805460ff191690558015610781576000805461ff0019169055604051600181527f7f26b83ff96e1f2b6a682f133852f6798a09c465da95921460cefb38474024989060200160405180910390a15b5050565b6040516bffffffffffffffffffffffff19606085901b1660208201526034810183905260009081906054016040516020818303038152906040528051906020012090506107d2818461092f565b95945050505050565b6107e3610854565b6001600160a01b0381166108485760405162461bcd60e51b815260206004820152602660248201527f4f776e61626c653a206e6577206f776e657220697320746865207a65726f206160448201526564647265737360d01b6064820152608401610340565b610851816108ae565b50565b6033546001600160a01b031633146105f95760405162461bcd60e51b815260206004820181905260248201527f4f776e61626c653a2063616c6c6572206973206e6f7420746865206f776e65726044820152606401610340565b603380546001600160a01b038381166001600160a01b0319831681179093556040519116919082907f8be0079c531659141344cd1fd0a4f28419497f9722a3daafe3b4186f6b6457e090600090a35050565b600054610100900460ff166109275760405162461bcd60e51b815260040161034090610d2c565b6105f9610980565b600082815b8351811015610974576109608285838151811061095357610953610cfd565b60200260200101516109b0565b91508061096c81610d13565b915050610934565b50606554149392505050565b600054610100900460ff166109a75760405162461bcd60e51b815260040161034090610d2c565b6105f9336108ae565b6000818311156109e957604080516020810184905290810184905260600160405160208183030381529060405280519060200120610a14565b6040805160208101859052908101839052606001604051602081830303815290604052805190602001205b9392505050565b600080600060408486031215610a3057600080fd5b83359250602084013567ffffffffffffffff80821115610a4f57600080fd5b818601915086601f830112610a6357600080fd5b813581811115610a7257600080fd5b8760208260051b8501011115610a8757600080fd5b6020830194508093505050509250925092565b600060208284031215610aac57600080fd5b5035919050565b634e487b7160e01b600052604160045260246000fd5b604051601f8201601f1916810167ffffffffffffffff81118282101715610af257610af2610ab3565b604052919050565b600067ffffffffffffffff821115610b1457610b14610ab3565b5060051b60200190565b80356001600160a01b0381168114610b3557600080fd5b919050565b60008060408385031215610b4d57600080fd5b823567ffffffffffffffff811115610b6457600080fd5b8301601f81018513610b7557600080fd5b80356020610b8a610b8583610afa565b610ac9565b82815260059290921b83018101918181019088841115610ba957600080fd5b938201935b83851015610bce57610bbf85610b1e565b82529382019390820190610bae565b98969091013596505050505050565b60008060408385031215610bf057600080fd5b610bf983610b1e565b946020939093013593505050565b600080600060608486031215610c1c57600080fd5b610c2584610b1e565b92506020808501359250604085013567ffffffffffffffff811115610c4957600080fd5b8501601f81018713610c5a57600080fd5b8035610c68610b8582610afa565b81815260059190911b82018301908381019089831115610c8757600080fd5b928401925b82841015610ca557833582529284019290840190610c8c565b80955050505050509250925092565b600060208284031215610cc657600080fd5b610a1482610b1e565b634e487b7160e01b600052601160045260246000fd5b60008219821115610cf857610cf8610ccf565b500190565b634e487b7160e01b600052603260045260246000fd5b600060018201610d2557610d25610ccf565b5060010190565b6020808252602b908201527f496e697469616c697a61626c653a20636f6e7472616374206973206e6f74206960408201526a6e697469616c697a696e6760a81b60608201526080019056fea2646970667358221220a2c866bd46f31ccaa9098329cd994f5043bbc62662f00c5d3319593d4dc3a4f564736f6c634300080f0033",
    "linkReferences": {}
  },
  "methodIdentifiers": {
    "claim(uint256,bytes32[])": "2f52ebb7",
    "claimRoot()": "14ea35e7",
    "createNewClaim(bytes32)": "65d1f30b",
    "currentClaimId()": "72806c5a",
    "initialize(bytes32)": "9498bd71",
    "owner()": "8da5cb5b",
    "pause()": "8456cb59",
    "paused()": "5c975abb",
    "renounceOwnership()": "715018a6",
    "rewardClaimedForClaim(address,uint256)": "aad1a008",
    "setClaimMappingToFalse(address[],uint256)": "67d9b44c",
    "transferOwnership(address)": "f2fde38b",
    "unpause()": "3f4ba83a",
    "updateMerkleRoot(bytes32)": "4783f0ef",
    "verifyEntitled(address,uint256,bytes32[])": "c3709caf"
  },
  "id": 70
}