{
  "abi": [
    {
      "inputs": [
        {
          "internalType": "address[]",
          "name": "iERC721CreatorImplementations",
          "type": "address[]"
        }
      ],
      "stateMutability": "nonpayable",
      "type": "constructor"
    },
    {
      "anonymous": false,
      "inputs": [
        {
          "indexed": true,
          "internalType": "address",
          "name": "from",
          "type": "address"
        },
        {
          "indexed": true,
          "internalType": "address",
          "name": "to",
          "type": "address"
        }
      ],
      "name": "CreatorOverrideCreated",
      "type": "event"
    },
    {
      "anonymous": false,
      "inputs": [
        {
          "indexed": true,
          "internalType": "address",
          "name": "previousOwner",
          "type": "address"
        },
        {
          "indexed": true,
          "internalType": "address",
          "name": "newOwner",
          "type": "address"
        }
      ],
      "name": "OwnershipTransferred",
      "type": "event"
    },
    {
      "inputs": [
        {
          "internalType": "address",
          "name": "oldCreatorAddress",
          "type": "address"
        },
        {
          "internalType": "address",
          "name": "newCreatorAddress",
          "type": "address"
        }
      ],
      "name": "overrideCreator",
      "outputs": [],
      "stateMutability": "nonpayable",
      "type": "function"
    },
    {
      "inputs": [],
      "name": "owner",
      "outputs": [
        {
          "internalType": "address",
          "name": "",
          "type": "address"
        }
      ],
      "stateMutability": "view",
      "type": "function"
    },
    {
      "inputs": [],
      "name": "renounceOwnership",
      "outputs": [],
      "stateMutability": "nonpayable",
      "type": "function"
    },
    {
      "inputs": [
        {
          "internalType": "address",
          "name": "contractAddress",
          "type": "address"
        }
      ],
      "name": "setIERC721Creator",
      "outputs": [],
      "stateMutability": "nonpayable",
      "type": "function"
    },
    {
      "inputs": [
        {
          "internalType": "address",
          "name": "_contractAddress",
          "type": "address"
        },
        {
          "internalType": "uint256",
          "name": "_tokenId",
          "type": "uint256"
        }
      ],
      "name": "tokenCreator",
      "outputs": [
        {
          "internalType": "address payable",
          "name": "",
          "type": "address"
        }
      ],
      "stateMutability": "view",
      "type": "function"
    },
    {
      "inputs": [
        {
          "internalType": "address",
          "name": "newOwner",
          "type": "address"
        }
      ],
      "name": "transferOwnership",
      "outputs": [],
      "stateMutability": "nonpayable",
      "type": "function"
    }
  ],
  "bytecode": {
    "object": "0x608060405234801561001057600080fd5b506040516109db3803806109db83398101604081905261002f916101fa565b61003833610178565b6103e88151106100c05760405162461bcd60e51b815260206004820152604360248201527f636f6e7374727563746f723a3a43616e6e6f74206d61726b206d6f726520746860448201527f616e2031303030206164647265737365732061732049455243373231437265616064820152623a37b960e91b608482015260a40160405180910390fd5b60005b81518160ff1610156101715760006001600160a01b0316828260ff16815181106100ef576100ef6102be565b60200260200101516001600160a01b03161461015f576001806000848460ff168151811061011f5761011f6102be565b60200260200101516001600160a01b03166001600160a01b0316815260200190815260200160002060006101000a81548160ff0219169083151502179055505b80610169816102d4565b9150506100c3565b5050610301565b600080546001600160a01b038381166001600160a01b0319831681178455604051919092169283917f8be0079c531659141344cd1fd0a4f28419497f9722a3daafe3b4186f6b6457e09190a35050565b634e487b7160e01b600052604160045260246000fd5b80516001600160a01b03811681146101f557600080fd5b919050565b6000602080838503121561020d57600080fd5b82516001600160401b038082111561022457600080fd5b818501915085601f83011261023857600080fd5b81518181111561024a5761024a6101c8565b8060051b604051601f19603f8301168101818110858211171561026f5761026f6101c8565b60405291825284820192508381018501918883111561028d57600080fd5b938501935b828510156102b2576102a3856101de565b84529385019392850192610292565b98975050505050505050565b634e487b7160e01b600052603260045260246000fd5b600060ff821660ff81036102f857634e487b7160e01b600052601160045260246000fd5b60010192915050565b6106cb806103106000396000f3fe608060405234801561001057600080fd5b50600436106100625760003560e01c80633a85757c14610067578063715018a61461007c5780638da5cb5b14610084578063b85ed7e4146100ad578063e175500e146100c0578063f2fde38b146100d3575b600080fd5b61007a6100753660046105f6565b6100e6565b005b61007a61018b565b6000546001600160a01b03165b6040516001600160a01b03909116815260200160405180910390f35b6100916100bb366004610613565b61019f565b61007a6100ce36600461063f565b6102a7565b61007a6100e13660046105f6565b6103e6565b6100ee61045f565b6001600160a01b0381166101645760405162461bcd60e51b815260206004820152603260248201527f7365744945524337323143726561746f723a3a5f636f6e747261637441646472604482015271195cdcc818d85b9b9bdd081899481b9d5b1b60721b60648201526084015b60405180910390fd5b6001600160a01b03166000908152600160208190526040909120805460ff19169091179055565b61019361045f565b61019d60006104b9565b565b6000806101b384631030681960e21b610509565b806101d657506001600160a01b03841660009081526001602052604090205460ff165b1561024757604051631030681960e21b8152600481018490526001600160a01b038516906340c1a06490602401602060405180830381865afa158015610220573d6000803e3d6000fd5b505050506040513d601f19601f820116820180604052508101906102449190610678565b90505b6001600160a01b03811661025c5790506102a1565b6001600160a01b03818116600090815260026020526040902054161561029e576001600160a01b039081166000908152600260205260409020541690506102a1565b90505b92915050565b6102af61045f565b6001600160a01b03821661031f5760405162461bcd60e51b815260206004820152603160248201527f6f7665727269646543726561746f723a3a6f6c6443726561746f7241646472656044820152701cdcc818d85b9b9bdd081899481b9d5b1b607a1b606482015260840161015b565b6001600160a01b03811661038f5760405162461bcd60e51b815260206004820152603160248201527f6f7665727269646543726561746f723a3a6e657743726561746f7241646472656044820152701cdcc818d85b9b9bdd081899481b9d5b1b607a1b606482015260840161015b565b6001600160a01b0382811660008181526002602052604080822080546001600160a01b0319169486169485179055517fa123a18d8b26c9fe4a71a5b853d75b966847961b0e219a0a06728c20742657359190a35050565b6103ee61045f565b6001600160a01b0381166104535760405162461bcd60e51b815260206004820152602660248201527f4f776e61626c653a206e6577206f776e657220697320746865207a65726f206160448201526564647265737360d01b606482015260840161015b565b61045c816104b9565b50565b6000546001600160a01b0316331461019d5760405162461bcd60e51b815260206004820181905260248201527f4f776e61626c653a2063616c6c6572206973206e6f7420746865206f776e6572604482015260640161015b565b600080546001600160a01b038381166001600160a01b0319831681178455604051919092169283917f8be0079c531659141344cd1fd0a4f28419497f9722a3daafe3b4186f6b6457e09190a35050565b600061051483610525565b801561029e575061029e8383610558565b6000610538826301ffc9a760e01b610558565b80156102a15750610551826001600160e01b0319610558565b1592915050565b604080516001600160e01b03198316602480830191909152825180830390910181526044909101909152602080820180516001600160e01b03166301ffc9a760e01b178152825160009392849283928392918391908a617530fa92503d915060005190508280156105ca575060208210155b80156105d65750600081115b979650505050505050565b6001600160a01b038116811461045c57600080fd5b60006020828403121561060857600080fd5b813561029e816105e1565b6000806040838503121561062657600080fd5b8235610631816105e1565b946020939093013593505050565b6000806040838503121561065257600080fd5b823561065d816105e1565b9150602083013561066d816105e1565b809150509250929050565b60006020828403121561068a57600080fd5b815161029e816105e156fea2646970667358221220a93e4e0cb2bb2f0a748b279df58e075e4752fdd0f86f46e6f508349586d7e82a64736f6c634300080f0033",
    "linkReferences": {}
  },
  "methodIdentifiers": {
    "overrideCreator(address,address)": "e175500e",
    "owner()": "8da5cb5b",
    "renounceOwnership()": "715018a6",
    "setIERC721Creator(address)": "3a85757c",
    "tokenCreator(address,uint256)": "b85ed7e4",
    "transferOwnership(address)": "f2fde38b"
  },
  "id": 62
}