{
  "abi": [
    {
      "inputs": [
        {
          "internalType": "address",
          "name": "newOwner",
          "type": "address"
        },
        {
          "internalType": "address",
          "name": "oldSettings",
          "type": "address"
        }
      ],
      "stateMutability": "nonpayable",
      "type": "constructor"
    },
    {
      "anonymous": false,
      "inputs": [
        {
          "indexed": true,
          "internalType": "address",
          "name": "previousOwner",
          "type": "address"
        },
        {
          "indexed": true,
          "internalType": "address",
          "name": "newOwner",
          "type": "address"
        }
      ],
      "name": "OwnershipTransferred",
      "type": "event"
    },
    {
      "anonymous": false,
      "inputs": [
        {
          "indexed": true,
          "internalType": "bytes32",
          "name": "role",
          "type": "bytes32"
        },
        {
          "indexed": true,
          "internalType": "bytes32",
          "name": "previousAdminRole",
          "type": "bytes32"
        },
        {
          "indexed": true,
          "internalType": "bytes32",
          "name": "newAdminRole",
          "type": "bytes32"
        }
      ],
      "name": "RoleAdminChanged",
      "type": "event"
    },
    {
      "anonymous": false,
      "inputs": [
        {
          "indexed": true,
          "internalType": "bytes32",
          "name": "role",
          "type": "bytes32"
        },
        {
          "indexed": true,
          "internalType": "address",
          "name": "account",
          "type": "address"
        },
        {
          "indexed": true,
          "internalType": "address",
          "name": "sender",
          "type": "address"
        }
      ],
      "name": "RoleGranted",
      "type": "event"
    },
    {
      "anonymous": false,
      "inputs": [
        {
          "indexed": true,
          "internalType": "bytes32",
          "name": "role",
          "type": "bytes32"
        },
        {
          "indexed": true,
          "internalType": "address",
          "name": "account",
          "type": "address"
        },
        {
          "indexed": true,
          "internalType": "address",
          "name": "sender",
          "type": "address"
        }
      ],
      "name": "RoleRevoked",
      "type": "event"
    },
    {
      "inputs": [],
      "name": "DEFAULT_ADMIN_ROLE",
      "outputs": [
        {
          "internalType": "bytes32",
          "name": "",
          "type": "bytes32"
        }
      ],
      "stateMutability": "view",
      "type": "function"
    },
    {
      "inputs": [],
      "name": "TOKEN_MARK_ROLE",
      "outputs": [
        {
          "internalType": "bytes32",
          "name": "",
          "type": "bytes32"
        }
      ],
      "stateMutability": "view",
      "type": "function"
    },
    {
      "inputs": [
        {
          "internalType": "uint256",
          "name": "_amount",
          "type": "uint256"
        }
      ],
      "name": "calculateMarketplaceFee",
      "outputs": [
        {
          "internalType": "uint256",
          "name": "",
          "type": "uint256"
        }
      ],
      "stateMutability": "view",
      "type": "function"
    },
    {
      "inputs": [
        {
          "internalType": "uint256",
          "name": "_amount",
          "type": "uint256"
        }
      ],
      "name": "calculateMarketplacePayoutFee",
      "outputs": [
        {
          "internalType": "uint256",
          "name": "",
          "type": "uint256"
        }
      ],
      "stateMutability": "view",
      "type": "function"
    },
    {
      "inputs": [
        {
          "internalType": "address",
          "name": "",
          "type": "address"
        },
        {
          "internalType": "uint256",
          "name": "_amount",
          "type": "uint256"
        }
      ],
      "name": "calculatePrimarySaleFee",
      "outputs": [
        {
          "internalType": "uint256",
          "name": "",
          "type": "uint256"
        }
      ],
      "stateMutability": "view",
      "type": "function"
    },
    {
      "inputs": [
        {
          "internalType": "uint256",
          "name": "_amount",
          "type": "uint256"
        }
      ],
      "name": "calculateStakingFee",
      "outputs": [
        {
          "internalType": "uint256",
          "name": "",
          "type": "uint256"
        }
      ],
      "stateMutability": "view",
      "type": "function"
    },
    {
      "inputs": [
        {
          "internalType": "address",
          "name": "",
          "type": "address"
        }
      ],
      "name": "getERC721ContractPrimarySaleFeePercentage",
      "outputs": [
        {
          "internalType": "uint8",
          "name": "",
          "type": "uint8"
        }
      ],
      "stateMutability": "view",
      "type": "function"
    },
    {
      "inputs": [],
      "name": "getMarketplaceFeePercentage",
      "outputs": [
        {
          "internalType": "uint8",
          "name": "",
          "type": "uint8"
        }
      ],
      "stateMutability": "view",
      "type": "function"
    },
    {
      "inputs": [],
      "name": "getMarketplaceMaxValue",
      "outputs": [
        {
          "internalType": "uint256",
          "name": "",
          "type": "uint256"
        }
      ],
      "stateMutability": "view",
      "type": "function"
    },
    {
      "inputs": [],
      "name": "getMarketplaceMinValue",
      "outputs": [
        {
          "internalType": "uint256",
          "name": "",
          "type": "uint256"
        }
      ],
      "stateMutability": "view",
      "type": "function"
    },
    {
      "inputs": [
        {
          "internalType": "bytes32",
          "name": "role",
          "type": "bytes32"
        }
      ],
      "name": "getRoleAdmin",
      "outputs": [
        {
          "internalType": "bytes32",
          "name": "",
          "type": "bytes32"
        }
      ],
      "stateMutability": "view",
      "type": "function"
    },
    {
      "inputs": [],
      "name": "getStakingFeePercentage",
      "outputs": [
        {
          "internalType": "uint8",
          "name": "",
          "type": "uint8"
        }
      ],
      "stateMutability": "view",
      "type": "function"
    },
    {
      "inputs": [
        {
          "internalType": "address",
          "name": "_account",
          "type": "address"
        }
      ],
      "name": "grantMarketplaceAccess",
      "outputs": [],
      "stateMutability": "nonpayable",
      "type": "function"
    },
    {
      "inputs": [
        {
          "internalType": "bytes32",
          "name": "role",
          "type": "bytes32"
        },
        {
          "internalType": "address",
          "name": "account",
          "type": "address"
        }
      ],
      "name": "grantRole",
      "outputs": [],
      "stateMutability": "nonpayable",
      "type": "function"
    },
    {
      "inputs": [
        {
          "internalType": "address",
          "name": "_contractAddress",
          "type": "address"
        },
        {
          "internalType": "uint256",
          "name": "_tokenId",
          "type": "uint256"
        }
      ],
      "name": "hasERC721TokenSold",
      "outputs": [
        {
          "internalType": "bool",
          "name": "",
          "type": "bool"
        }
      ],
      "stateMutability": "view",
      "type": "function"
    },
    {
      "inputs": [
        {
          "internalType": "bytes32",
          "name": "role",
          "type": "bytes32"
        },
        {
          "internalType": "address",
          "name": "account",
          "type": "address"
        }
      ],
      "name": "hasRole",
      "outputs": [
        {
          "internalType": "bool",
          "name": "",
          "type": "bool"
        }
      ],
      "stateMutability": "view",
      "type": "function"
    },
    {
      "inputs": [
        {
          "internalType": "address",
          "name": "_contractAddress",
          "type": "address"
        }
      ],
      "name": "markContractAsSold",
      "outputs": [
        {
          "internalType": "bool",
          "name": "",
          "type": "bool"
        }
      ],
      "stateMutability": "nonpayable",
      "type": "function"
    },
    {
      "inputs": [
        {
          "internalType": "address",
          "name": "_contractAddress",
          "type": "address"
        },
        {
          "internalType": "uint256",
          "name": "_tokenId",
          "type": "uint256"
        },
        {
          "internalType": "bool",
          "name": "_hasSold",
          "type": "bool"
        }
      ],
      "name": "markERC721Token",
      "outputs": [],
      "stateMutability": "nonpayable",
      "type": "function"
    },
    {
      "inputs": [
        {
          "internalType": "address",
          "name": "_originContract",
          "type": "address"
        },
        {
          "internalType": "uint256[]",
          "name": "_tokenIds",
          "type": "uint256[]"
        }
      ],
      "name": "markTokensAsSold",
      "outputs": [],
      "stateMutability": "nonpayable",
      "type": "function"
    },
    {
      "inputs": [],
      "name": "owner",
      "outputs": [
        {
          "internalType": "address",
          "name": "",
          "type": "address"
        }
      ],
      "stateMutability": "view",
      "type": "function"
    },
    {
      "inputs": [],
      "name": "renounceOwnership",
      "outputs": [],
      "stateMutability": "nonpayable",
      "type": "function"
    },
    {
      "inputs": [
        {
          "internalType": "bytes32",
          "name": "role",
          "type": "bytes32"
        },
        {
          "internalType": "address",
          "name": "account",
          "type": "address"
        }
      ],
      "name": "renounceRole",
      "outputs": [],
      "stateMutability": "nonpayable",
      "type": "function"
    },
    {
      "inputs": [
        {
          "internalType": "bytes32",
          "name": "role",
          "type": "bytes32"
        },
        {
          "internalType": "address",
          "name": "account",
          "type": "address"
        }
      ],
      "name": "revokeRole",
      "outputs": [],
      "stateMutability": "nonpayable",
      "type": "function"
    },
    {
      "inputs": [
        {
          "internalType": "address",
          "name": "_contractAddress",
          "type": "address"
        },
        {
          "internalType": "uint8",
          "name": "_percentage",
          "type": "uint8"
        }
      ],
      "name": "setERC721ContractPrimarySaleFeePercentage",
      "outputs": [],
      "stateMutability": "nonpayable",
      "type": "function"
    },
    {
      "inputs": [
        {
          "internalType": "uint8",
          "name": "_percentage",
          "type": "uint8"
        }
      ],
      "name": "setMarketplaceFeePercentage",
      "outputs": [],
      "stateMutability": "nonpayable",
      "type": "function"
    },
    {
      "inputs": [
        {
          "internalType": "uint256",
          "name": "_maxValue",
          "type": "uint256"
        }
      ],
      "name": "setMarketplaceMaxValue",
      "outputs": [],
      "stateMutability": "nonpayable",
      "type": "function"
    },
    {
      "inputs": [
        {
          "internalType": "uint256",
          "name": "_minValue",
          "type": "uint256"
        }
      ],
      "name": "setMarketplaceMinValue",
      "outputs": [],
      "stateMutability": "nonpayable",
      "type": "function"
    },
    {
      "inputs": [
        {
          "internalType": "uint8",
          "name": "_primarySaleFeePercentage",
          "type": "uint8"
        }
      ],
      "name": "setPrimarySaleFeePercentage",
      "outputs": [],
      "stateMutability": "nonpayable",
      "type": "function"
    },
    {
      "inputs": [
        {
          "internalType": "uint8",
          "name": "_percentage",
          "type": "uint8"
        }
      ],
      "name": "setStakingFeePercentage",
      "outputs": [],
      "stateMutability": "nonpayable",
      "type": "function"
    },
    {
      "inputs": [
        {
          "internalType": "bytes4",
          "name": "interfaceId",
          "type": "bytes4"
        }
      ],
      "name": "supportsInterface",
      "outputs": [
        {
          "internalType": "bool",
          "name": "",
          "type": "bool"
        }
      ],
      "stateMutability": "view",
      "type": "function"
    },
    {
      "inputs": [
        {
          "internalType": "address",
          "name": "newOwner",
          "type": "address"
        }
      ],
      "name": "transferOwnership",
      "outputs": [],
      "stateMutability": "nonpayable",
      "type": "function"
    }
  ],
  "bytecode": {
    "object": "0x60806040523480156200001157600080fd5b5060405162001892380380620018928339810160408190526200003491620003a9565b6200003f33620001c7565b600160fe1b6005556103e86006556007805461ffff1916610f031790556002805460ff191690556001600160a01b038216620000d85760405162461bcd60e51b815260206004820152602d60248201527f636f6e7374727563746f723a3a4e6577206f776e65722061646472657373206360448201526c185b9b9bdd081899481b9d5b1b609a1b60648201526084015b60405180910390fd5b6001600160a01b038116620001565760405162461bcd60e51b815260206004820152603c60248201527f636f6e7374727563746f723a3a4f6c64204d61726b6574706c6163652053657460448201527f74696e677320616464726573732063616e6e6f74206265206e756c6c000000006064820152608401620000cf565b6200016360008362000217565b6200018f7fe403a42bbb760a8b3610033c6ca9047404adf765af465dfb889617dd2d64bf628362000217565b6200019a8262000227565b600280546001600160a01b0390921661010002610100600160a81b031990921691909117905550620003e1565b600080546001600160a01b038381166001600160a01b0319831681178455604051919092169283917f8be0079c531659141344cd1fd0a4f28419497f9722a3daafe3b4186f6b6457e09190a35050565b620002238282620002a6565b5050565b620002316200032e565b6001600160a01b038116620002985760405162461bcd60e51b815260206004820152602660248201527f4f776e61626c653a206e6577206f776e657220697320746865207a65726f206160448201526564647265737360d01b6064820152608401620000cf565b620002a381620001c7565b50565b60008281526001602090815260408083206001600160a01b038516845290915290205460ff16620002235760008281526001602081815260408084206001600160a01b0386168086529252808420805460ff19169093179092559051339285917f2f8788117e7eff1d82e926ec794901d17c78024a50270940304540a733656f0d9190a45050565b6000546001600160a01b031633146200038a5760405162461bcd60e51b815260206004820181905260248201527f4f776e61626c653a2063616c6c6572206973206e6f7420746865206f776e65726044820152606401620000cf565b565b80516001600160a01b0381168114620003a457600080fd5b919050565b60008060408385031215620003bd57600080fd5b620003c8836200038c565b9150620003d8602084016200038c565b90509250929050565b6114a180620003f16000396000f3fe608060405234801561001057600080fd5b50600436106101e55760003560e01c8063715018a61161010f578063ae312a97116100a2578063c60870d311610071578063c60870d314610411578063d547741f14610424578063f2fde38b14610437578063f9a23e861461044a57600080fd5b8063ae312a97146103bc578063b28a7bad146103ce578063b60c8135146103eb578063c3fc4952146103fe57600080fd5b80638e1addb2116100de5780638e1addb21461038357806391d14854146103965780639d5fb53c146103a9578063a217fddf146103b457600080fd5b8063715018a61461033457806382ebaa591461033c578063834759211461034f5780638da5cb5b1461036857600080fd5b8063364d6044116101875780635a3c652d116101565780635a3c652d146102f35780635c1b40f11461030657806362029a1b1461030e5780636357f1ac1461032157600080fd5b8063364d6044146102a557806336568abe146102b85780633765628c146102cb578063511bc84c146102e057600080fd5b8063248a9ca3116101c3578063248a9ca3146102485780632b702b5f1461026c5780632cfda2f11461027f5780632f2ff15d1461029257600080fd5b806301ffc9a7146101ea5780630ff77844146102125780631ad99c3714610233575b600080fd5b6101fd6101f8366004611015565b610452565b60405190151581526020015b60405180910390f35b61022561022036600461103f565b610489565b604051908152602001610209565b61024661024136600461106e565b6104bc565b005b61022561025636600461103f565b6000908152600160208190526040909120015490565b61024661027a3660046110a0565b6104e0565b61024661028d36600461103f565b6105e6565b6102466102a0366004611126565b6105f3565b6101fd6102b3366004611152565b61061e565b6102466102c6366004611126565b610723565b61022560008051602061144c83398151915281565b6101fd6102ee36600461116d565b61079d565b6102466103013660046111a5565b610840565b600654610225565b61024661031c36600461103f565b6108ed565b61022561032f36600461116d565b6108fa565b610246610926565b61024661034a366004611152565b61093a565b60075460ff165b60405160ff9091168152602001610209565b6000546040516001600160a01b039091168152602001610209565b61022561039136600461103f565b6109c9565b6101fd6103a4366004611126565b6109df565b60025460ff16610356565b610225600081565b6102466103ca3660046111e5565b5050565b6103566103dc366004611152565b50600754610100900460ff1690565b6102466103f936600461106e565b610a0a565b61022561040c36600461103f565b610aa2565b61024661041f36600461106e565b610ab8565b610246610432366004611126565b610b66565b610246610445366004611152565b610b8c565b600554610225565b60006001600160e01b03198216637965db0b60e01b148061048357506301ffc9a760e01b6001600160e01b03198316145b92915050565b6002546007546000916064916104a59160ff9081169116611225565b6104b29060ff1684611248565b6104839190611267565b6104c4610c02565b6007805460ff9092166101000261ff0019909216919091179055565b6104f860008051602061144c833981519152336109df565b61051d5760405162461bcd60e51b815260040161051490611289565b60405180910390fd5b6107d081111561059f5760405162461bcd60e51b815260206004820152604160248201527f6d61726b546f6b656e734173536f6c643a3a417474656d7074656420746f206d60448201527f61726b206d6f7265207468616e203230303020746f6b656e7320617320736f6c6064820152601960fa1b608482015260a401610514565b60005b818110156105e0576105ce848484848181106105c0576105c06112e6565b905060200201356001610840565b806105d8816112fc565b9150506105a2565b50505050565b6105ee610c02565b600555565b6000828152600160208190526040909120015461060f81610c5c565b6106198383610c66565b505050565b600061063860008051602061144c833981519152336109df565b6106aa5760405162461bcd60e51b815260206004820152603b60248201527f6d61726b436f6e74726163743a3a4d757374206861766520544f4b454e5f4d4160448201527f524b5f524f4c4520726f6c6520746f2063616c6c206d6574686f6400000000006064820152608401610514565b6106b5600383610cd1565b156107185760405162461bcd60e51b815260206004820152602d60248201527f6d61726b436f6e74726163743a3a436f6e747261637420616c7265616479206d60448201526c185c9ad95908185cc81cdbdb19609a1b6064820152608401610514565b610483600383610cf3565b6001600160a01b03811633146107935760405162461bcd60e51b815260206004820152602f60248201527f416363657373436f6e74726f6c3a2063616e206f6e6c792072656e6f756e636560448201526e103937b632b9903337b91039b2b63360891b6064820152608401610514565b6103ca8282610d08565b6000806107ab600385610cd1565b905080156107bd576001915050610483565b600254604051631446f21360e21b81526001600160a01b038681166004830152602482018690526101009092049091169063511bc84c90604401602060405180830381865afa158015610814573d6000803e3d6000fd5b505050506040513d601f19601f820116820180604052508101906108389190611315565b949350505050565b61085860008051602061144c833981519152336109df565b6108745760405162461bcd60e51b815260040161051490611289565b600254604051635a3c652d60e01b81526001600160a01b03858116600483015260248201859052831515604483015261010090920490911690635a3c652d90606401600060405180830381600087803b1580156108d057600080fd5b505af11580156108e4573d6000803e3d6000fd5b50505050505050565b6108f5610c02565b600655565b60075460009060649061091590610100900460ff1684611248565b61091f9190611267565b9392505050565b61092e610c02565b6109386000610d6f565b565b6109456000336109df565b6109ae5760405162461bcd60e51b815260206004820152603460248201527f6772616e744d61726b6574706c6163654163636573733a3a4d7573742062652060448201527318591b5a5b881d1bc818d85b1b081b595d1a1bd960621b6064820152608401610514565b6109c660008051602061144c833981519152826105f3565b50565b6002546000906064906104b29060ff1684611248565b60009182526001602090815260408084206001600160a01b0393909316845291905290205460ff1690565b610a12610c02565b60648160ff161115610a8c5760405162461bcd60e51b815260206004820152603760248201527f7365744d61726b6574706c61636546656550657263656e746167653a3a5f706560448201527f7263656e74616765206d757374206265203c3d203130300000000000000000006064820152608401610514565b6007805460ff191660ff92909216919091179055565b6007546000906064906104b29060ff1684611248565b610ac0610c02565b60075460ff9081169082161115610b505760405162461bcd60e51b815260206004820152604860248201527f7365745374616b696e6746656550657263656e746167653a3a5f70657263656e60448201527f74616765206d757374206265203c3d206d61726b6574706c61636546656550656064820152677263656e7461676560c01b608482015260a401610514565b6002805460ff191660ff92909216919091179055565b60008281526001602081905260409091200154610b8281610c5c565b6106198383610d08565b610b94610c02565b6001600160a01b038116610bf95760405162461bcd60e51b815260206004820152602660248201527f4f776e61626c653a206e6577206f776e657220697320746865207a65726f206160448201526564647265737360d01b6064820152608401610514565b6109c681610d6f565b6000546001600160a01b031633146109385760405162461bcd60e51b815260206004820181905260248201527f4f776e61626c653a2063616c6c6572206973206e6f7420746865206f776e65726044820152606401610514565b6109c68133610dbf565b610c7082826109df565b6103ca5760008281526001602081815260408084206001600160a01b0386168086529252808420805460ff19169093179092559051339285917f2f8788117e7eff1d82e926ec794901d17c78024a50270940304540a733656f0d9190a45050565b6001600160a01b0381166000908152600183016020526040812054151561091f565b600061091f836001600160a01b038416610e18565b610d1282826109df565b156103ca5760008281526001602090815260408083206001600160a01b0385168085529252808320805460ff1916905551339285917ff6391f5c32d9c69d2a47ea670b442974b53935d1edc7fd64eb21e047a839171b9190a45050565b600080546001600160a01b038381166001600160a01b0319831681178455604051919092169283917f8be0079c531659141344cd1fd0a4f28419497f9722a3daafe3b4186f6b6457e09190a35050565b610dc982826109df565b6103ca57610dd681610e67565b610de1836020610e79565b604051602001610df292919061135e565b60408051601f198184030181529082905262461bcd60e51b8252610514916004016113d3565b6000818152600183016020526040812054610e5f57508154600181810184556000848152602080822090930184905584548482528286019093526040902091909155610483565b506000610483565b60606104836001600160a01b03831660145b60606000610e88836002611248565b610e93906002611406565b67ffffffffffffffff811115610eab57610eab61141e565b6040519080825280601f01601f191660200182016040528015610ed5576020820181803683370190505b509050600360fc1b81600081518110610ef057610ef06112e6565b60200101906001600160f81b031916908160001a905350600f60fb1b81600181518110610f1f57610f1f6112e6565b60200101906001600160f81b031916908160001a9053506000610f43846002611248565b610f4e906001611406565b90505b6001811115610fc6576f181899199a1a9b1b9c1cb0b131b232b360811b85600f1660108110610f8257610f826112e6565b1a60f81b828281518110610f9857610f986112e6565b60200101906001600160f81b031916908160001a90535060049490941c93610fbf81611434565b9050610f51565b50831561091f5760405162461bcd60e51b815260206004820181905260248201527f537472696e67733a20686578206c656e67746820696e73756666696369656e746044820152606401610514565b60006020828403121561102757600080fd5b81356001600160e01b03198116811461091f57600080fd5b60006020828403121561105157600080fd5b5035919050565b803560ff8116811461106957600080fd5b919050565b60006020828403121561108057600080fd5b61091f82611058565b80356001600160a01b038116811461106957600080fd5b6000806000604084860312156110b557600080fd5b6110be84611089565b9250602084013567ffffffffffffffff808211156110db57600080fd5b818601915086601f8301126110ef57600080fd5b8135818111156110fe57600080fd5b8760208260051b850101111561111357600080fd5b6020830194508093505050509250925092565b6000806040838503121561113957600080fd5b8235915061114960208401611089565b90509250929050565b60006020828403121561116457600080fd5b61091f82611089565b6000806040838503121561118057600080fd5b61118983611089565b946020939093013593505050565b80151581146109c657600080fd5b6000806000606084860312156111ba57600080fd5b6111c384611089565b92506020840135915060408401356111da81611197565b809150509250925092565b600080604083850312156111f857600080fd5b61120183611089565b915061114960208401611058565b634e487b7160e01b600052601160045260246000fd5b600060ff821660ff84168082101561123f5761123f61120f565b90039392505050565b60008160001904831182151516156112625761126261120f565b500290565b60008261128457634e487b7160e01b600052601260045260246000fd5b500490565b6020808252603e908201527f6d61726b455243373231546f6b656e3a3a4d757374206861766520544f4b454e60408201527f5f4d41524b5f524f4c4520726f6c6520746f2063616c6c206d6574686f640000606082015260800190565b634e487b7160e01b600052603260045260246000fd5b60006001820161130e5761130e61120f565b5060010190565b60006020828403121561132757600080fd5b815161091f81611197565b60005b8381101561134d578181015183820152602001611335565b838111156105e05750506000910152565b7f416363657373436f6e74726f6c3a206163636f756e7420000000000000000000815260008351611396816017850160208801611332565b7001034b99036b4b9b9b4b733903937b6329607d1b60179184019182015283516113c7816028840160208801611332565b01602801949350505050565b60208152600082518060208401526113f2816040850160208701611332565b601f01601f19169190910160400192915050565b600082198211156114195761141961120f565b500190565b634e487b7160e01b600052604160045260246000fd5b6000816114435761144361120f565b50600019019056fee403a42bbb760a8b3610033c6ca9047404adf765af465dfb889617dd2d64bf62a26469706673582212207edc8aa9ac95eed00a85f8045051b6ff0e62a627887e4e61fc9455a43a56838364736f6c634300080f0033",
    "linkReferences": {}
  },
  "methodIdentifiers": {
    "DEFAULT_ADMIN_ROLE()": "a217fddf",
    "TOKEN_MARK_ROLE()": "3765628c",
    "calculateMarketplaceFee(uint256)": "c3fc4952",
    "calculateMarketplacePayoutFee(uint256)": "0ff77844",
    "calculatePrimarySaleFee(address,uint256)": "6357f1ac",
    "calculateStakingFee(uint256)": "8e1addb2",
    "getERC721ContractPrimarySaleFeePercentage(address)": "b28a7bad",
    "getMarketplaceFeePercentage()": "83475921",
    "getMarketplaceMaxValue()": "f9a23e86",
    "getMarketplaceMinValue()": "5c1b40f1",
    "getRoleAdmin(bytes32)": "248a9ca3",
    "getStakingFeePercentage()": "9d5fb53c",
    "grantMarketplaceAccess(address)": "82ebaa59",
    "grantRole(bytes32,address)": "2f2ff15d",
    "hasERC721TokenSold(address,uint256)": "511bc84c",
    "hasRole(bytes32,address)": "91d14854",
    "markContractAsSold(address)": "364d6044",
    "markERC721Token(address,uint256,bool)": "5a3c652d",
    "markTokensAsSold(address,uint256[])": "2b702b5f",
    "owner()": "8da5cb5b",
    "renounceOwnership()": "715018a6",
    "renounceRole(bytes32,address)": "36568abe",
    "revokeRole(bytes32,address)": "d547741f",
    "setERC721ContractPrimarySaleFeePercentage(address,uint8)": "ae312a97",
    "setMarketplaceFeePercentage(uint8)": "b60c8135",
    "setMarketplaceMaxValue(uint256)": "2cfda2f1",
    "setMarketplaceMinValue(uint256)": "62029a1b",
    "setPrimarySaleFeePercentage(uint8)": "1ad99c37",
    "setStakingFeePercentage(uint8)": "c60870d3",
    "supportsInterface(bytes4)": "01ffc9a7",
    "transferOwnership(address)": "f2fde38b"
  },
  "id": 58
}