{
  "abi": [
    {
      "inputs": [],
      "stateMutability": "nonpayable",
      "type": "constructor"
    },
    {
      "anonymous": false,
      "inputs": [
        {
          "indexed": true,
          "internalType": "address",
          "name": "previousOwner",
          "type": "address"
        },
        {
          "indexed": true,
          "internalType": "address",
          "name": "newOwner",
          "type": "address"
        }
      ],
      "name": "OwnershipTransferred",
      "type": "event"
    },
    {
      "anonymous": false,
      "inputs": [
        {
          "indexed": true,
          "internalType": "bytes32",
          "name": "role",
          "type": "bytes32"
        },
        {
          "indexed": true,
          "internalType": "bytes32",
          "name": "previousAdminRole",
          "type": "bytes32"
        },
        {
          "indexed": true,
          "internalType": "bytes32",
          "name": "newAdminRole",
          "type": "bytes32"
        }
      ],
      "name": "RoleAdminChanged",
      "type": "event"
    },
    {
      "anonymous": false,
      "inputs": [
        {
          "indexed": true,
          "internalType": "bytes32",
          "name": "role",
          "type": "bytes32"
        },
        {
          "indexed": true,
          "internalType": "address",
          "name": "account",
          "type": "address"
        },
        {
          "indexed": true,
          "internalType": "address",
          "name": "sender",
          "type": "address"
        }
      ],
      "name": "RoleGranted",
      "type": "event"
    },
    {
      "anonymous": false,
      "inputs": [
        {
          "indexed": true,
          "internalType": "bytes32",
          "name": "role",
          "type": "bytes32"
        },
        {
          "indexed": true,
          "internalType": "address",
          "name": "account",
          "type": "address"
        },
        {
          "indexed": true,
          "internalType": "address",
          "name": "sender",
          "type": "address"
        }
      ],
      "name": "RoleRevoked",
      "type": "event"
    },
    {
      "inputs": [],
      "name": "DEFAULT_ADMIN_ROLE",
      "outputs": [
        {
          "internalType": "bytes32",
          "name": "",
          "type": "bytes32"
        }
      ],
      "stateMutability": "view",
      "type": "function"
    },
    {
      "inputs": [],
      "name": "TOKEN_MARK_ROLE",
      "outputs": [
        {
          "internalType": "bytes32",
          "name": "",
          "type": "bytes32"
        }
      ],
      "stateMutability": "view",
      "type": "function"
    },
    {
      "inputs": [
        {
          "internalType": "uint256",
          "name": "_amount",
          "type": "uint256"
        }
      ],
      "name": "calculateMarketplaceFee",
      "outputs": [
        {
          "internalType": "uint256",
          "name": "",
          "type": "uint256"
        }
      ],
      "stateMutability": "view",
      "type": "function"
    },
    {
      "inputs": [
        {
          "internalType": "address",
          "name": "_contractAddress",
          "type": "address"
        },
        {
          "internalType": "uint256",
          "name": "_amount",
          "type": "uint256"
        }
      ],
      "name": "calculatePrimarySaleFee",
      "outputs": [
        {
          "internalType": "uint256",
          "name": "",
          "type": "uint256"
        }
      ],
      "stateMutability": "view",
      "type": "function"
    },
    {
      "inputs": [
        {
          "internalType": "address",
          "name": "_contractAddress",
          "type": "address"
        }
      ],
      "name": "getERC721ContractPrimarySaleFeePercentage",
      "outputs": [
        {
          "internalType": "uint8",
          "name": "",
          "type": "uint8"
        }
      ],
      "stateMutability": "view",
      "type": "function"
    },
    {
      "inputs": [],
      "name": "getMarketplaceFeePercentage",
      "outputs": [
        {
          "internalType": "uint8",
          "name": "",
          "type": "uint8"
        }
      ],
      "stateMutability": "view",
      "type": "function"
    },
    {
      "inputs": [],
      "name": "getMarketplaceMaxValue",
      "outputs": [
        {
          "internalType": "uint256",
          "name": "",
          "type": "uint256"
        }
      ],
      "stateMutability": "view",
      "type": "function"
    },
    {
      "inputs": [],
      "name": "getMarketplaceMinValue",
      "outputs": [
        {
          "internalType": "uint256",
          "name": "",
          "type": "uint256"
        }
      ],
      "stateMutability": "view",
      "type": "function"
    },
    {
      "inputs": [
        {
          "internalType": "bytes32",
          "name": "role",
          "type": "bytes32"
        }
      ],
      "name": "getRoleAdmin",
      "outputs": [
        {
          "internalType": "bytes32",
          "name": "",
          "type": "bytes32"
        }
      ],
      "stateMutability": "view",
      "type": "function"
    },
    {
      "inputs": [
        {
          "internalType": "address",
          "name": "_account",
          "type": "address"
        }
      ],
      "name": "grantMarketplaceAccess",
      "outputs": [],
      "stateMutability": "nonpayable",
      "type": "function"
    },
    {
      "inputs": [
        {
          "internalType": "bytes32",
          "name": "role",
          "type": "bytes32"
        },
        {
          "internalType": "address",
          "name": "account",
          "type": "address"
        }
      ],
      "name": "grantRole",
      "outputs": [],
      "stateMutability": "nonpayable",
      "type": "function"
    },
    {
      "inputs": [
        {
          "internalType": "address",
          "name": "_contractAddress",
          "type": "address"
        },
        {
          "internalType": "uint256",
          "name": "_tokenId",
          "type": "uint256"
        }
      ],
      "name": "hasERC721TokenSold",
      "outputs": [
        {
          "internalType": "bool",
          "name": "",
          "type": "bool"
        }
      ],
      "stateMutability": "view",
      "type": "function"
    },
    {
      "inputs": [
        {
          "internalType": "bytes32",
          "name": "role",
          "type": "bytes32"
        },
        {
          "internalType": "address",
          "name": "account",
          "type": "address"
        }
      ],
      "name": "hasRole",
      "outputs": [
        {
          "internalType": "bool",
          "name": "",
          "type": "bool"
        }
      ],
      "stateMutability": "view",
      "type": "function"
    },
    {
      "inputs": [
        {
          "internalType": "address",
          "name": "_contractAddress",
          "type": "address"
        },
        {
          "internalType": "uint256",
          "name": "_tokenId",
          "type": "uint256"
        },
        {
          "internalType": "bool",
          "name": "_hasSold",
          "type": "bool"
        }
      ],
      "name": "markERC721Token",
      "outputs": [],
      "stateMutability": "nonpayable",
      "type": "function"
    },
    {
      "inputs": [
        {
          "internalType": "address",
          "name": "_originContract",
          "type": "address"
        },
        {
          "internalType": "uint256[]",
          "name": "_tokenIds",
          "type": "uint256[]"
        }
      ],
      "name": "markTokensAsSold",
      "outputs": [],
      "stateMutability": "nonpayable",
      "type": "function"
    },
    {
      "inputs": [],
      "name": "owner",
      "outputs": [
        {
          "internalType": "address",
          "name": "",
          "type": "address"
        }
      ],
      "stateMutability": "view",
      "type": "function"
    },
    {
      "inputs": [],
      "name": "renounceOwnership",
      "outputs": [],
      "stateMutability": "nonpayable",
      "type": "function"
    },
    {
      "inputs": [
        {
          "internalType": "bytes32",
          "name": "role",
          "type": "bytes32"
        },
        {
          "internalType": "address",
          "name": "account",
          "type": "address"
        }
      ],
      "name": "renounceRole",
      "outputs": [],
      "stateMutability": "nonpayable",
      "type": "function"
    },
    {
      "inputs": [
        {
          "internalType": "bytes32",
          "name": "role",
          "type": "bytes32"
        },
        {
          "internalType": "address",
          "name": "account",
          "type": "address"
        }
      ],
      "name": "revokeRole",
      "outputs": [],
      "stateMutability": "nonpayable",
      "type": "function"
    },
    {
      "inputs": [
        {
          "internalType": "address",
          "name": "_contractAddress",
          "type": "address"
        },
        {
          "internalType": "uint8",
          "name": "_percentage",
          "type": "uint8"
        }
      ],
      "name": "setERC721ContractPrimarySaleFeePercentage",
      "outputs": [],
      "stateMutability": "nonpayable",
      "type": "function"
    },
    {
      "inputs": [
        {
          "internalType": "uint8",
          "name": "_percentage",
          "type": "uint8"
        }
      ],
      "name": "setMarketplaceFeePercentage",
      "outputs": [],
      "stateMutability": "nonpayable",
      "type": "function"
    },
    {
      "inputs": [
        {
          "internalType": "uint256",
          "name": "_maxValue",
          "type": "uint256"
        }
      ],
      "name": "setMarketplaceMaxValue",
      "outputs": [],
      "stateMutability": "nonpayable",
      "type": "function"
    },
    {
      "inputs": [
        {
          "internalType": "uint256",
          "name": "_minValue",
          "type": "uint256"
        }
      ],
      "name": "setMarketplaceMinValue",
      "outputs": [],
      "stateMutability": "nonpayable",
      "type": "function"
    },
    {
      "inputs": [
        {
          "internalType": "bytes4",
          "name": "interfaceId",
          "type": "bytes4"
        }
      ],
      "name": "supportsInterface",
      "outputs": [
        {
          "internalType": "bool",
          "name": "",
          "type": "bool"
        }
      ],
      "stateMutability": "view",
      "type": "function"
    },
    {
      "inputs": [
        {
          "internalType": "address",
          "name": "newOwner",
          "type": "address"
        }
      ],
      "name": "transferOwnership",
      "outputs": [],
      "stateMutability": "nonpayable",
      "type": "function"
    }
  ],
  "bytecode": {
    "object": "0x60806040523480156200001157600080fd5b506200001d336200008f565b600160fe1b6002556103e860039081556004805460ff19169091179055620000596000620000536000546001600160a01b031690565b620000df565b620000896e544f4b454e5f4d41524b5f524f4c4560881b620000836000546001600160a01b031690565b620000ef565b620005a8565b600080546001600160a01b038381166001600160a01b0319831681178455604051919092169283917f8be0079c531659141344cd1fd0a4f28419497f9722a3daafe3b4186f6b6457e09190a35050565b620000eb82826200011e565b5050565b600082815260016020819052604090912001546200010d81620001a6565b6200011983836200011e565b505050565b60008281526001602090815260408083206001600160a01b038516845290915290205460ff16620000eb5760008281526001602081815260408084206001600160a01b0386168086529252808420805460ff19169093179092559051339285917f2f8788117e7eff1d82e926ec794901d17c78024a50270940304540a733656f0d9190a45050565b620001b28133620001b5565b50565b60008281526001602090815260408083206001600160a01b038516845290915290205460ff16620000eb57620001f6816200025060201b620009741760201c565b6200020c836020620009866200026e821b17811c565b6040516020016200021f92919062000461565b60408051601f198184030181529082905262461bcd60e51b82526200024791600401620004da565b60405180910390fd5b6060620002686001600160a01b03831660146200026e565b92915050565b606060006200027f83600262000525565b6200028c90600262000547565b6001600160401b03811115620002a657620002a662000562565b6040519080825280601f01601f191660200182016040528015620002d1576020820181803683370190505b509050600360fc1b81600081518110620002ef57620002ef62000578565b60200101906001600160f81b031916908160001a905350600f60fb1b8160018151811062000321576200032162000578565b60200101906001600160f81b031916908160001a90535060006200034784600262000525565b6200035490600162000547565b90505b6001811115620003d6576f181899199a1a9b1b9c1cb0b131b232b360811b85600f16601081106200038c576200038c62000578565b1a60f81b828281518110620003a557620003a562000578565b60200101906001600160f81b031916908160001a90535060049490941c93620003ce816200058e565b905062000357565b508315620004275760405162461bcd60e51b815260206004820181905260248201527f537472696e67733a20686578206c656e67746820696e73756666696369656e74604482015260640162000247565b9392505050565b60005b838110156200044b57818101518382015260200162000431565b838111156200045b576000848401525b50505050565b7f416363657373436f6e74726f6c3a206163636f756e74200000000000000000008152600083516200049b8160178501602088016200042e565b7001034b99036b4b9b9b4b733903937b6329607d1b6017918401918201528351620004ce8160288401602088016200042e565b01602801949350505050565b6020815260008251806020840152620004fb8160408501602087016200042e565b601f01601f19169190910160400192915050565b634e487b7160e01b600052601160045260246000fd5b60008160001904831182151516156200054257620005426200050f565b500290565b600082198211156200055d576200055d6200050f565b500190565b634e487b7160e01b600052604160045260246000fd5b634e487b7160e01b600052603260045260246000fd5b600081620005a057620005a06200050f565b506000190190565b61112480620005b86000396000f3fe608060405234801561001057600080fd5b50600436106101735760003560e01c8063715018a6116100de578063ae312a9711610097578063c3fc495211610071578063c3fc49521461036f578063d547741f14610382578063f2fde38b14610395578063f9a23e86146103a857600080fd5b8063ae312a971461031d578063b28a7bad14610330578063b60c81351461035c57600080fd5b8063715018a6146102b357806382ebaa59146102bb57806383475921146102ce5780638da5cb5b146102e757806391d1485414610302578063a217fddf1461031557600080fd5b80633765628c116101305780633765628c14610220578063511bc84c146102395780635a3c652d146102725780635c1b40f11461028557806362029a1b1461028d5780636357f1ac146102a057600080fd5b806301ffc9a714610178578063248a9ca3146101a05780632b702b5f146101d25780632cfda2f1146101e75780632f2ff15d146101fa57806336568abe1461020d575b600080fd5b61018b610186366004610d01565b6103b0565b60405190151581526020015b60405180910390f35b6101c46101ae366004610d2b565b6000908152600160208190526040909120015490565b604051908152602001610197565b6101e56101e0366004610d60565b6103e7565b005b6101e56101f5366004610d2b565b610527565b6101e5610208366004610de6565b610534565b6101e561021b366004610de6565b61055f565b6101c46e544f4b454e5f4d41524b5f524f4c4560881b81565b61018b610247366004610e12565b6001600160a01b03919091166000908152600660209081526040808320938352929052205460ff1690565b6101e5610280366004610e3c565b6105dd565b6003546101c4565b6101e561029b366004610d2b565b61064a565b6101c46102ae366004610e12565b610657565b6101e5610691565b6101e56102c9366004610e81565b6106a5565b60045460ff165b60405160ff9091168152602001610197565b6000546040516001600160a01b039091168152602001610197565b61018b610310366004610de6565b610738565b6101c4600081565b6101e561032b366004610ead565b610763565b6102d561033e366004610e81565b6001600160a01b031660009081526005602052604090205460ff1690565b6101e561036a366004610ed7565b610820565b6101c461037d366004610d2b565b6108b8565b6101e5610390366004610de6565b6108d8565b6101e56103a3366004610e81565b6108fe565b6002546101c4565b60006001600160e01b03198216637965db0b60e01b14806103e157506301ffc9a760e01b6001600160e01b03198316145b92915050565b6104036e544f4b454e5f4d41524b5f524f4c4560881b33610738565b6104285760405162461bcd60e51b815260040161041f90610ef2565b60405180910390fd5b6107d08111156104aa5760405162461bcd60e51b815260206004820152604160248201527f6d61726b546f6b656e734173536f6c643a3a417474656d7074656420746f206d60448201527f61726b206d6f7265207468616e203230303020746f6b656e7320617320736f6c6064820152601960fa1b608482015260a40161041f565b60005b81811015610521576001600160a01b03841660009081526006602052604081206001918585858181106104e2576104e2610f4f565b90506020020135815260200190815260200160002060006101000a81548160ff021916908315150217905550808061051990610f7b565b9150506104ad565b50505050565b61052f610b22565b600255565b6000828152600160208190526040909120015461055081610b7c565b61055a8383610b86565b505050565b6001600160a01b03811633146105cf5760405162461bcd60e51b815260206004820152602f60248201527f416363657373436f6e74726f6c3a2063616e206f6e6c792072656e6f756e636560448201526e103937b632b9903337b91039b2b63360891b606482015260840161041f565b6105d98282610bf1565b5050565b6105f96e544f4b454e5f4d41524b5f524f4c4560881b33610738565b6106155760405162461bcd60e51b815260040161041f90610ef2565b6001600160a01b0392909216600090815260066020908152604080832093835292905220805460ff1916911515919091179055565b610652610b22565b600355565b6001600160a01b0382166000908152600560205260408120546064906106809060ff1684610f94565b61068a9190610fb3565b9392505050565b610699610b22565b6106a36000610c58565b565b6106b0600033610738565b6107195760405162461bcd60e51b815260206004820152603460248201527f6772616e744d61726b6574706c6163654163636573733a3a4d7573742062652060448201527318591b5a5b881d1bc818d85b1b081b595d1a1bd960621b606482015260840161041f565b6107356e544f4b454e5f4d41524b5f524f4c4560881b82610534565b50565b60009182526001602090815260408084206001600160a01b0393909316845291905290205460ff1690565b61076b610b22565b60648160ff1611156107f35760405162461bcd60e51b815260206004820152604560248201527f736574455243373231436f6e74726163745072696d61727953616c654665655060448201527f657263656e746167653a3a5f70657263656e74616765206d757374206265203c60648201526403d203130360dc1b608482015260a40161041f565b6001600160a01b03919091166000908152600560205260409020805460ff191660ff909216919091179055565b610828610b22565b60648160ff1611156108a25760405162461bcd60e51b815260206004820152603760248201527f7365744d61726b6574706c61636546656550657263656e746167653a3a5f706560448201527f7263656e74616765206d757374206265203c3d20313030000000000000000000606482015260840161041f565b6004805460ff191660ff92909216919091179055565b6004546000906064906108ce9060ff1684610f94565b6103e19190610fb3565b600082815260016020819052604090912001546108f481610b7c565b61055a8383610bf1565b610906610b22565b6001600160a01b03811661096b5760405162461bcd60e51b815260206004820152602660248201527f4f776e61626c653a206e6577206f776e657220697320746865207a65726f206160448201526564647265737360d01b606482015260840161041f565b61073581610c58565b60606103e16001600160a01b03831660145b60606000610995836002610f94565b6109a0906002610fd5565b67ffffffffffffffff8111156109b8576109b8610fed565b6040519080825280601f01601f1916602001820160405280156109e2576020820181803683370190505b509050600360fc1b816000815181106109fd576109fd610f4f565b60200101906001600160f81b031916908160001a905350600f60fb1b81600181518110610a2c57610a2c610f4f565b60200101906001600160f81b031916908160001a9053506000610a50846002610f94565b610a5b906001610fd5565b90505b6001811115610ad3576f181899199a1a9b1b9c1cb0b131b232b360811b85600f1660108110610a8f57610a8f610f4f565b1a60f81b828281518110610aa557610aa5610f4f565b60200101906001600160f81b031916908160001a90535060049490941c93610acc81611003565b9050610a5e565b50831561068a5760405162461bcd60e51b815260206004820181905260248201527f537472696e67733a20686578206c656e67746820696e73756666696369656e74604482015260640161041f565b6000546001600160a01b031633146106a35760405162461bcd60e51b815260206004820181905260248201527f4f776e61626c653a2063616c6c6572206973206e6f7420746865206f776e6572604482015260640161041f565b6107358133610ca8565b610b908282610738565b6105d95760008281526001602081815260408084206001600160a01b0386168086529252808420805460ff19169093179092559051339285917f2f8788117e7eff1d82e926ec794901d17c78024a50270940304540a733656f0d9190a45050565b610bfb8282610738565b156105d95760008281526001602090815260408083206001600160a01b0385168085529252808320805460ff1916905551339285917ff6391f5c32d9c69d2a47ea670b442974b53935d1edc7fd64eb21e047a839171b9190a45050565b600080546001600160a01b038381166001600160a01b0319831681178455604051919092169283917f8be0079c531659141344cd1fd0a4f28419497f9722a3daafe3b4186f6b6457e09190a35050565b610cb28282610738565b6105d957610cbf81610974565b610cca836020610986565b604051602001610cdb929190611046565b60408051601f198184030181529082905262461bcd60e51b825261041f916004016110bb565b600060208284031215610d1357600080fd5b81356001600160e01b03198116811461068a57600080fd5b600060208284031215610d3d57600080fd5b5035919050565b80356001600160a01b0381168114610d5b57600080fd5b919050565b600080600060408486031215610d7557600080fd5b610d7e84610d44565b9250602084013567ffffffffffffffff80821115610d9b57600080fd5b818601915086601f830112610daf57600080fd5b813581811115610dbe57600080fd5b8760208260051b8501011115610dd357600080fd5b6020830194508093505050509250925092565b60008060408385031215610df957600080fd5b82359150610e0960208401610d44565b90509250929050565b60008060408385031215610e2557600080fd5b610e2e83610d44565b946020939093013593505050565b600080600060608486031215610e5157600080fd5b610e5a84610d44565b92506020840135915060408401358015158114610e7657600080fd5b809150509250925092565b600060208284031215610e9357600080fd5b61068a82610d44565b803560ff81168114610d5b57600080fd5b60008060408385031215610ec057600080fd5b610ec983610d44565b9150610e0960208401610e9c565b600060208284031215610ee957600080fd5b61068a82610e9c565b6020808252603e908201527f6d61726b455243373231546f6b656e3a3a4d757374206861766520544f4b454e60408201527f5f4d41524b5f524f4c4520726f6c6520746f2063616c6c206d6574686f640000606082015260800190565b634e487b7160e01b600052603260045260246000fd5b634e487b7160e01b600052601160045260246000fd5b600060018201610f8d57610f8d610f65565b5060010190565b6000816000190483118215151615610fae57610fae610f65565b500290565b600082610fd057634e487b7160e01b600052601260045260246000fd5b500490565b60008219821115610fe857610fe8610f65565b500190565b634e487b7160e01b600052604160045260246000fd5b60008161101257611012610f65565b506000190190565b60005b8381101561103557818101518382015260200161101d565b838111156105215750506000910152565b7f416363657373436f6e74726f6c3a206163636f756e742000000000000000000081526000835161107e81601785016020880161101a565b7001034b99036b4b9b9b4b733903937b6329607d1b60179184019182015283516110af81602884016020880161101a565b01602801949350505050565b60208152600082518060208401526110da81604085016020870161101a565b601f01601f1916919091016040019291505056fea26469706673582212207e65e849e5484cd7b9c9a89598ad02a7233be92b8d15848ac4a7343b8883716b64736f6c634300080f0033",
    "linkReferences": {}
  },
  "methodIdentifiers": {
    "DEFAULT_ADMIN_ROLE()": "a217fddf",
    "TOKEN_MARK_ROLE()": "3765628c",
    "calculateMarketplaceFee(uint256)": "c3fc4952",
    "calculatePrimarySaleFee(address,uint256)": "6357f1ac",
    "getERC721ContractPrimarySaleFeePercentage(address)": "b28a7bad",
    "getMarketplaceFeePercentage()": "83475921",
    "getMarketplaceMaxValue()": "f9a23e86",
    "getMarketplaceMinValue()": "5c1b40f1",
    "getRoleAdmin(bytes32)": "248a9ca3",
    "grantMarketplaceAccess(address)": "82ebaa59",
    "grantRole(bytes32,address)": "2f2ff15d",
    "hasERC721TokenSold(address,uint256)": "511bc84c",
    "hasRole(bytes32,address)": "91d14854",
    "markERC721Token(address,uint256,bool)": "5a3c652d",
    "markTokensAsSold(address,uint256[])": "2b702b5f",
    "owner()": "8da5cb5b",
    "renounceOwnership()": "715018a6",
    "renounceRole(bytes32,address)": "36568abe",
    "revokeRole(bytes32,address)": "d547741f",
    "setERC721ContractPrimarySaleFeePercentage(address,uint8)": "ae312a97",
    "setMarketplaceFeePercentage(uint8)": "b60c8135",
    "setMarketplaceMaxValue(uint256)": "2cfda2f1",
    "setMarketplaceMinValue(uint256)": "62029a1b",
    "supportsInterface(bytes4)": "01ffc9a7",
    "transferOwnership(address)": "f2fde38b"
  },
  "id": 56
}