{
  "abi": [
    {
      "inputs": [
        {
          "internalType": "address",
          "name": "newOwner",
          "type": "address"
        },
        {
          "internalType": "address",
          "name": "oldSettings",
          "type": "address"
        }
      ],
      "stateMutability": "nonpayable",
      "type": "constructor"
    },
    {
      "anonymous": false,
      "inputs": [
        {
          "indexed": true,
          "internalType": "address",
          "name": "previousOwner",
          "type": "address"
        },
        {
          "indexed": true,
          "internalType": "address",
          "name": "newOwner",
          "type": "address"
        }
      ],
      "name": "OwnershipTransferred",
      "type": "event"
    },
    {
      "anonymous": false,
      "inputs": [
        {
          "indexed": true,
          "internalType": "bytes32",
          "name": "role",
          "type": "bytes32"
        },
        {
          "indexed": true,
          "internalType": "bytes32",
          "name": "previousAdminRole",
          "type": "bytes32"
        },
        {
          "indexed": true,
          "internalType": "bytes32",
          "name": "newAdminRole",
          "type": "bytes32"
        }
      ],
      "name": "RoleAdminChanged",
      "type": "event"
    },
    {
      "anonymous": false,
      "inputs": [
        {
          "indexed": true,
          "internalType": "bytes32",
          "name": "role",
          "type": "bytes32"
        },
        {
          "indexed": true,
          "internalType": "address",
          "name": "account",
          "type": "address"
        },
        {
          "indexed": true,
          "internalType": "address",
          "name": "sender",
          "type": "address"
        }
      ],
      "name": "RoleGranted",
      "type": "event"
    },
    {
      "anonymous": false,
      "inputs": [
        {
          "indexed": true,
          "internalType": "bytes32",
          "name": "role",
          "type": "bytes32"
        },
        {
          "indexed": true,
          "internalType": "address",
          "name": "account",
          "type": "address"
        },
        {
          "indexed": true,
          "internalType": "address",
          "name": "sender",
          "type": "address"
        }
      ],
      "name": "RoleRevoked",
      "type": "event"
    },
    {
      "inputs": [],
      "name": "DEFAULT_ADMIN_ROLE",
      "outputs": [
        {
          "internalType": "bytes32",
          "name": "",
          "type": "bytes32"
        }
      ],
      "stateMutability": "view",
      "type": "function"
    },
    {
      "inputs": [],
      "name": "TOKEN_MARK_ROLE",
      "outputs": [
        {
          "internalType": "bytes32",
          "name": "",
          "type": "bytes32"
        }
      ],
      "stateMutability": "view",
      "type": "function"
    },
    {
      "inputs": [
        {
          "internalType": "uint256",
          "name": "_amount",
          "type": "uint256"
        }
      ],
      "name": "calculateMarketplaceFee",
      "outputs": [
        {
          "internalType": "uint256",
          "name": "",
          "type": "uint256"
        }
      ],
      "stateMutability": "view",
      "type": "function"
    },
    {
      "inputs": [
        {
          "internalType": "uint256",
          "name": "_amount",
          "type": "uint256"
        }
      ],
      "name": "calculateMarketplacePayoutFee",
      "outputs": [
        {
          "internalType": "uint256",
          "name": "",
          "type": "uint256"
        }
      ],
      "stateMutability": "view",
      "type": "function"
    },
    {
      "inputs": [
        {
          "internalType": "address",
          "name": "",
          "type": "address"
        },
        {
          "internalType": "uint256",
          "name": "_amount",
          "type": "uint256"
        }
      ],
      "name": "calculatePrimarySaleFee",
      "outputs": [
        {
          "internalType": "uint256",
          "name": "",
          "type": "uint256"
        }
      ],
      "stateMutability": "view",
      "type": "function"
    },
    {
      "inputs": [
        {
          "internalType": "uint256",
          "name": "_amount",
          "type": "uint256"
        }
      ],
      "name": "calculateStakingFee",
      "outputs": [
        {
          "internalType": "uint256",
          "name": "",
          "type": "uint256"
        }
      ],
      "stateMutability": "view",
      "type": "function"
    },
    {
      "inputs": [
        {
          "internalType": "address",
          "name": "",
          "type": "address"
        }
      ],
      "name": "getERC721ContractPrimarySaleFeePercentage",
      "outputs": [
        {
          "internalType": "uint8",
          "name": "",
          "type": "uint8"
        }
      ],
      "stateMutability": "view",
      "type": "function"
    },
    {
      "inputs": [],
      "name": "getMarketplaceFeePercentage",
      "outputs": [
        {
          "internalType": "uint8",
          "name": "",
          "type": "uint8"
        }
      ],
      "stateMutability": "view",
      "type": "function"
    },
    {
      "inputs": [],
      "name": "getMarketplaceMaxValue",
      "outputs": [
        {
          "internalType": "uint256",
          "name": "",
          "type": "uint256"
        }
      ],
      "stateMutability": "view",
      "type": "function"
    },
    {
      "inputs": [],
      "name": "getMarketplaceMinValue",
      "outputs": [
        {
          "internalType": "uint256",
          "name": "",
          "type": "uint256"
        }
      ],
      "stateMutability": "view",
      "type": "function"
    },
    {
      "inputs": [
        {
          "internalType": "bytes32",
          "name": "role",
          "type": "bytes32"
        }
      ],
      "name": "getRoleAdmin",
      "outputs": [
        {
          "internalType": "bytes32",
          "name": "",
          "type": "bytes32"
        }
      ],
      "stateMutability": "view",
      "type": "function"
    },
    {
      "inputs": [],
      "name": "getStakingFeePercentage",
      "outputs": [
        {
          "internalType": "uint8",
          "name": "",
          "type": "uint8"
        }
      ],
      "stateMutability": "view",
      "type": "function"
    },
    {
      "inputs": [
        {
          "internalType": "address",
          "name": "_account",
          "type": "address"
        }
      ],
      "name": "grantMarketplaceAccess",
      "outputs": [],
      "stateMutability": "nonpayable",
      "type": "function"
    },
    {
      "inputs": [
        {
          "internalType": "bytes32",
          "name": "role",
          "type": "bytes32"
        },
        {
          "internalType": "address",
          "name": "account",
          "type": "address"
        }
      ],
      "name": "grantRole",
      "outputs": [],
      "stateMutability": "nonpayable",
      "type": "function"
    },
    {
      "inputs": [
        {
          "internalType": "address",
          "name": "_contractAddress",
          "type": "address"
        },
        {
          "internalType": "uint256",
          "name": "_tokenId",
          "type": "uint256"
        }
      ],
      "name": "hasERC721TokenSold",
      "outputs": [
        {
          "internalType": "bool",
          "name": "",
          "type": "bool"
        }
      ],
      "stateMutability": "view",
      "type": "function"
    },
    {
      "inputs": [
        {
          "internalType": "bytes32",
          "name": "role",
          "type": "bytes32"
        },
        {
          "internalType": "address",
          "name": "account",
          "type": "address"
        }
      ],
      "name": "hasRole",
      "outputs": [
        {
          "internalType": "bool",
          "name": "",
          "type": "bool"
        }
      ],
      "stateMutability": "view",
      "type": "function"
    },
    {
      "inputs": [
        {
          "internalType": "address",
          "name": "_contractAddress",
          "type": "address"
        }
      ],
      "name": "markContractAsSold",
      "outputs": [
        {
          "internalType": "bool",
          "name": "",
          "type": "bool"
        }
      ],
      "stateMutability": "nonpayable",
      "type": "function"
    },
    {
      "inputs": [
        {
          "internalType": "address",
          "name": "_contractAddress",
          "type": "address"
        },
        {
          "internalType": "uint256",
          "name": "_tokenId",
          "type": "uint256"
        },
        {
          "internalType": "bool",
          "name": "_hasSold",
          "type": "bool"
        }
      ],
      "name": "markERC721Token",
      "outputs": [],
      "stateMutability": "nonpayable",
      "type": "function"
    },
    {
      "inputs": [
        {
          "internalType": "address",
          "name": "_originContract",
          "type": "address"
        },
        {
          "internalType": "uint256[]",
          "name": "_tokenIds",
          "type": "uint256[]"
        }
      ],
      "name": "markTokensAsSold",
      "outputs": [],
      "stateMutability": "nonpayable",
      "type": "function"
    },
    {
      "inputs": [],
      "name": "owner",
      "outputs": [
        {
          "internalType": "address",
          "name": "",
          "type": "address"
        }
      ],
      "stateMutability": "view",
      "type": "function"
    },
    {
      "inputs": [],
      "name": "renounceOwnership",
      "outputs": [],
      "stateMutability": "nonpayable",
      "type": "function"
    },
    {
      "inputs": [
        {
          "internalType": "bytes32",
          "name": "role",
          "type": "bytes32"
        },
        {
          "internalType": "address",
          "name": "account",
          "type": "address"
        }
      ],
      "name": "renounceRole",
      "outputs": [],
      "stateMutability": "nonpayable",
      "type": "function"
    },
    {
      "inputs": [
        {
          "internalType": "bytes32",
          "name": "role",
          "type": "bytes32"
        },
        {
          "internalType": "address",
          "name": "account",
          "type": "address"
        }
      ],
      "name": "revokeRole",
      "outputs": [],
      "stateMutability": "nonpayable",
      "type": "function"
    },
    {
      "inputs": [
        {
          "internalType": "address",
          "name": "_contractAddress",
          "type": "address"
        },
        {
          "internalType": "uint8",
          "name": "_percentage",
          "type": "uint8"
        }
      ],
      "name": "setERC721ContractPrimarySaleFeePercentage",
      "outputs": [],
      "stateMutability": "nonpayable",
      "type": "function"
    },
    {
      "inputs": [
        {
          "internalType": "uint8",
          "name": "_percentage",
          "type": "uint8"
        }
      ],
      "name": "setMarketplaceFeePercentage",
      "outputs": [],
      "stateMutability": "nonpayable",
      "type": "function"
    },
    {
      "inputs": [
        {
          "internalType": "uint256",
          "name": "_maxValue",
          "type": "uint256"
        }
      ],
      "name": "setMarketplaceMaxValue",
      "outputs": [],
      "stateMutability": "nonpayable",
      "type": "function"
    },
    {
      "inputs": [
        {
          "internalType": "uint256",
          "name": "_minValue",
          "type": "uint256"
        }
      ],
      "name": "setMarketplaceMinValue",
      "outputs": [],
      "stateMutability": "nonpayable",
      "type": "function"
    },
    {
      "inputs": [
        {
          "internalType": "uint8",
          "name": "_primarySaleFeePercentage",
          "type": "uint8"
        }
      ],
      "name": "setPrimarySaleFeePercentage",
      "outputs": [],
      "stateMutability": "nonpayable",
      "type": "function"
    },
    {
      "inputs": [
        {
          "internalType": "uint8",
          "name": "_percentage",
          "type": "uint8"
        }
      ],
      "name": "setStakingFeePercentage",
      "outputs": [],
      "stateMutability": "nonpayable",
      "type": "function"
    },
    {
      "inputs": [
        {
          "internalType": "bytes4",
          "name": "interfaceId",
          "type": "bytes4"
        }
      ],
      "name": "supportsInterface",
      "outputs": [
        {
          "internalType": "bool",
          "name": "",
          "type": "bool"
        }
      ],
      "stateMutability": "view",
      "type": "function"
    },
    {
      "inputs": [
        {
          "internalType": "address",
          "name": "newOwner",
          "type": "address"
        }
      ],
      "name": "transferOwnership",
      "outputs": [],
      "stateMutability": "nonpayable",
      "type": "function"
    }
  ],
  "bytecode": {
    "object": "0x60806040523480156200001157600080fd5b506040516200182b3803806200182b8339810160408190526200003491620003a9565b6200003f33620001c7565b600160fe1b6005556103e86006556007805461ffff1916610f031790556002805460ff191690556001600160a01b038216620000d85760405162461bcd60e51b815260206004820152602d60248201527f636f6e7374727563746f723a3a4e6577206f776e65722061646472657373206360448201526c185b9b9bdd081899481b9d5b1b609a1b60648201526084015b60405180910390fd5b6001600160a01b038116620001565760405162461bcd60e51b815260206004820152603c60248201527f636f6e7374727563746f723a3a4f6c64204d61726b6574706c6163652053657460448201527f74696e677320616464726573732063616e6e6f74206265206e756c6c000000006064820152608401620000cf565b6200016360008362000217565b6200018f7fe403a42bbb760a8b3610033c6ca9047404adf765af465dfb889617dd2d64bf628362000217565b6200019a8262000227565b600280546001600160a01b0390921661010002610100600160a81b031990921691909117905550620003e1565b600080546001600160a01b038381166001600160a01b0319831681178455604051919092169283917f8be0079c531659141344cd1fd0a4f28419497f9722a3daafe3b4186f6b6457e09190a35050565b620002238282620002a6565b5050565b620002316200032e565b6001600160a01b038116620002985760405162461bcd60e51b815260206004820152602660248201527f4f776e61626c653a206e6577206f776e657220697320746865207a65726f206160448201526564647265737360d01b6064820152608401620000cf565b620002a381620001c7565b50565b60008281526001602090815260408083206001600160a01b038516845290915290205460ff16620002235760008281526001602081815260408084206001600160a01b0386168086529252808420805460ff19169093179092559051339285917f2f8788117e7eff1d82e926ec794901d17c78024a50270940304540a733656f0d9190a45050565b6000546001600160a01b031633146200038a5760405162461bcd60e51b815260206004820181905260248201527f4f776e61626c653a2063616c6c6572206973206e6f7420746865206f776e65726044820152606401620000cf565b565b80516001600160a01b0381168114620003a457600080fd5b919050565b60008060408385031215620003bd57600080fd5b620003c8836200038c565b9150620003d8602084016200038c565b90509250929050565b61143a80620003f16000396000f3fe608060405234801561001057600080fd5b50600436106101e55760003560e01c8063715018a61161010f578063ae312a97116100a2578063c60870d311610071578063c60870d314610411578063d547741f14610424578063f2fde38b14610437578063f9a23e861461044a57600080fd5b8063ae312a97146103bc578063b28a7bad146103ce578063b60c8135146103eb578063c3fc4952146103fe57600080fd5b80638e1addb2116100de5780638e1addb21461038357806391d14854146103965780639d5fb53c146103a9578063a217fddf146103b457600080fd5b8063715018a61461033457806382ebaa591461033c578063834759211461034f5780638da5cb5b1461036857600080fd5b8063364d6044116101875780635a3c652d116101565780635a3c652d146102f35780635c1b40f11461030657806362029a1b1461030e5780636357f1ac1461032157600080fd5b8063364d6044146102a557806336568abe146102b85780633765628c146102cb578063511bc84c146102e057600080fd5b8063248a9ca3116101c3578063248a9ca3146102485780632b702b5f1461026c5780632cfda2f11461027f5780632f2ff15d1461029257600080fd5b806301ffc9a7146101ea5780630ff77844146102125780631ad99c3714610233575b600080fd5b6101fd6101f8366004610fae565b610452565b60405190151581526020015b60405180910390f35b610225610220366004610fd8565b610489565b604051908152602001610209565b610246610241366004611007565b6104bc565b005b610225610256366004610fd8565b6000908152600160208190526040909120015490565b61024661027a366004611039565b6104e0565b61024661028d366004610fd8565b6105e6565b6102466102a03660046110bf565b6105f3565b6101fd6102b33660046110eb565b61061e565b6102466102c63660046110bf565b610720565b6102256000805160206113e583398151915281565b6101fd6102ee366004611106565b61079a565b61024661030136600461113e565b61083d565b600654610225565b61024661031c366004610fd8565b6108ea565b61022561032f366004611106565b6108f7565b610246610923565b61024661034a3660046110eb565b610937565b60075460ff165b60405160ff9091168152602001610209565b6000546040516001600160a01b039091168152602001610209565b610225610391366004610fd8565b6109c6565b6101fd6103a43660046110bf565b6109dc565b60025460ff16610356565b610225600081565b6102466103ca36600461117e565b5050565b6103566103dc3660046110eb565b50600754610100900460ff1690565b6102466103f9366004611007565b610a07565b61022561040c366004610fd8565b610a9f565b61024661041f366004611007565b610ab5565b6102466104323660046110bf565b610b63565b6102466104453660046110eb565b610b89565b600554610225565b60006001600160e01b03198216637965db0b60e01b148061048357506301ffc9a760e01b6001600160e01b03198316145b92915050565b6002546007546000916064916104a59160ff90811691166111be565b6104b29060ff16846111e1565b6104839190611200565b6104c4610bff565b6007805460ff9092166101000261ff0019909216919091179055565b6104f86000805160206113e5833981519152336109dc565b61051d5760405162461bcd60e51b815260040161051490611222565b60405180910390fd5b6107d081111561059f5760405162461bcd60e51b815260206004820152604160248201527f6d61726b546f6b656e734173536f6c643a3a417474656d7074656420746f206d60448201527f61726b206d6f7265207468616e203230303020746f6b656e7320617320736f6c6064820152601960fa1b608482015260a401610514565b60005b818110156105e0576105ce848484848181106105c0576105c061127f565b90506020020135600161083d565b806105d881611295565b9150506105a2565b50505050565b6105ee610bff565b600555565b6000828152600160208190526040909120015461060f81610c59565b6106198383610c63565b505050565b60006106386000805160206113e5833981519152336109dc565b6106aa5760405162461bcd60e51b815260206004820152603b60248201527f6d61726b436f6e74726163743a3a4d757374206861766520544f4b454e5f4d4160448201527f524b5f524f4c4520726f6c6520746f2063616c6c206d6574686f6400000000006064820152608401610514565b600254604051630d93581160e21b81526001600160a01b0384811660048301526101009092049091169063364d6044906024016020604051808303816000875af11580156106fc573d6000803e3d6000fd5b505050506040513d601f19601f8201168201806040525081019061048391906112ae565b6001600160a01b03811633146107905760405162461bcd60e51b815260206004820152602f60248201527f416363657373436f6e74726f6c3a2063616e206f6e6c792072656e6f756e636560448201526e103937b632b9903337b91039b2b63360891b6064820152608401610514565b6103ca8282610cce565b6000806107a8600385610d35565b905080156107ba576001915050610483565b600254604051631446f21360e21b81526001600160a01b038681166004830152602482018690526101009092049091169063511bc84c90604401602060405180830381865afa158015610811573d6000803e3d6000fd5b505050506040513d601f19601f8201168201806040525081019061083591906112ae565b949350505050565b6108556000805160206113e5833981519152336109dc565b6108715760405162461bcd60e51b815260040161051490611222565b600254604051635a3c652d60e01b81526001600160a01b03858116600483015260248201859052831515604483015261010090920490911690635a3c652d90606401600060405180830381600087803b1580156108cd57600080fd5b505af11580156108e1573d6000803e3d6000fd5b50505050505050565b6108f2610bff565b600655565b60075460009060649061091290610100900460ff16846111e1565b61091c9190611200565b9392505050565b61092b610bff565b6109356000610d57565b565b6109426000336109dc565b6109ab5760405162461bcd60e51b815260206004820152603460248201527f6772616e744d61726b6574706c6163654163636573733a3a4d7573742062652060448201527318591b5a5b881d1bc818d85b1b081b595d1a1bd960621b6064820152608401610514565b6109c36000805160206113e5833981519152826105f3565b50565b6002546000906064906104b29060ff16846111e1565b60009182526001602090815260408084206001600160a01b0393909316845291905290205460ff1690565b610a0f610bff565b60648160ff161115610a895760405162461bcd60e51b815260206004820152603760248201527f7365744d61726b6574706c61636546656550657263656e746167653a3a5f706560448201527f7263656e74616765206d757374206265203c3d203130300000000000000000006064820152608401610514565b6007805460ff191660ff92909216919091179055565b6007546000906064906104b29060ff16846111e1565b610abd610bff565b60075460ff9081169082161115610b4d5760405162461bcd60e51b815260206004820152604860248201527f7365745374616b696e6746656550657263656e746167653a3a5f70657263656e60448201527f74616765206d757374206265203c3d206d61726b6574706c61636546656550656064820152677263656e7461676560c01b608482015260a401610514565b6002805460ff191660ff92909216919091179055565b60008281526001602081905260409091200154610b7f81610c59565b6106198383610cce565b610b91610bff565b6001600160a01b038116610bf65760405162461bcd60e51b815260206004820152602660248201527f4f776e61626c653a206e6577206f776e657220697320746865207a65726f206160448201526564647265737360d01b6064820152608401610514565b6109c381610d57565b6000546001600160a01b031633146109355760405162461bcd60e51b815260206004820181905260248201527f4f776e61626c653a2063616c6c6572206973206e6f7420746865206f776e65726044820152606401610514565b6109c38133610da7565b610c6d82826109dc565b6103ca5760008281526001602081815260408084206001600160a01b0386168086529252808420805460ff19169093179092559051339285917f2f8788117e7eff1d82e926ec794901d17c78024a50270940304540a733656f0d9190a45050565b610cd882826109dc565b156103ca5760008281526001602090815260408083206001600160a01b0385168085529252808320805460ff1916905551339285917ff6391f5c32d9c69d2a47ea670b442974b53935d1edc7fd64eb21e047a839171b9190a45050565b6001600160a01b0381166000908152600183016020526040812054151561091c565b600080546001600160a01b038381166001600160a01b0319831681178455604051919092169283917f8be0079c531659141344cd1fd0a4f28419497f9722a3daafe3b4186f6b6457e09190a35050565b610db182826109dc565b6103ca57610dbe81610e00565b610dc9836020610e12565b604051602001610dda9291906112f7565b60408051601f198184030181529082905262461bcd60e51b82526105149160040161136c565b60606104836001600160a01b03831660145b60606000610e218360026111e1565b610e2c90600261139f565b67ffffffffffffffff811115610e4457610e446113b7565b6040519080825280601f01601f191660200182016040528015610e6e576020820181803683370190505b509050600360fc1b81600081518110610e8957610e8961127f565b60200101906001600160f81b031916908160001a905350600f60fb1b81600181518110610eb857610eb861127f565b60200101906001600160f81b031916908160001a9053506000610edc8460026111e1565b610ee790600161139f565b90505b6001811115610f5f576f181899199a1a9b1b9c1cb0b131b232b360811b85600f1660108110610f1b57610f1b61127f565b1a60f81b828281518110610f3157610f3161127f565b60200101906001600160f81b031916908160001a90535060049490941c93610f58816113cd565b9050610eea565b50831561091c5760405162461bcd60e51b815260206004820181905260248201527f537472696e67733a20686578206c656e67746820696e73756666696369656e746044820152606401610514565b600060208284031215610fc057600080fd5b81356001600160e01b03198116811461091c57600080fd5b600060208284031215610fea57600080fd5b5035919050565b803560ff8116811461100257600080fd5b919050565b60006020828403121561101957600080fd5b61091c82610ff1565b80356001600160a01b038116811461100257600080fd5b60008060006040848603121561104e57600080fd5b61105784611022565b9250602084013567ffffffffffffffff8082111561107457600080fd5b818601915086601f83011261108857600080fd5b81358181111561109757600080fd5b8760208260051b85010111156110ac57600080fd5b6020830194508093505050509250925092565b600080604083850312156110d257600080fd5b823591506110e260208401611022565b90509250929050565b6000602082840312156110fd57600080fd5b61091c82611022565b6000806040838503121561111957600080fd5b61112283611022565b946020939093013593505050565b80151581146109c357600080fd5b60008060006060848603121561115357600080fd5b61115c84611022565b925060208401359150604084013561117381611130565b809150509250925092565b6000806040838503121561119157600080fd5b61119a83611022565b91506110e260208401610ff1565b634e487b7160e01b600052601160045260246000fd5b600060ff821660ff8416808210156111d8576111d86111a8565b90039392505050565b60008160001904831182151516156111fb576111fb6111a8565b500290565b60008261121d57634e487b7160e01b600052601260045260246000fd5b500490565b6020808252603e908201527f6d61726b455243373231546f6b656e3a3a4d757374206861766520544f4b454e60408201527f5f4d41524b5f524f4c4520726f6c6520746f2063616c6c206d6574686f640000606082015260800190565b634e487b7160e01b600052603260045260246000fd5b6000600182016112a7576112a76111a8565b5060010190565b6000602082840312156112c057600080fd5b815161091c81611130565b60005b838110156112e65781810151838201526020016112ce565b838111156105e05750506000910152565b7f416363657373436f6e74726f6c3a206163636f756e742000000000000000000081526000835161132f8160178501602088016112cb565b7001034b99036b4b9b9b4b733903937b6329607d1b60179184019182015283516113608160288401602088016112cb565b01602801949350505050565b602081526000825180602084015261138b8160408501602087016112cb565b601f01601f19169190910160400192915050565b600082198211156113b2576113b26111a8565b500190565b634e487b7160e01b600052604160045260246000fd5b6000816113dc576113dc6111a8565b50600019019056fee403a42bbb760a8b3610033c6ca9047404adf765af465dfb889617dd2d64bf62a2646970667358221220e34e6cf497666f75ecfbd78e952bae2e6144d138b7df496b75d76d1ec1c2af2c64736f6c634300080f0033",
    "linkReferences": {}
  },
  "methodIdentifiers": {
    "DEFAULT_ADMIN_ROLE()": "a217fddf",
    "TOKEN_MARK_ROLE()": "3765628c",
    "calculateMarketplaceFee(uint256)": "c3fc4952",
    "calculateMarketplacePayoutFee(uint256)": "0ff77844",
    "calculatePrimarySaleFee(address,uint256)": "6357f1ac",
    "calculateStakingFee(uint256)": "8e1addb2",
    "getERC721ContractPrimarySaleFeePercentage(address)": "b28a7bad",
    "getMarketplaceFeePercentage()": "83475921",
    "getMarketplaceMaxValue()": "f9a23e86",
    "getMarketplaceMinValue()": "5c1b40f1",
    "getRoleAdmin(bytes32)": "248a9ca3",
    "getStakingFeePercentage()": "9d5fb53c",
    "grantMarketplaceAccess(address)": "82ebaa59",
    "grantRole(bytes32,address)": "2f2ff15d",
    "hasERC721TokenSold(address,uint256)": "511bc84c",
    "hasRole(bytes32,address)": "91d14854",
    "markContractAsSold(address)": "364d6044",
    "markERC721Token(address,uint256,bool)": "5a3c652d",
    "markTokensAsSold(address,uint256[])": "2b702b5f",
    "owner()": "8da5cb5b",
    "renounceOwnership()": "715018a6",
    "renounceRole(bytes32,address)": "36568abe",
    "revokeRole(bytes32,address)": "d547741f",
    "setERC721ContractPrimarySaleFeePercentage(address,uint8)": "ae312a97",
    "setMarketplaceFeePercentage(uint8)": "b60c8135",
    "setMarketplaceMaxValue(uint256)": "2cfda2f1",
    "setMarketplaceMinValue(uint256)": "62029a1b",
    "setPrimarySaleFeePercentage(uint8)": "1ad99c37",
    "setStakingFeePercentage(uint8)": "c60870d3",
    "supportsInterface(bytes4)": "01ffc9a7",
    "transferOwnership(address)": "f2fde38b"
  },
  "id": 14
}