{
  "abi": [
    {
      "inputs": [
        {
          "internalType": "address",
          "name": "newOwner",
          "type": "address"
        },
        {
          "internalType": "address",
          "name": "oldSettings",
          "type": "address"
        }
      ],
      "stateMutability": "nonpayable",
      "type": "constructor"
    },
    {
      "anonymous": false,
      "inputs": [
        {
          "indexed": true,
          "internalType": "address",
          "name": "previousOwner",
          "type": "address"
        },
        {
          "indexed": true,
          "internalType": "address",
          "name": "newOwner",
          "type": "address"
        }
      ],
      "name": "OwnershipTransferred",
      "type": "event"
    },
    {
      "anonymous": false,
      "inputs": [
        {
          "indexed": true,
          "internalType": "bytes32",
          "name": "role",
          "type": "bytes32"
        },
        {
          "indexed": true,
          "internalType": "bytes32",
          "name": "previousAdminRole",
          "type": "bytes32"
        },
        {
          "indexed": true,
          "internalType": "bytes32",
          "name": "newAdminRole",
          "type": "bytes32"
        }
      ],
      "name": "RoleAdminChanged",
      "type": "event"
    },
    {
      "anonymous": false,
      "inputs": [
        {
          "indexed": true,
          "internalType": "bytes32",
          "name": "role",
          "type": "bytes32"
        },
        {
          "indexed": true,
          "internalType": "address",
          "name": "account",
          "type": "address"
        },
        {
          "indexed": true,
          "internalType": "address",
          "name": "sender",
          "type": "address"
        }
      ],
      "name": "RoleGranted",
      "type": "event"
    },
    {
      "anonymous": false,
      "inputs": [
        {
          "indexed": true,
          "internalType": "bytes32",
          "name": "role",
          "type": "bytes32"
        },
        {
          "indexed": true,
          "internalType": "address",
          "name": "account",
          "type": "address"
        },
        {
          "indexed": true,
          "internalType": "address",
          "name": "sender",
          "type": "address"
        }
      ],
      "name": "RoleRevoked",
      "type": "event"
    },
    {
      "inputs": [],
      "name": "DEFAULT_ADMIN_ROLE",
      "outputs": [
        {
          "internalType": "bytes32",
          "name": "",
          "type": "bytes32"
        }
      ],
      "stateMutability": "view",
      "type": "function"
    },
    {
      "inputs": [],
      "name": "TOKEN_MARK_ROLE",
      "outputs": [
        {
          "internalType": "bytes32",
          "name": "",
          "type": "bytes32"
        }
      ],
      "stateMutability": "view",
      "type": "function"
    },
    {
      "inputs": [
        {
          "internalType": "uint256",
          "name": "_amount",
          "type": "uint256"
        }
      ],
      "name": "calculateMarketplaceFee",
      "outputs": [
        {
          "internalType": "uint256",
          "name": "",
          "type": "uint256"
        }
      ],
      "stateMutability": "view",
      "type": "function"
    },
    {
      "inputs": [
        {
          "internalType": "address",
          "name": "",
          "type": "address"
        },
        {
          "internalType": "uint256",
          "name": "_amount",
          "type": "uint256"
        }
      ],
      "name": "calculatePrimarySaleFee",
      "outputs": [
        {
          "internalType": "uint256",
          "name": "",
          "type": "uint256"
        }
      ],
      "stateMutability": "view",
      "type": "function"
    },
    {
      "inputs": [
        {
          "internalType": "address",
          "name": "",
          "type": "address"
        }
      ],
      "name": "getERC721ContractPrimarySaleFeePercentage",
      "outputs": [
        {
          "internalType": "uint8",
          "name": "",
          "type": "uint8"
        }
      ],
      "stateMutability": "view",
      "type": "function"
    },
    {
      "inputs": [],
      "name": "getMarketplaceFeePercentage",
      "outputs": [
        {
          "internalType": "uint8",
          "name": "",
          "type": "uint8"
        }
      ],
      "stateMutability": "view",
      "type": "function"
    },
    {
      "inputs": [],
      "name": "getMarketplaceMaxValue",
      "outputs": [
        {
          "internalType": "uint256",
          "name": "",
          "type": "uint256"
        }
      ],
      "stateMutability": "view",
      "type": "function"
    },
    {
      "inputs": [],
      "name": "getMarketplaceMinValue",
      "outputs": [
        {
          "internalType": "uint256",
          "name": "",
          "type": "uint256"
        }
      ],
      "stateMutability": "view",
      "type": "function"
    },
    {
      "inputs": [
        {
          "internalType": "bytes32",
          "name": "role",
          "type": "bytes32"
        }
      ],
      "name": "getRoleAdmin",
      "outputs": [
        {
          "internalType": "bytes32",
          "name": "",
          "type": "bytes32"
        }
      ],
      "stateMutability": "view",
      "type": "function"
    },
    {
      "inputs": [
        {
          "internalType": "address",
          "name": "_account",
          "type": "address"
        }
      ],
      "name": "grantMarketplaceAccess",
      "outputs": [],
      "stateMutability": "nonpayable",
      "type": "function"
    },
    {
      "inputs": [
        {
          "internalType": "bytes32",
          "name": "role",
          "type": "bytes32"
        },
        {
          "internalType": "address",
          "name": "account",
          "type": "address"
        }
      ],
      "name": "grantRole",
      "outputs": [],
      "stateMutability": "nonpayable",
      "type": "function"
    },
    {
      "inputs": [
        {
          "internalType": "address",
          "name": "_contractAddress",
          "type": "address"
        },
        {
          "internalType": "uint256",
          "name": "_tokenId",
          "type": "uint256"
        }
      ],
      "name": "hasERC721TokenSold",
      "outputs": [
        {
          "internalType": "bool",
          "name": "",
          "type": "bool"
        }
      ],
      "stateMutability": "view",
      "type": "function"
    },
    {
      "inputs": [
        {
          "internalType": "bytes32",
          "name": "role",
          "type": "bytes32"
        },
        {
          "internalType": "address",
          "name": "account",
          "type": "address"
        }
      ],
      "name": "hasRole",
      "outputs": [
        {
          "internalType": "bool",
          "name": "",
          "type": "bool"
        }
      ],
      "stateMutability": "view",
      "type": "function"
    },
    {
      "inputs": [
        {
          "internalType": "address",
          "name": "_contractAddress",
          "type": "address"
        }
      ],
      "name": "markContractAsSold",
      "outputs": [
        {
          "internalType": "bool",
          "name": "",
          "type": "bool"
        }
      ],
      "stateMutability": "nonpayable",
      "type": "function"
    },
    {
      "inputs": [
        {
          "internalType": "address",
          "name": "_contractAddress",
          "type": "address"
        },
        {
          "internalType": "uint256",
          "name": "_tokenId",
          "type": "uint256"
        },
        {
          "internalType": "bool",
          "name": "_hasSold",
          "type": "bool"
        }
      ],
      "name": "markERC721Token",
      "outputs": [],
      "stateMutability": "nonpayable",
      "type": "function"
    },
    {
      "inputs": [
        {
          "internalType": "address",
          "name": "_originContract",
          "type": "address"
        },
        {
          "internalType": "uint256[]",
          "name": "_tokenIds",
          "type": "uint256[]"
        }
      ],
      "name": "markTokensAsSold",
      "outputs": [],
      "stateMutability": "nonpayable",
      "type": "function"
    },
    {
      "inputs": [],
      "name": "owner",
      "outputs": [
        {
          "internalType": "address",
          "name": "",
          "type": "address"
        }
      ],
      "stateMutability": "view",
      "type": "function"
    },
    {
      "inputs": [],
      "name": "renounceOwnership",
      "outputs": [],
      "stateMutability": "nonpayable",
      "type": "function"
    },
    {
      "inputs": [
        {
          "internalType": "bytes32",
          "name": "role",
          "type": "bytes32"
        },
        {
          "internalType": "address",
          "name": "account",
          "type": "address"
        }
      ],
      "name": "renounceRole",
      "outputs": [],
      "stateMutability": "nonpayable",
      "type": "function"
    },
    {
      "inputs": [
        {
          "internalType": "bytes32",
          "name": "role",
          "type": "bytes32"
        },
        {
          "internalType": "address",
          "name": "account",
          "type": "address"
        }
      ],
      "name": "revokeRole",
      "outputs": [],
      "stateMutability": "nonpayable",
      "type": "function"
    },
    {
      "inputs": [
        {
          "internalType": "address",
          "name": "_contractAddress",
          "type": "address"
        },
        {
          "internalType": "uint8",
          "name": "_percentage",
          "type": "uint8"
        }
      ],
      "name": "setERC721ContractPrimarySaleFeePercentage",
      "outputs": [],
      "stateMutability": "nonpayable",
      "type": "function"
    },
    {
      "inputs": [
        {
          "internalType": "uint8",
          "name": "_percentage",
          "type": "uint8"
        }
      ],
      "name": "setMarketplaceFeePercentage",
      "outputs": [],
      "stateMutability": "nonpayable",
      "type": "function"
    },
    {
      "inputs": [
        {
          "internalType": "uint256",
          "name": "_maxValue",
          "type": "uint256"
        }
      ],
      "name": "setMarketplaceMaxValue",
      "outputs": [],
      "stateMutability": "nonpayable",
      "type": "function"
    },
    {
      "inputs": [
        {
          "internalType": "uint256",
          "name": "_minValue",
          "type": "uint256"
        }
      ],
      "name": "setMarketplaceMinValue",
      "outputs": [],
      "stateMutability": "nonpayable",
      "type": "function"
    },
    {
      "inputs": [
        {
          "internalType": "uint8",
          "name": "_primarySaleFeePercentage",
          "type": "uint8"
        }
      ],
      "name": "setPrimarySaleFeePercentage",
      "outputs": [],
      "stateMutability": "nonpayable",
      "type": "function"
    },
    {
      "inputs": [
        {
          "internalType": "bytes4",
          "name": "interfaceId",
          "type": "bytes4"
        }
      ],
      "name": "supportsInterface",
      "outputs": [
        {
          "internalType": "bool",
          "name": "",
          "type": "bool"
        }
      ],
      "stateMutability": "view",
      "type": "function"
    },
    {
      "inputs": [
        {
          "internalType": "address",
          "name": "newOwner",
          "type": "address"
        }
      ],
      "name": "transferOwnership",
      "outputs": [],
      "stateMutability": "nonpayable",
      "type": "function"
    }
  ],
  "bytecode": {
    "object": "0x60806040523480156200001157600080fd5b50604051620016e6380380620016e6833981016040819052620000349162000399565b6200003f33620001b7565b600160fe1b6005556103e86006556007805461ffff1916610f031790556001600160a01b038216620000ce5760405162461bcd60e51b815260206004820152602d60248201527f636f6e7374727563746f723a3a4e6577206f776e65722061646472657373206360448201526c185b9b9bdd081899481b9d5b1b609a1b60648201526084015b60405180910390fd5b6001600160a01b0381166200014c5760405162461bcd60e51b815260206004820152603c60248201527f636f6e7374727563746f723a3a4f6c64204d61726b6574706c6163652053657460448201527f74696e677320616464726573732063616e6e6f74206265206e756c6c000000006064820152608401620000c5565b6200015960008362000207565b620001857fe403a42bbb760a8b3610033c6ca9047404adf765af465dfb889617dd2d64bf628362000207565b620001908262000217565b600280546001600160a01b0319166001600160a01b039290921691909117905550620003d1565b600080546001600160a01b038381166001600160a01b0319831681178455604051919092169283917f8be0079c531659141344cd1fd0a4f28419497f9722a3daafe3b4186f6b6457e09190a35050565b62000213828262000296565b5050565b620002216200031e565b6001600160a01b038116620002885760405162461bcd60e51b815260206004820152602660248201527f4f776e61626c653a206e6577206f776e657220697320746865207a65726f206160448201526564647265737360d01b6064820152608401620000c5565b6200029381620001b7565b50565b60008281526001602090815260408083206001600160a01b038516845290915290205460ff16620002135760008281526001602081815260408084206001600160a01b0386168086529252808420805460ff19169093179092559051339285917f2f8788117e7eff1d82e926ec794901d17c78024a50270940304540a733656f0d9190a45050565b6000546001600160a01b031633146200037a5760405162461bcd60e51b815260206004820181905260248201527f4f776e61626c653a2063616c6c6572206973206e6f7420746865206f776e65726044820152606401620000c5565b565b80516001600160a01b03811681146200039457600080fd5b919050565b60008060408385031215620003ad57600080fd5b620003b8836200037c565b9150620003c8602084016200037c565b90509250929050565b61130580620003e16000396000f3fe608060405234801561001057600080fd5b50600436106101a95760003560e01c80636357f1ac116100f9578063ae312a9711610097578063c3fc495211610071578063c3fc495214610391578063d547741f146103a4578063f2fde38b146103b7578063f9a23e86146103ca57600080fd5b8063ae312a971461034f578063b28a7bad14610361578063b60c81351461037e57600080fd5b806383475921116100d357806383475921146103005780638da5cb5b1461031957806391d1485414610334578063a217fddf1461034757600080fd5b80636357f1ac146102d2578063715018a6146102e557806382ebaa59146102ed57600080fd5b8063364d604411610166578063511bc84c11610140578063511bc84c146102915780635a3c652d146102a45780635c1b40f1146102b757806362029a1b146102bf57600080fd5b8063364d60441461025657806336568abe146102695780633765628c1461027c57600080fd5b806301ffc9a7146101ae5780631ad99c37146101d6578063248a9ca3146101eb5780632b702b5f1461021d5780632cfda2f1146102305780632f2ff15d14610243575b600080fd5b6101c16101bc366004610e9c565b6103d2565b60405190151581526020015b60405180910390f35b6101e96101e4366004610edc565b610409565b005b61020f6101f9366004610ef7565b6000908152600160208190526040909120015490565b6040519081526020016101cd565b6101e961022b366004610f27565b61042d565b6101e961023e366004610ef7565b610533565b6101e9610251366004610fad565b610540565b6101c1610264366004610fd9565b61056b565b6101e9610277366004610fad565b610670565b61020f6000805160206112b083398151915281565b6101c161029f366004610ff4565b6106ea565b6101e96102b236600461102c565b610787565b60065461020f565b6101e96102cd366004610ef7565b61082e565b61020f6102e0366004610ff4565b61083b565b6101e9610867565b6101e96102fb366004610fd9565b61087b565b60075460ff165b60405160ff90911681526020016101cd565b6000546040516001600160a01b0390911681526020016101cd565b6101c1610342366004610fad565b61090a565b61020f600081565b6101e961035d36600461106c565b5050565b61030761036f366004610fd9565b50600754610100900460ff1690565b6101e961038c366004610edc565b610935565b61020f61039f366004610ef7565b6109cd565b6101e96103b2366004610fad565b6109ed565b6101e96103c5366004610fd9565b610a13565b60055461020f565b60006001600160e01b03198216637965db0b60e01b148061040357506301ffc9a760e01b6001600160e01b03198316145b92915050565b610411610a89565b6007805460ff9092166101000261ff0019909216919091179055565b6104456000805160206112b08339815191523361090a565b61046a5760405162461bcd60e51b815260040161046190611096565b60405180910390fd5b6107d08111156104ec5760405162461bcd60e51b815260206004820152604160248201527f6d61726b546f6b656e734173536f6c643a3a417474656d7074656420746f206d60448201527f61726b206d6f7265207468616e203230303020746f6b656e7320617320736f6c6064820152601960fa1b608482015260a401610461565b60005b8181101561052d5761051b8484848481811061050d5761050d6110f3565b905060200201356001610787565b806105258161111f565b9150506104ef565b50505050565b61053b610a89565b600555565b6000828152600160208190526040909120015461055c81610ae3565b6105668383610aed565b505050565b60006105856000805160206112b08339815191523361090a565b6105f75760405162461bcd60e51b815260206004820152603b60248201527f6d61726b436f6e74726163743a3a4d757374206861766520544f4b454e5f4d4160448201527f524b5f524f4c4520726f6c6520746f2063616c6c206d6574686f6400000000006064820152608401610461565b610602600383610b58565b156106655760405162461bcd60e51b815260206004820152602d60248201527f6d61726b436f6e74726163743a3a436f6e747261637420616c7265616479206d60448201526c185c9ad95908185cc81cdbdb19609a1b6064820152608401610461565b610403600383610b7a565b6001600160a01b03811633146106e05760405162461bcd60e51b815260206004820152602f60248201527f416363657373436f6e74726f6c3a2063616e206f6e6c792072656e6f756e636560448201526e103937b632b9903337b91039b2b63360891b6064820152608401610461565b61035d8282610b8f565b6000806106f8600385610b58565b9050801561070a576001915050610403565b600254604051631446f21360e21b81526001600160a01b038681166004830152602482018690529091169063511bc84c90604401602060405180830381865afa15801561075b573d6000803e3d6000fd5b505050506040513d601f19601f8201168201806040525081019061077f9190611138565b949350505050565b61079f6000805160206112b08339815191523361090a565b6107bb5760405162461bcd60e51b815260040161046190611096565b600254604051635a3c652d60e01b81526001600160a01b03858116600483015260248201859052831515604483015290911690635a3c652d90606401600060405180830381600087803b15801561081157600080fd5b505af1158015610825573d6000803e3d6000fd5b50505050505050565b610836610a89565b600655565b60075460009060649061085690610100900460ff1684611155565b6108609190611174565b9392505050565b61086f610a89565b6108796000610bf6565b565b61088660003361090a565b6108ef5760405162461bcd60e51b815260206004820152603460248201527f6772616e744d61726b6574706c6163654163636573733a3a4d7573742062652060448201527318591b5a5b881d1bc818d85b1b081b595d1a1bd960621b6064820152608401610461565b6109076000805160206112b083398151915282610540565b50565b60009182526001602090815260408084206001600160a01b0393909316845291905290205460ff1690565b61093d610a89565b60648160ff1611156109b75760405162461bcd60e51b815260206004820152603760248201527f7365744d61726b6574706c61636546656550657263656e746167653a3a5f706560448201527f7263656e74616765206d757374206265203c3d203130300000000000000000006064820152608401610461565b6007805460ff191660ff92909216919091179055565b6007546000906064906109e39060ff1684611155565b6104039190611174565b60008281526001602081905260409091200154610a0981610ae3565b6105668383610b8f565b610a1b610a89565b6001600160a01b038116610a805760405162461bcd60e51b815260206004820152602660248201527f4f776e61626c653a206e6577206f776e657220697320746865207a65726f206160448201526564647265737360d01b6064820152608401610461565b61090781610bf6565b6000546001600160a01b031633146108795760405162461bcd60e51b815260206004820181905260248201527f4f776e61626c653a2063616c6c6572206973206e6f7420746865206f776e65726044820152606401610461565b6109078133610c46565b610af7828261090a565b61035d5760008281526001602081815260408084206001600160a01b0386168086529252808420805460ff19169093179092559051339285917f2f8788117e7eff1d82e926ec794901d17c78024a50270940304540a733656f0d9190a45050565b6001600160a01b03811660009081526001830160205260408120541515610860565b6000610860836001600160a01b038416610c9f565b610b99828261090a565b1561035d5760008281526001602090815260408083206001600160a01b0385168085529252808320805460ff1916905551339285917ff6391f5c32d9c69d2a47ea670b442974b53935d1edc7fd64eb21e047a839171b9190a45050565b600080546001600160a01b038381166001600160a01b0319831681178455604051919092169283917f8be0079c531659141344cd1fd0a4f28419497f9722a3daafe3b4186f6b6457e09190a35050565b610c50828261090a565b61035d57610c5d81610cee565b610c68836020610d00565b604051602001610c799291906111c2565b60408051601f198184030181529082905262461bcd60e51b825261046191600401611237565b6000818152600183016020526040812054610ce657508154600181810184556000848152602080822090930184905584548482528286019093526040902091909155610403565b506000610403565b60606104036001600160a01b03831660145b60606000610d0f836002611155565b610d1a90600261126a565b67ffffffffffffffff811115610d3257610d32611282565b6040519080825280601f01601f191660200182016040528015610d5c576020820181803683370190505b509050600360fc1b81600081518110610d7757610d776110f3565b60200101906001600160f81b031916908160001a905350600f60fb1b81600181518110610da657610da66110f3565b60200101906001600160f81b031916908160001a9053506000610dca846002611155565b610dd590600161126a565b90505b6001811115610e4d576f181899199a1a9b1b9c1cb0b131b232b360811b85600f1660108110610e0957610e096110f3565b1a60f81b828281518110610e1f57610e1f6110f3565b60200101906001600160f81b031916908160001a90535060049490941c93610e4681611298565b9050610dd8565b5083156108605760405162461bcd60e51b815260206004820181905260248201527f537472696e67733a20686578206c656e67746820696e73756666696369656e746044820152606401610461565b600060208284031215610eae57600080fd5b81356001600160e01b03198116811461086057600080fd5b803560ff81168114610ed757600080fd5b919050565b600060208284031215610eee57600080fd5b61086082610ec6565b600060208284031215610f0957600080fd5b5035919050565b80356001600160a01b0381168114610ed757600080fd5b600080600060408486031215610f3c57600080fd5b610f4584610f10565b9250602084013567ffffffffffffffff80821115610f6257600080fd5b818601915086601f830112610f7657600080fd5b813581811115610f8557600080fd5b8760208260051b8501011115610f9a57600080fd5b6020830194508093505050509250925092565b60008060408385031215610fc057600080fd5b82359150610fd060208401610f10565b90509250929050565b600060208284031215610feb57600080fd5b61086082610f10565b6000806040838503121561100757600080fd5b61101083610f10565b946020939093013593505050565b801515811461090757600080fd5b60008060006060848603121561104157600080fd5b61104a84610f10565b92506020840135915060408401356110618161101e565b809150509250925092565b6000806040838503121561107f57600080fd5b61108883610f10565b9150610fd060208401610ec6565b6020808252603e908201527f6d61726b455243373231546f6b656e3a3a4d757374206861766520544f4b454e60408201527f5f4d41524b5f524f4c4520726f6c6520746f2063616c6c206d6574686f640000606082015260800190565b634e487b7160e01b600052603260045260246000fd5b634e487b7160e01b600052601160045260246000fd5b60006001820161113157611131611109565b5060010190565b60006020828403121561114a57600080fd5b81516108608161101e565b600081600019048311821515161561116f5761116f611109565b500290565b60008261119157634e487b7160e01b600052601260045260246000fd5b500490565b60005b838110156111b1578181015183820152602001611199565b8381111561052d5750506000910152565b7f416363657373436f6e74726f6c3a206163636f756e74200000000000000000008152600083516111fa816017850160208801611196565b7001034b99036b4b9b9b4b733903937b6329607d1b601791840191820152835161122b816028840160208801611196565b01602801949350505050565b6020815260008251806020840152611256816040850160208701611196565b601f01601f19169190910160400192915050565b6000821982111561127d5761127d611109565b500190565b634e487b7160e01b600052604160045260246000fd5b6000816112a7576112a7611109565b50600019019056fee403a42bbb760a8b3610033c6ca9047404adf765af465dfb889617dd2d64bf62a2646970667358221220df683588475620d480f54ccc7f61f3756c618de1ea51227ecd561ec079e4226d64736f6c634300080f0033",
    "linkReferences": {}
  },
  "methodIdentifiers": {
    "DEFAULT_ADMIN_ROLE()": "a217fddf",
    "TOKEN_MARK_ROLE()": "3765628c",
    "calculateMarketplaceFee(uint256)": "c3fc4952",
    "calculatePrimarySaleFee(address,uint256)": "6357f1ac",
    "getERC721ContractPrimarySaleFeePercentage(address)": "b28a7bad",
    "getMarketplaceFeePercentage()": "83475921",
    "getMarketplaceMaxValue()": "f9a23e86",
    "getMarketplaceMinValue()": "5c1b40f1",
    "getRoleAdmin(bytes32)": "248a9ca3",
    "grantMarketplaceAccess(address)": "82ebaa59",
    "grantRole(bytes32,address)": "2f2ff15d",
    "hasERC721TokenSold(address,uint256)": "511bc84c",
    "hasRole(bytes32,address)": "91d14854",
    "markContractAsSold(address)": "364d6044",
    "markERC721Token(address,uint256,bool)": "5a3c652d",
    "markTokensAsSold(address,uint256[])": "2b702b5f",
    "owner()": "8da5cb5b",
    "renounceOwnership()": "715018a6",
    "renounceRole(bytes32,address)": "36568abe",
    "revokeRole(bytes32,address)": "d547741f",
    "setERC721ContractPrimarySaleFeePercentage(address,uint8)": "ae312a97",
    "setMarketplaceFeePercentage(uint8)": "b60c8135",
    "setMarketplaceMaxValue(uint256)": "2cfda2f1",
    "setMarketplaceMinValue(uint256)": "62029a1b",
    "setPrimarySaleFeePercentage(uint8)": "1ad99c37",
    "supportsInterface(bytes4)": "01ffc9a7",
    "transferOwnership(address)": "f2fde38b"
  },
  "id": 57
}