{
  "abi": [
    {
      "inputs": [
        {
          "internalType": "address",
          "name": "dest",
          "type": "address"
        }
      ],
      "name": "payments",
      "outputs": [
        {
          "internalType": "uint256",
          "name": "",
          "type": "uint256"
        }
      ],
      "stateMutability": "view",
      "type": "function"
    },
    {
      "inputs": [
        {
          "internalType": "address[]",
          "name": "_splits",
          "type": "address[]"
        },
        {
          "internalType": "uint256[]",
          "name": "_amounts",
          "type": "uint256[]"
        }
      ],
      "name": "payout",
      "outputs": [],
      "stateMutability": "payable",
      "type": "function"
    },
    {
      "inputs": [
        {
          "internalType": "address",
          "name": "_payee",
          "type": "address"
        },
        {
          "internalType": "uint256",
          "name": "_amount",
          "type": "uint256"
        }
      ],
      "name": "refund",
      "outputs": [],
      "stateMutability": "payable",
      "type": "function"
    },
    {
      "inputs": [
        {
          "internalType": "address payable",
          "name": "payee",
          "type": "address"
        }
      ],
      "name": "withdrawPayments",
      "outputs": [],
      "stateMutability": "nonpayable",
      "type": "function"
    }
  ],
  "bytecode": {
    "object": "0x60a060405234801561001057600080fd5b5060405161001d9061004b565b604051809103906000f080158015610039573d6000803e3d6000fd5b506001600160a01b0316608052610058565b61058b8061073683390190565b6080516106b66100806000396000818160dd015281816103f6015261048801526106b66000f3fe60806040526004361061003f5760003560e01c806331b3eb9414610044578063410085df14610066578063c176e63914610079578063e2982c211461008c575b600080fd5b34801561005057600080fd5b5061006461005f366004610502565b6100be565b005b610064610074366004610526565b61013c565b61006461008736600461059e565b610226565b34801561009857600080fd5b506100ac6100a7366004610502565b6103d4565b60405190815260200160405180910390f35b6040516351cff8d960e01b81526001600160a01b0382811660048301527f000000000000000000000000000000000000000000000000000000000000000016906351cff8d990602401600060405180830381600087803b15801561012157600080fd5b505af1158015610135573d6000803e3d6000fd5b5050505050565b6001600160a01b0382166101a95760405162461bcd60e51b815260206004820152602960248201527f726566756e643a3a6e6f207061796565732063616e20626520746865207a65726044820152686f206164647265737360b81b60648201526084015b60405180910390fd5b8034146101b557600080fd5b8015610222576000826001600160a01b03168260405160006040518083038185875af1925050503d8060008114610208576040519150601f19603f3d011682016040523d82523d6000602084013e61020d565b606091505b5050905080610220576102208383610469565b505b5050565b6000805b84811015610384578383828181106102445761024461060a565b90506020020135826102569190610636565b9150600086868381811061026c5761026c61060a565b90506020020160208101906102819190610502565b6001600160a01b0316146103725760008686838181106102a3576102a361060a565b90506020020160208101906102b89190610502565b6001600160a01b03168585848181106102d3576102d361060a565b9050602002013560405160006040518083038185875af1925050503d806000811461031a576040519150601f19603f3d011682016040523d82523d6000602084013e61031f565b606091505b50509050806103705761037087878481811061033d5761033d61060a565b90506020020160208101906103529190610502565b8686858181106103645761036461060a565b90506020020135610469565b505b8061037c8161064e565b91505061022a565b508034146101355760405162461bcd60e51b815260206004820152601760248201527f7061796f75743a3a6e6f7420656e6f7567682073656e7400000000000000000060448201526064016101a0565b6040516371d4ed8d60e11b81526001600160a01b0382811660048301526000917f00000000000000000000000000000000000000000000000000000000000000009091169063e3a9db1a90602401602060405180830381865afa15801561043f573d6000803e3d6000fd5b505050506040513d601f19601f820116820180604052508101906104639190610667565b92915050565b60405163f340fa0160e01b81526001600160a01b0383811660048301527f0000000000000000000000000000000000000000000000000000000000000000169063f340fa019083906024016000604051808303818588803b1580156104cd57600080fd5b505af11580156104e1573d6000803e3d6000fd5b50505050505050565b6001600160a01b03811681146104ff57600080fd5b50565b60006020828403121561051457600080fd5b813561051f816104ea565b9392505050565b6000806040838503121561053957600080fd5b8235610544816104ea565b946020939093013593505050565b60008083601f84011261056457600080fd5b50813567ffffffffffffffff81111561057c57600080fd5b6020830191508360208260051b850101111561059757600080fd5b9250929050565b600080600080604085870312156105b457600080fd5b843567ffffffffffffffff808211156105cc57600080fd5b6105d888838901610552565b909650945060208701359150808211156105f157600080fd5b506105fe87828801610552565b95989497509550505050565b634e487b7160e01b600052603260045260246000fd5b634e487b7160e01b600052601160045260246000fd5b6000821982111561064957610649610620565b500190565b60006001820161066057610660610620565b5060010190565b60006020828403121561067957600080fd5b505191905056fea2646970667358221220a2df9c7ccd7e20b8da59e7ec33db9588d5f8ba758d83e8fcf62429877017f9af64736f6c634300080f0033608060405234801561001057600080fd5b5061001a3361001f565b61006f565b600080546001600160a01b038381166001600160a01b0319831681178455604051919092169283917f8be0079c531659141344cd1fd0a4f28419497f9722a3daafe3b4186f6b6457e09190a35050565b61050d8061007e6000396000f3fe6080604052600436106100555760003560e01c806351cff8d91461005a578063715018a61461007c5780638da5cb5b14610091578063e3a9db1a146100be578063f2fde38b14610102578063f340fa0114610122575b600080fd5b34801561006657600080fd5b5061007a61007536600461048d565b610135565b005b34801561008857600080fd5b5061007a6101ac565b34801561009d57600080fd5b506000546040516001600160a01b0390911681526020015b60405180910390f35b3480156100ca57600080fd5b506100f46100d936600461048d565b6001600160a01b031660009081526001602052604090205490565b6040519081526020016100b5565b34801561010e57600080fd5b5061007a61011d36600461048d565b6101c0565b61007a61013036600461048d565b61023e565b61013d6102b0565b6001600160a01b0381166000818152600160205260408120805491905590610165908261030a565b816001600160a01b03167f7084f5476618d8e60b11ef0d7d3f06914655adb8793e28ff7f018d4c76d505d5826040516101a091815260200190565b60405180910390a25050565b6101b46102b0565b6101be6000610428565b565b6101c86102b0565b6001600160a01b0381166102325760405162461bcd60e51b815260206004820152602660248201527f4f776e61626c653a206e6577206f776e657220697320746865207a65726f206160448201526564647265737360d01b60648201526084015b60405180910390fd5b61023b81610428565b50565b6102466102b0565b6001600160a01b0381166000908152600160205260408120805434928392916102709084906104b1565b90915550506040518181526001600160a01b038316907f2da466a7b24304f47e87fa2e1e5a81b9831ce54fec19055ce277ca2f39ba42c4906020016101a0565b6000546001600160a01b031633146101be5760405162461bcd60e51b815260206004820181905260248201527f4f776e61626c653a2063616c6c6572206973206e6f7420746865206f776e65726044820152606401610229565b8047101561035a5760405162461bcd60e51b815260206004820152601d60248201527f416464726573733a20696e73756666696369656e742062616c616e63650000006044820152606401610229565b6000826001600160a01b03168260405160006040518083038185875af1925050503d80600081146103a7576040519150601f19603f3d011682016040523d82523d6000602084013e6103ac565b606091505b50509050806104235760405162461bcd60e51b815260206004820152603a60248201527f416464726573733a20756e61626c6520746f2073656e642076616c75652c207260448201527f6563697069656e74206d617920686176652072657665727465640000000000006064820152608401610229565b505050565b600080546001600160a01b038381166001600160a01b0319831681178455604051919092169283917f8be0079c531659141344cd1fd0a4f28419497f9722a3daafe3b4186f6b6457e09190a35050565b6001600160a01b038116811461023b57600080fd5b60006020828403121561049f57600080fd5b81356104aa81610478565b9392505050565b600082198211156104d257634e487b7160e01b600052601160045260246000fd5b50019056fea264697066735822122036b73060a0b32ebd254cc7bef58098070b038114379945df848c92b3451641c764736f6c634300080f0033",
    "linkReferences": {}
  },
  "methodIdentifiers": {
    "payments(address)": "e2982c21",
    "payout(address[],uint256[])": "c176e639",
    "refund(address,uint256)": "410085df",
    "withdrawPayments(address)": "31b3eb94"
  },
  "id": 60
}