{
  "abi": [
    {
      "inputs": [
        {
          "internalType": "address",
          "name": "_rare",
          "type": "address"
        },
        {
          "internalType": "address",
          "name": "_distributor",
          "type": "address"
        }
      ],
      "stateMutability": "nonpayable",
      "type": "constructor"
    },
    {
      "inputs": [],
      "name": "ChillOut",
      "type": "error"
    },
    {
      "inputs": [],
      "name": "DontBeGreedy",
      "type": "error"
    },
    {
      "inputs": [],
      "name": "YUNoWork",
      "type": "error"
    },
    {
      "anonymous": false,
      "inputs": [
        {
          "indexed": true,
          "internalType": "address",
          "name": "previousOwner",
          "type": "address"
        },
        {
          "indexed": true,
          "internalType": "address",
          "name": "newOwner",
          "type": "address"
        }
      ],
      "name": "OwnershipTransferred",
      "type": "event"
    },
    {
      "inputs": [],
      "name": "claimEth",
      "outputs": [],
      "stateMutability": "nonpayable",
      "type": "function"
    },
    {
      "inputs": [],
      "name": "claimRare",
      "outputs": [],
      "stateMutability": "nonpayable",
      "type": "function"
    },
    {
      "inputs": [],
      "name": "owner",
      "outputs": [
        {
          "internalType": "address",
          "name": "",
          "type": "address"
        }
      ],
      "stateMutability": "view",
      "type": "function"
    },
    {
      "inputs": [],
      "name": "renounceOwnership",
      "outputs": [],
      "stateMutability": "nonpayable",
      "type": "function"
    },
    {
      "inputs": [
        {
          "internalType": "uint256",
          "name": "_cooldown",
          "type": "uint256"
        }
      ],
      "name": "setCooldownEth",
      "outputs": [],
      "stateMutability": "nonpayable",
      "type": "function"
    },
    {
      "inputs": [
        {
          "internalType": "uint256",
          "name": "_cooldown",
          "type": "uint256"
        }
      ],
      "name": "setCooldownRare",
      "outputs": [],
      "stateMutability": "nonpayable",
      "type": "function"
    },
    {
      "inputs": [
        {
          "internalType": "address",
          "name": "_distributor",
          "type": "address"
        }
      ],
      "name": "setDistributor",
      "outputs": [],
      "stateMutability": "nonpayable",
      "type": "function"
    },
    {
      "inputs": [
        {
          "internalType": "uint256",
          "name": "_amount",
          "type": "uint256"
        }
      ],
      "name": "setEthAmount",
      "outputs": [],
      "stateMutability": "nonpayable",
      "type": "function"
    },
    {
      "inputs": [
        {
          "internalType": "uint256",
          "name": "_amount",
          "type": "uint256"
        }
      ],
      "name": "setRareAmount",
      "outputs": [],
      "stateMutability": "nonpayable",
      "type": "function"
    },
    {
      "inputs": [
        {
          "internalType": "address",
          "name": "newOwner",
          "type": "address"
        }
      ],
      "name": "transferOwnership",
      "outputs": [],
      "stateMutability": "nonpayable",
      "type": "function"
    },
    {
      "inputs": [],
      "name": "withdrawAll",
      "outputs": [],
      "stateMutability": "nonpayable",
      "type": "function"
    },
    {
      "stateMutability": "payable",
      "type": "receive"
    }
  ],
  "bytecode": {
    "object": "0x608060405234801561001057600080fd5b506040516108a53803806108a583398101604081905261002f916100fa565b6100383361008e565b600880546001600160a01b039384166001600160a01b03199182161790915562015180600381905560045567016345785d8a0000600555683635c9adc5dea000006006556007805492909316911617905561012d565b600080546001600160a01b038381166001600160a01b0319831681178455604051919092169283917f8be0079c531659141344cd1fd0a4f28419497f9722a3daafe3b4186f6b6457e09190a35050565b80516001600160a01b03811681146100f557600080fd5b919050565b6000806040838503121561010d57600080fd5b610116836100de565b9150610124602084016100de565b90509250929050565b6107698061013c6000396000f3fe6080604052600436106100a05760003560e01c806384172282116100645780638417228214610138578063853828b6146101585780638da5cb5b1461016d578063b7cdddcb14610199578063b87c7d43146101ae578063f2fde38b146101ce57600080fd5b806342c96d6c146100ac57806360e7fa06146100c3578063715018a6146100e357806375619ab5146100f85780637b56ad661461011857600080fd5b366100a757005b600080fd5b3480156100b857600080fd5b506100c16101ee565b005b3480156100cf57600080fd5b506100c16100de366004610689565b6102bd565b3480156100ef57600080fd5b506100c16102ca565b34801561010457600080fd5b506100c16101133660046106a2565b6102de565b34801561012457600080fd5b506100c1610133366004610689565b610308565b34801561014457600080fd5b506100c1610153366004610689565b610315565b34801561016457600080fd5b506100c1610322565b34801561017957600080fd5b50600054604080516001600160a01b039092168252519081900360200190f35b3480156101a557600080fd5b506100c161049f565b3480156101ba57600080fd5b506100c16101c9366004610689565b610557565b3480156101da57600080fd5b506100c16101e93660046106a2565b610564565b3360009081526001602052604090205442101561021e5760405163566544c960e01b815260040160405180910390fd5b60045461022b90426106d2565b336000818152600160205260409081902092909255600854600654925163a9059cbb60e01b8152600481019290925260248201929092526001600160a01b039091169063a9059cbb906044016020604051808303816000875af1158015610296573d6000803e3d6000fd5b505050506040513d601f19601f820116820180604052508101906102ba91906106f8565b50565b6102c56105df565b600655565b6102d26105df565b6102dc6000610639565b565b6102e66105df565b600780546001600160a01b0319166001600160a01b0392909216919091179055565b6103106105df565b600355565b61031d6105df565b600455565b6000546001600160a01b0316331461034d576040516306b6632960e41b815260040160405180910390fd5b604051600090339047908381818185875af1925050503d806000811461038f576040519150601f19603f3d011682016040523d82523d6000602084013e610394565b606091505b50509050806103b657604051635bc1837760e01b815260040160405180910390fd5b6008546040516370a0823160e01b81523060048201526001600160a01b039091169063a9059cbb90339083906370a0823190602401602060405180830381865afa158015610408573d6000803e3d6000fd5b505050506040513d601f19601f8201168201806040525081019061042c919061071a565b6040516001600160e01b031960e085901b1681526001600160a01b03909216600483015260248201526044016020604051808303816000875af1158015610477573d6000803e3d6000fd5b505050506040513d601f19601f8201168201806040525081019061049b91906106f8565b5050565b336000908152600260205260409020544210156104cf5760405163566544c960e01b815260040160405180910390fd5b6003546104dc90426106d2565b336000818152600260205260408082209390935560055492519092908381818185875af1925050503d8060008114610530576040519150601f19603f3d011682016040523d82523d6000602084013e610535565b606091505b50509050806102ba57604051635bc1837760e01b815260040160405180910390fd5b61055f6105df565b600555565b61056c6105df565b6001600160a01b0381166105d65760405162461bcd60e51b815260206004820152602660248201527f4f776e61626c653a206e6577206f776e657220697320746865207a65726f206160448201526564647265737360d01b60648201526084015b60405180910390fd5b6102ba81610639565b6000546001600160a01b031633146102dc5760405162461bcd60e51b815260206004820181905260248201527f4f776e61626c653a2063616c6c6572206973206e6f7420746865206f776e657260448201526064016105cd565b600080546001600160a01b038381166001600160a01b0319831681178455604051919092169283917f8be0079c531659141344cd1fd0a4f28419497f9722a3daafe3b4186f6b6457e09190a35050565b60006020828403121561069b57600080fd5b5035919050565b6000602082840312156106b457600080fd5b81356001600160a01b03811681146106cb57600080fd5b9392505050565b600082198211156106f357634e487b7160e01b600052601160045260246000fd5b500190565b60006020828403121561070a57600080fd5b815180151581146106cb57600080fd5b60006020828403121561072c57600080fd5b505191905056fea26469706673582212206a32a3ac103ed696f3e36317b5fcf05db741d83f39de19336ebe8f680e24ba1164736f6c634300080f0033",
    "linkReferences": {}
  },
  "methodIdentifiers": {
    "claimEth()": "b7cdddcb",
    "claimRare()": "42c96d6c",
    "owner()": "8da5cb5b",
    "renounceOwnership()": "715018a6",
    "setCooldownEth(uint256)": "7b56ad66",
    "setCooldownRare(uint256)": "84172282",
    "setDistributor(address)": "75619ab5",
    "setEthAmount(uint256)": "b87c7d43",
    "setRareAmount(uint256)": "60e7fa06",
    "transferOwnership(address)": "f2fde38b",
    "withdrawAll()": "853828b6"
  },
  "id": 53
}