{
  "abi": [
    {
      "inputs": [
        {
          "internalType": "address",
          "name": "_iERC721TokenCreator",
          "type": "address"
        }
      ],
      "stateMutability": "nonpayable",
      "type": "constructor"
    },
    {
      "anonymous": false,
      "inputs": [
        {
          "indexed": true,
          "internalType": "address",
          "name": "previousOwner",
          "type": "address"
        },
        {
          "indexed": true,
          "internalType": "address",
          "name": "newOwner",
          "type": "address"
        }
      ],
      "name": "OwnershipTransferred",
      "type": "event"
    },
    {
      "anonymous": false,
      "inputs": [
        {
          "indexed": true,
          "internalType": "bytes32",
          "name": "role",
          "type": "bytes32"
        },
        {
          "indexed": true,
          "internalType": "bytes32",
          "name": "previousAdminRole",
          "type": "bytes32"
        },
        {
          "indexed": true,
          "internalType": "bytes32",
          "name": "newAdminRole",
          "type": "bytes32"
        }
      ],
      "name": "RoleAdminChanged",
      "type": "event"
    },
    {
      "anonymous": false,
      "inputs": [
        {
          "indexed": true,
          "internalType": "bytes32",
          "name": "role",
          "type": "bytes32"
        },
        {
          "indexed": true,
          "internalType": "address",
          "name": "account",
          "type": "address"
        },
        {
          "indexed": true,
          "internalType": "address",
          "name": "sender",
          "type": "address"
        }
      ],
      "name": "RoleGranted",
      "type": "event"
    },
    {
      "anonymous": false,
      "inputs": [
        {
          "indexed": true,
          "internalType": "bytes32",
          "name": "role",
          "type": "bytes32"
        },
        {
          "indexed": true,
          "internalType": "address",
          "name": "account",
          "type": "address"
        },
        {
          "indexed": true,
          "internalType": "address",
          "name": "sender",
          "type": "address"
        }
      ],
      "name": "RoleRevoked",
      "type": "event"
    },
    {
      "inputs": [],
      "name": "DEFAULT_ADMIN_ROLE",
      "outputs": [
        {
          "internalType": "bytes32",
          "name": "",
          "type": "bytes32"
        }
      ],
      "stateMutability": "view",
      "type": "function"
    },
    {
      "inputs": [],
      "name": "ROYALTY_FEE_SETTER_ROLE",
      "outputs": [
        {
          "internalType": "bytes32",
          "name": "",
          "type": "bytes32"
        }
      ],
      "stateMutability": "view",
      "type": "function"
    },
    {
      "inputs": [
        {
          "internalType": "address",
          "name": "_contractAddress",
          "type": "address"
        },
        {
          "internalType": "uint256",
          "name": "_tokenId",
          "type": "uint256"
        },
        {
          "internalType": "uint256",
          "name": "_amount",
          "type": "uint256"
        }
      ],
      "name": "calculateRoyaltyFee",
      "outputs": [
        {
          "internalType": "uint256",
          "name": "",
          "type": "uint256"
        }
      ],
      "stateMutability": "view",
      "type": "function"
    },
    {
      "inputs": [
        {
          "internalType": "address",
          "name": "",
          "type": "address"
        }
      ],
      "name": "contractRoyaltyPercentage",
      "outputs": [
        {
          "internalType": "uint8",
          "name": "",
          "type": "uint8"
        }
      ],
      "stateMutability": "view",
      "type": "function"
    },
    {
      "inputs": [
        {
          "internalType": "address",
          "name": "",
          "type": "address"
        }
      ],
      "name": "contractRoyaltyPercentageSet",
      "outputs": [
        {
          "internalType": "bool",
          "name": "",
          "type": "bool"
        }
      ],
      "stateMutability": "view",
      "type": "function"
    },
    {
      "inputs": [
        {
          "internalType": "address",
          "name": "",
          "type": "address"
        }
      ],
      "name": "contractRoyaltyReceiver",
      "outputs": [
        {
          "internalType": "address",
          "name": "",
          "type": "address"
        }
      ],
      "stateMutability": "view",
      "type": "function"
    },
    {
      "inputs": [
        {
          "internalType": "address",
          "name": "_contractAddress",
          "type": "address"
        },
        {
          "internalType": "uint256",
          "name": "",
          "type": "uint256"
        }
      ],
      "name": "getERC721TokenRoyaltyPercentage",
      "outputs": [
        {
          "internalType": "uint8",
          "name": "",
          "type": "uint8"
        }
      ],
      "stateMutability": "view",
      "type": "function"
    },
    {
      "inputs": [
        {
          "internalType": "address",
          "name": "_contractAddress",
          "type": "address"
        }
      ],
      "name": "getPercentageForSetERC721ContractRoyalty",
      "outputs": [
        {
          "internalType": "uint8",
          "name": "",
          "type": "uint8"
        }
      ],
      "stateMutability": "view",
      "type": "function"
    },
    {
      "inputs": [
        {
          "internalType": "bytes32",
          "name": "role",
          "type": "bytes32"
        }
      ],
      "name": "getRoleAdmin",
      "outputs": [
        {
          "internalType": "bytes32",
          "name": "",
          "type": "bytes32"
        }
      ],
      "stateMutability": "view",
      "type": "function"
    },
    {
      "inputs": [
        {
          "internalType": "bytes32",
          "name": "role",
          "type": "bytes32"
        },
        {
          "internalType": "address",
          "name": "account",
          "type": "address"
        }
      ],
      "name": "grantRole",
      "outputs": [],
      "stateMutability": "nonpayable",
      "type": "function"
    },
    {
      "inputs": [
        {
          "internalType": "bytes32",
          "name": "role",
          "type": "bytes32"
        },
        {
          "internalType": "address",
          "name": "account",
          "type": "address"
        }
      ],
      "name": "hasRole",
      "outputs": [
        {
          "internalType": "bool",
          "name": "",
          "type": "bool"
        }
      ],
      "stateMutability": "view",
      "type": "function"
    },
    {
      "inputs": [],
      "name": "iERC721TokenCreator",
      "outputs": [
        {
          "internalType": "contract ICreatorRegistry",
          "name": "",
          "type": "address"
        }
      ],
      "stateMutability": "view",
      "type": "function"
    },
    {
      "inputs": [],
      "name": "owner",
      "outputs": [
        {
          "internalType": "address",
          "name": "",
          "type": "address"
        }
      ],
      "stateMutability": "view",
      "type": "function"
    },
    {
      "inputs": [],
      "name": "renounceOwnership",
      "outputs": [],
      "stateMutability": "nonpayable",
      "type": "function"
    },
    {
      "inputs": [
        {
          "internalType": "bytes32",
          "name": "role",
          "type": "bytes32"
        },
        {
          "internalType": "address",
          "name": "account",
          "type": "address"
        }
      ],
      "name": "renounceRole",
      "outputs": [],
      "stateMutability": "nonpayable",
      "type": "function"
    },
    {
      "inputs": [
        {
          "internalType": "bytes32",
          "name": "role",
          "type": "bytes32"
        },
        {
          "internalType": "address",
          "name": "account",
          "type": "address"
        }
      ],
      "name": "revokeRole",
      "outputs": [],
      "stateMutability": "nonpayable",
      "type": "function"
    },
    {
      "inputs": [
        {
          "internalType": "address",
          "name": "",
          "type": "address"
        }
      ],
      "name": "royaltyReceiverOverride",
      "outputs": [
        {
          "internalType": "address",
          "name": "",
          "type": "address"
        }
      ],
      "stateMutability": "view",
      "type": "function"
    },
    {
      "inputs": [
        {
          "internalType": "address",
          "name": "_contractAddress",
          "type": "address"
        }
      ],
      "name": "setIERC721TokenCreator",
      "outputs": [],
      "stateMutability": "nonpayable",
      "type": "function"
    },
    {
      "inputs": [
        {
          "internalType": "address",
          "name": "_contractAddress",
          "type": "address"
        },
        {
          "internalType": "uint8",
          "name": "_percentage",
          "type": "uint8"
        }
      ],
      "name": "setPercentageForSetERC721ContractRoyalty",
      "outputs": [],
      "stateMutability": "nonpayable",
      "type": "function"
    },
    {
      "inputs": [
        {
          "internalType": "address",
          "name": "_receiver",
          "type": "address"
        },
        {
          "internalType": "address",
          "name": "_contractAddress",
          "type": "address"
        }
      ],
      "name": "setRoyaltyReceiverForContract",
      "outputs": [],
      "stateMutability": "nonpayable",
      "type": "function"
    },
    {
      "inputs": [
        {
          "internalType": "address",
          "name": "_receiver",
          "type": "address"
        },
        {
          "internalType": "address",
          "name": "_contractAddress",
          "type": "address"
        },
        {
          "internalType": "uint256",
          "name": "_tokenId",
          "type": "uint256"
        }
      ],
      "name": "setRoyaltyReceiverForToken",
      "outputs": [],
      "stateMutability": "nonpayable",
      "type": "function"
    },
    {
      "inputs": [
        {
          "internalType": "address",
          "name": "_receiver",
          "type": "address"
        }
      ],
      "name": "setRoyaltyReceiverOverride",
      "outputs": [],
      "stateMutability": "nonpayable",
      "type": "function"
    },
    {
      "inputs": [
        {
          "internalType": "bytes4",
          "name": "interfaceId",
          "type": "bytes4"
        }
      ],
      "name": "supportsInterface",
      "outputs": [
        {
          "internalType": "bool",
          "name": "",
          "type": "bool"
        }
      ],
      "stateMutability": "view",
      "type": "function"
    },
    {
      "inputs": [
        {
          "internalType": "address",
          "name": "_contractAddress",
          "type": "address"
        },
        {
          "internalType": "uint256",
          "name": "_tokenId",
          "type": "uint256"
        }
      ],
      "name": "tokenCreator",
      "outputs": [
        {
          "internalType": "address payable",
          "name": "",
          "type": "address"
        }
      ],
      "stateMutability": "view",
      "type": "function"
    },
    {
      "inputs": [
        {
          "internalType": "address",
          "name": "",
          "type": "address"
        },
        {
          "internalType": "uint256",
          "name": "",
          "type": "uint256"
        }
      ],
      "name": "tokenRoyaltyReceiver",
      "outputs": [
        {
          "internalType": "address",
          "name": "",
          "type": "address"
        }
      ],
      "stateMutability": "view",
      "type": "function"
    },
    {
      "inputs": [
        {
          "internalType": "address",
          "name": "newOwner",
          "type": "address"
        }
      ],
      "name": "transferOwnership",
      "outputs": [],
      "stateMutability": "nonpayable",
      "type": "function"
    }
  ],
  "bytecode": {
    "object": "0x60806040523480156200001157600080fd5b5060405162001703380380620017038339810160408190526200003491620001db565b6200003f33620000f3565b6001600160a01b038116620000c05760405162461bcd60e51b815260206004820152603c60248201527f636f6e7374727563746f723a3a5f69455243373231546f6b656e43726561746f60448201527f722063616e6e6f7420626520746865207a65726f206164647265737300000000606482015260840160405180910390fd5b620000cd60003362000143565b600780546001600160a01b0319166001600160a01b03929092169190911790556200020d565b600080546001600160a01b038381166001600160a01b0319831681178455604051919092169283917f8be0079c531659141344cd1fd0a4f28419497f9722a3daafe3b4186f6b6457e09190a35050565b6200014f828262000153565b5050565b60008281526001602090815260408083206001600160a01b038516845290915290205460ff166200014f5760008281526001602081815260408084206001600160a01b0386168086529252808420805460ff19169093179092559051339285917f2f8788117e7eff1d82e926ec794901d17c78024a50270940304540a733656f0d9190a45050565b600060208284031215620001ee57600080fd5b81516001600160a01b03811681146200020657600080fd5b9392505050565b6114e6806200021d6000396000f3fe608060405234801561001057600080fd5b506004361061018e5760003560e01c806376bf88b2116100de578063a217fddf11610097578063d547741f11610071578063d547741f146103ee578063d877978114610401578063f2fde38b14610424578063f30067221461043757600080fd5b8063a217fddf146103aa578063a34e36a5146103b2578063b85ed7e4146103db57600080fd5b806376bf88b2146103075780637c0329f71461032c5780637d3b79ac1461033f578063860110f5146103735780638da5cb5b1461038657806391d148541461039757600080fd5b806336568abe1161014b57806352214f611161012557806352214f61146102b257806358a70266146102d9578063715018a6146102ec578063725a5f28146102f457600080fd5b806336568abe146102795780633ee893d41461028c5780635121d5ba1461029f57600080fd5b806301ffc9a7146101935780630f7c7624146101bb5780631fc58258146101fc578063248a9ca31461021f5780632d5baea3146102515780632f2ff15d14610266575b600080fd5b6101a66101a136600461110c565b61044a565b60405190151581526020015b60405180910390f35b6101e46101c936600461114b565b6004602052600090815260409020546001600160a01b031681565b6040516001600160a01b0390911681526020016101b2565b6101a661020a36600461114b565b60036020526000908152604090205460ff1681565b61024361022d366004611168565b6000908152600160208190526040909120015490565b6040519081526020016101b2565b61026461025f366004611181565b610481565b005b6102646102743660046111c0565b610604565b6102646102873660046111c0565b61062f565b61026461029a3660046111e5565b6106ad565b6007546101e4906001600160a01b031681565b6102437fb4cce6bf152b41f237b365401b209838c52169fc7d8726c2df85b8f8930b731481565b6102646102e736600461114b565b610862565b610264610908565b610264610302366004611213565b61091c565b61031a61031536600461114b565b610a41565b60405160ff90911681526020016101b2565b61031a61033a366004611254565b610a87565b6101e461034d366004611254565b60066020908152600092835260408084209091529082529020546001600160a01b031681565b610243610381366004611280565b610ad2565b6000546001600160a01b03166101e4565b6101a66103a53660046111c0565b610aff565b610243600081565b6101e46103c036600461114b565b6005602052600090815260409020546001600160a01b031681565b6101e46103e9366004611254565b610b2a565b6102646103fc3660046111c0565b610c8b565b61031a61040f36600461114b565b60026020526000908152604090205460ff1681565b61026461043236600461114b565b610cb1565b61026461044536600461114b565b610d2a565b60006001600160e01b03198216637965db0b60e01b148061047b57506301ffc9a760e01b6001600160e01b03198316145b92915050565b6104ab7fb4cce6bf152b41f237b365401b209838c52169fc7d8726c2df85b8f8930b731433610aff565b61053d5760405162461bcd60e51b815260206004820152605260248201527f73657450657263656e74616765466f72536574455243373231436f6e7472616360448201527f74526f79616c74793a3a43616c6c6572206d757374206861766520726f79616c6064820152717479206665652073657474657220726f6c6560701b608482015260a4015b60405180910390fd5b60648160ff1611156105c55760405162461bcd60e51b8152602060048201526044602482018190527f73657450657263656e74616765466f72536574455243373231436f6e74726163908201527f74526f79616c74793a3a5f70657263656e74616765206d757374206265203c3d6064820152630203130360e41b608482015260a401610534565b6001600160a01b039091166000908152600260209081526040808320805460ff90951660ff199586161790556003909152902080549091166001179055565b6000828152600160208190526040909120015461062081610d7f565b61062a8383610d89565b505050565b6001600160a01b038116331461069f5760405162461bcd60e51b815260206004820152602f60248201527f416363657373436f6e74726f6c3a2063616e206f6e6c792072656e6f756e636560448201526e103937b632b9903337b91039b2b63360891b6064820152608401610534565b6106a98282610df4565b5050565b6001600160a01b038216158015906106cd57506001600160a01b03811615155b6106e95760405162461bcd60e51b8152600401610534906112b5565b6000819050806001600160a01b0316638da5cb5b6040518163ffffffff1660e01b8152600401602060405180830381865afa925050508015610748575060408051601f3d908101601f1916820190925261074591810190611309565b60015b6107b15760405162461bcd60e51b815260206004820152603460248201527f736574526f79616c74795265636569766572466f72436f6e74726163743a3a6360448201527337b73a3930b1ba103430b99037379037bbb732b960611b6064820152608401610534565b336001600160a01b0382161461082f5760405162461bcd60e51b815260206004820152603860248201527f736574526f79616c74795265636569766572466f72436f6e74726163743a3a6d60448201527f757374206265206f776e6572206f6620636f6e747261637400000000000000006064820152608401610534565b50506001600160a01b03908116600090815260056020526040902080546001600160a01b03191692909116919091179055565b61086a610e5b565b6001600160a01b0381166108e65760405162461bcd60e51b815260206004820152603760248201527f73657449455243373231546f6b656e43726561746f723a3a5f636f6e7472616360448201527f74416464726573732063616e6e6f74206265206e756c6c0000000000000000006064820152608401610534565b600780546001600160a01b0319166001600160a01b0392909216919091179055565b610910610e5b565b61091a6000610eb5565b565b600754604051632e17b5f960e21b81526001600160a01b03848116600483015260248201849052600092169063b85ed7e490604401602060405180830381865afa15801561096e573d6000803e3d6000fd5b505050506040513d601f19601f820116820180604052508101906109929190611309565b9050336001600160a01b03821614610a065760405162461bcd60e51b815260206004820152603160248201527f736574526f79616c74795265636569766572466f72546f6b656e3a3a6d757374604482015270103132903a37b5b2b71031b932b0ba37b960791b6064820152608401610534565b506001600160a01b039182166000908152600660209081526040808320938352929052208054919092166001600160a01b0319909116179055565b6001600160a01b03811660009081526003602052604081205460ff16610a6857600a61047b565b506001600160a01b031660009081526002602052604090205460ff1690565b6001600160a01b03821660009081526003602052604081205460ff16610aae57600a610acb565b6001600160a01b03831660009081526002602052604090205460ff165b9392505050565b60006064610ae08585610a87565b610aed9060ff168461133c565b610af7919061135b565b949350505050565b60009182526001602090815260408084206001600160a01b0393909316845291905290205460ff1690565b600754604051632e17b5f960e21b81526001600160a01b03848116600483015260248201849052600092839291169063b85ed7e490604401602060405180830381865afa158015610b7f573d6000803e3d6000fd5b505050506040513d601f19601f82011682018060405250810190610ba39190611309565b6001600160a01b0385811660009081526005602052604090205491925016610bcb5780610be7565b6001600160a01b03808516600090815260056020526040902054165b6001600160a01b03858116600090815260066020908152604080832088845290915290205491925016610c1a5780610c41565b6001600160a01b038085166000908152600660209081526040808320878452909152902054165b6001600160a01b0380821660009081526004602052604090205491925016610c695780610af7565b6001600160a01b03908116600090815260046020526040902054169392505050565b60008281526001602081905260409091200154610ca781610d7f565b61062a8383610df4565b610cb9610e5b565b6001600160a01b038116610d1e5760405162461bcd60e51b815260206004820152602660248201527f4f776e61626c653a206e6577206f776e657220697320746865207a65726f206160448201526564647265737360d01b6064820152608401610534565b610d2781610eb5565b50565b6001600160a01b038116610d505760405162461bcd60e51b8152600401610534906112b5565b33600090815260046020526040902080546001600160a01b0319166001600160a01b0392909216919091179055565b610d278133610f05565b610d938282610aff565b6106a95760008281526001602081815260408084206001600160a01b0386168086529252808420805460ff19169093179092559051339285917f2f8788117e7eff1d82e926ec794901d17c78024a50270940304540a733656f0d9190a45050565b610dfe8282610aff565b156106a95760008281526001602090815260408083206001600160a01b0385168085529252808320805460ff1916905551339285917ff6391f5c32d9c69d2a47ea670b442974b53935d1edc7fd64eb21e047a839171b9190a45050565b6000546001600160a01b0316331461091a5760405162461bcd60e51b815260206004820181905260248201527f4f776e61626c653a2063616c6c6572206973206e6f7420746865206f776e65726044820152606401610534565b600080546001600160a01b038381166001600160a01b0319831681178455604051919092169283917f8be0079c531659141344cd1fd0a4f28419497f9722a3daafe3b4186f6b6457e09190a35050565b610f0f8282610aff565b6106a957610f1c81610f5e565b610f27836020610f70565b604051602001610f389291906113ad565b60408051601f198184030181529082905262461bcd60e51b825261053491600401611422565b606061047b6001600160a01b03831660145b60606000610f7f83600261133c565b610f8a906002611455565b67ffffffffffffffff811115610fa257610fa261146d565b6040519080825280601f01601f191660200182016040528015610fcc576020820181803683370190505b509050600360fc1b81600081518110610fe757610fe7611483565b60200101906001600160f81b031916908160001a905350600f60fb1b8160018151811061101657611016611483565b60200101906001600160f81b031916908160001a905350600061103a84600261133c565b611045906001611455565b90505b60018111156110bd576f181899199a1a9b1b9c1cb0b131b232b360811b85600f166010811061107957611079611483565b1a60f81b82828151811061108f5761108f611483565b60200101906001600160f81b031916908160001a90535060049490941c936110b681611499565b9050611048565b508315610acb5760405162461bcd60e51b815260206004820181905260248201527f537472696e67733a20686578206c656e67746820696e73756666696369656e746044820152606401610534565b60006020828403121561111e57600080fd5b81356001600160e01b031981168114610acb57600080fd5b6001600160a01b0381168114610d2757600080fd5b60006020828403121561115d57600080fd5b8135610acb81611136565b60006020828403121561117a57600080fd5b5035919050565b6000806040838503121561119457600080fd5b823561119f81611136565b9150602083013560ff811681146111b557600080fd5b809150509250929050565b600080604083850312156111d357600080fd5b8235915060208301356111b581611136565b600080604083850312156111f857600080fd5b823561120381611136565b915060208301356111b581611136565b60008060006060848603121561122857600080fd5b833561123381611136565b9250602084013561124381611136565b929592945050506040919091013590565b6000806040838503121561126757600080fd5b823561127281611136565b946020939093013593505050565b60008060006060848603121561129557600080fd5b83356112a081611136565b95602085013595506040909401359392505050565b60208082526034908201527f736574526f79616c747952656365697665724f766572726964653a3a63616e746040820152732073657420746f207a65726f206164647265737360601b606082015260800190565b60006020828403121561131b57600080fd5b8151610acb81611136565b634e487b7160e01b600052601160045260246000fd5b600081600019048311821515161561135657611356611326565b500290565b60008261137857634e487b7160e01b600052601260045260246000fd5b500490565b60005b83811015611398578181015183820152602001611380565b838111156113a7576000848401525b50505050565b7f416363657373436f6e74726f6c3a206163636f756e74200000000000000000008152600083516113e581601785016020880161137d565b7001034b99036b4b9b9b4b733903937b6329607d1b601791840191820152835161141681602884016020880161137d565b01602801949350505050565b602081526000825180602084015261144181604085016020870161137d565b601f01601f19169190910160400192915050565b6000821982111561146857611468611326565b500190565b634e487b7160e01b600052604160045260246000fd5b634e487b7160e01b600052603260045260246000fd5b6000816114a8576114a8611326565b50600019019056fea2646970667358221220a0f1f356226daa92edca06eb02915bfed5cd80baf86721e408a068ea6cd9681364736f6c634300080f0033",
    "linkReferences": {}
  },
  "methodIdentifiers": {
    "DEFAULT_ADMIN_ROLE()": "a217fddf",
    "ROYALTY_FEE_SETTER_ROLE()": "52214f61",
    "calculateRoyaltyFee(address,uint256,uint256)": "860110f5",
    "contractRoyaltyPercentage(address)": "d8779781",
    "contractRoyaltyPercentageSet(address)": "1fc58258",
    "contractRoyaltyReceiver(address)": "a34e36a5",
    "getERC721TokenRoyaltyPercentage(address,uint256)": "7c0329f7",
    "getPercentageForSetERC721ContractRoyalty(address)": "76bf88b2",
    "getRoleAdmin(bytes32)": "248a9ca3",
    "grantRole(bytes32,address)": "2f2ff15d",
    "hasRole(bytes32,address)": "91d14854",
    "iERC721TokenCreator()": "5121d5ba",
    "owner()": "8da5cb5b",
    "renounceOwnership()": "715018a6",
    "renounceRole(bytes32,address)": "36568abe",
    "revokeRole(bytes32,address)": "d547741f",
    "royaltyReceiverOverride(address)": "0f7c7624",
    "setIERC721TokenCreator(address)": "58a70266",
    "setPercentageForSetERC721ContractRoyalty(address,uint8)": "2d5baea3",
    "setRoyaltyReceiverForContract(address,address)": "3ee893d4",
    "setRoyaltyReceiverForToken(address,address,uint256)": "725a5f28",
    "setRoyaltyReceiverOverride(address)": "f3006722",
    "supportsInterface(bytes4)": "01ffc9a7",
    "tokenCreator(address,uint256)": "b85ed7e4",
    "tokenRoyaltyReceiver(address,uint256)": "7d3b79ac",
    "transferOwnership(address)": "f2fde38b"
  },
  "id": 63
}