{
  "abi": [
    {
      "anonymous": false,
      "inputs": [
        {
          "indexed": false,
          "internalType": "uint8",
          "name": "version",
          "type": "uint8"
        }
      ],
      "name": "Initialized",
      "type": "event"
    },
    {
      "anonymous": false,
      "inputs": [
        {
          "indexed": true,
          "internalType": "bytes32",
          "name": "role",
          "type": "bytes32"
        },
        {
          "indexed": true,
          "internalType": "bytes32",
          "name": "previousAdminRole",
          "type": "bytes32"
        },
        {
          "indexed": true,
          "internalType": "bytes32",
          "name": "newAdminRole",
          "type": "bytes32"
        }
      ],
      "name": "RoleAdminChanged",
      "type": "event"
    },
    {
      "anonymous": false,
      "inputs": [
        {
          "indexed": true,
          "internalType": "bytes32",
          "name": "role",
          "type": "bytes32"
        },
        {
          "indexed": true,
          "internalType": "address",
          "name": "account",
          "type": "address"
        },
        {
          "indexed": true,
          "internalType": "address",
          "name": "sender",
          "type": "address"
        }
      ],
      "name": "RoleGranted",
      "type": "event"
    },
    {
      "anonymous": false,
      "inputs": [
        {
          "indexed": true,
          "internalType": "bytes32",
          "name": "role",
          "type": "bytes32"
        },
        {
          "indexed": true,
          "internalType": "address",
          "name": "account",
          "type": "address"
        },
        {
          "indexed": true,
          "internalType": "address",
          "name": "sender",
          "type": "address"
        }
      ],
      "name": "RoleRevoked",
      "type": "event"
    },
    {
      "anonymous": false,
      "inputs": [
        {
          "indexed": true,
          "internalType": "address",
          "name": "_operator",
          "type": "address"
        },
        {
          "indexed": true,
          "internalType": "address",
          "name": "_approver",
          "type": "address"
        },
        {
          "indexed": false,
          "internalType": "bool",
          "name": "_approved",
          "type": "bool"
        }
      ],
      "name": "SpaceOperatorApproved",
      "type": "event"
    },
    {
      "inputs": [],
      "name": "DEFAULT_ADMIN_ROLE",
      "outputs": [
        {
          "internalType": "bytes32",
          "name": "",
          "type": "bytes32"
        }
      ],
      "stateMutability": "view",
      "type": "function"
    },
    {
      "inputs": [],
      "name": "SPACE_OPERATOR_REGISTER_ROLE",
      "outputs": [
        {
          "internalType": "bytes32",
          "name": "",
          "type": "bytes32"
        }
      ],
      "stateMutability": "view",
      "type": "function"
    },
    {
      "inputs": [
        {
          "internalType": "address[]",
          "name": "_operators",
          "type": "address[]"
        },
        {
          "internalType": "bool",
          "name": "_approved",
          "type": "bool"
        }
      ],
      "name": "batchSetSpaceOperatorApproved",
      "outputs": [],
      "stateMutability": "nonpayable",
      "type": "function"
    },
    {
      "inputs": [
        {
          "internalType": "address",
          "name": "",
          "type": "address"
        }
      ],
      "name": "getPlatformCommission",
      "outputs": [
        {
          "internalType": "uint8",
          "name": "",
          "type": "uint8"
        }
      ],
      "stateMutability": "pure",
      "type": "function"
    },
    {
      "inputs": [
        {
          "internalType": "bytes32",
          "name": "role",
          "type": "bytes32"
        }
      ],
      "name": "getRoleAdmin",
      "outputs": [
        {
          "internalType": "bytes32",
          "name": "",
          "type": "bytes32"
        }
      ],
      "stateMutability": "view",
      "type": "function"
    },
    {
      "inputs": [
        {
          "internalType": "bytes32",
          "name": "role",
          "type": "bytes32"
        },
        {
          "internalType": "address",
          "name": "account",
          "type": "address"
        }
      ],
      "name": "grantRole",
      "outputs": [],
      "stateMutability": "nonpayable",
      "type": "function"
    },
    {
      "inputs": [
        {
          "internalType": "bytes32",
          "name": "role",
          "type": "bytes32"
        },
        {
          "internalType": "address",
          "name": "account",
          "type": "address"
        }
      ],
      "name": "hasRole",
      "outputs": [
        {
          "internalType": "bool",
          "name": "",
          "type": "bool"
        }
      ],
      "stateMutability": "view",
      "type": "function"
    },
    {
      "inputs": [],
      "name": "initialize",
      "outputs": [],
      "stateMutability": "nonpayable",
      "type": "function"
    },
    {
      "inputs": [
        {
          "internalType": "address",
          "name": "",
          "type": "address"
        }
      ],
      "name": "isApprovedOperator",
      "outputs": [
        {
          "internalType": "bool",
          "name": "",
          "type": "bool"
        }
      ],
      "stateMutability": "view",
      "type": "function"
    },
    {
      "inputs": [
        {
          "internalType": "address",
          "name": "_operator",
          "type": "address"
        }
      ],
      "name": "isApprovedSpaceOperator",
      "outputs": [
        {
          "internalType": "bool",
          "name": "",
          "type": "bool"
        }
      ],
      "stateMutability": "view",
      "type": "function"
    },
    {
      "inputs": [
        {
          "internalType": "bytes32",
          "name": "role",
          "type": "bytes32"
        },
        {
          "internalType": "address",
          "name": "account",
          "type": "address"
        }
      ],
      "name": "renounceRole",
      "outputs": [],
      "stateMutability": "nonpayable",
      "type": "function"
    },
    {
      "inputs": [
        {
          "internalType": "bytes32",
          "name": "role",
          "type": "bytes32"
        },
        {
          "internalType": "address",
          "name": "account",
          "type": "address"
        }
      ],
      "name": "revokeRole",
      "outputs": [],
      "stateMutability": "nonpayable",
      "type": "function"
    },
    {
      "inputs": [
        {
          "internalType": "address",
          "name": "",
          "type": "address"
        },
        {
          "internalType": "uint8",
          "name": "",
          "type": "uint8"
        }
      ],
      "name": "setPlatformCommission",
      "outputs": [],
      "stateMutability": "nonpayable",
      "type": "function"
    },
    {
      "inputs": [
        {
          "internalType": "address",
          "name": "_operator",
          "type": "address"
        },
        {
          "internalType": "bool",
          "name": "_approved",
          "type": "bool"
        }
      ],
      "name": "setSpaceOperatorApproved",
      "outputs": [],
      "stateMutability": "nonpayable",
      "type": "function"
    },
    {
      "inputs": [
        {
          "internalType": "bytes4",
          "name": "interfaceId",
          "type": "bytes4"
        }
      ],
      "name": "supportsInterface",
      "outputs": [
        {
          "internalType": "bool",
          "name": "",
          "type": "bool"
        }
      ],
      "stateMutability": "view",
      "type": "function"
    }
  ],
  "bytecode": {
    "object": "0x608060405234801561001057600080fd5b50610d4e806100206000396000f3fe608060405234801561001057600080fd5b50600436106100f55760003560e01c80635a7d11d3116100975780638c479012116100665780638c4790121461023357806391d1485414610245578063a217fddf14610258578063d547741f1461026057600080fd5b80635a7d11d3146101c75780635dc22eff146101ea5780636ef90741146102165780638129fc1c1461022b57600080fd5b80632260494f116100d35780632260494f1461014a578063248a9ca3146101705780632f2ff15d146101a157806336568abe146101b457600080fd5b806301ffc9a7146100fa5780630d7fc28014610122578063153875f314610137575b600080fd5b61010d6101083660046109da565b610273565b60405190151581526020015b60405180910390f35b610135610130366004610a19565b6102aa565b005b610135610145366004610ab4565b6103ae565b61015e610158366004610ae7565b50600590565b60405160ff9091168152602001610119565b61019361017e366004610b02565b60009081526065602052604090206001015490565b604051908152602001610119565b6101356101af366004610b1b565b610431565b6101356101c2366004610b1b565b61045b565b61010d6101d5366004610ae7565b60976020526000908152604090205460ff1681565b61010d6101f8366004610ae7565b6001600160a01b031660009081526097602052604090205460ff1690565b610193600080516020610cf983398151915281565b6101356104da565b610135610241366004610b3e565b5050565b61010d610253366004610b1b565b61060e565b610193600081565b61013561026e366004610b1b565b610639565b60006001600160e01b03198216637965db0b60e01b14806102a457506301ffc9a760e01b6001600160e01b03198316145b92915050565b60005b828110156103a8576102cd600080516020610cf98339815191523361060e565b6102d657600080fd5b81609760008686858181106102ed576102ed610b7b565b90506020020160208101906103029190610ae7565b6001600160a01b031681526020810191909152604001600020805460ff19169115159190911790553384848381811061033d5761033d610b7b565b90506020020160208101906103529190610ae7565b6001600160a01b03167f73c6c46c16b828775364ea7d6e753e704d29e8d5d57372459c0f0e699b5cdc198460405161038e911515815260200190565b60405180910390a3806103a081610ba7565b9150506102ad565b50505050565b6103c6600080516020610cf98339815191523361060e565b6103cf57600080fd5b6001600160a01b038216600081815260976020908152604091829020805460ff191685151590811790915591519182523392917f73c6c46c16b828775364ea7d6e753e704d29e8d5d57372459c0f0e699b5cdc19910160405180910390a35050565b60008281526065602052604090206001015461044c8161065e565b6104568383610668565b505050565b6001600160a01b03811633146104d05760405162461bcd60e51b815260206004820152602f60248201527f416363657373436f6e74726f6c3a2063616e206f6e6c792072656e6f756e636560448201526e103937b632b9903337b91039b2b63360891b60648201526084015b60405180910390fd5b61024182826106ee565b600054610100900460ff16158080156104fa5750600054600160ff909116105b806105145750303b158015610514575060005460ff166001145b6105775760405162461bcd60e51b815260206004820152602e60248201527f496e697469616c697a61626c653a20636f6e747261637420697320616c72656160448201526d191e481a5b9a5d1a585b1a5e995960921b60648201526084016104c7565b6000805460ff19166001179055801561059a576000805461ff0019166101001790555b6105a2610755565b6105ad6000336107c2565b6105c5600080516020610cf9833981519152336107c2565b801561060b576000805461ff0019169055604051600181527f7f26b83ff96e1f2b6a682f133852f6798a09c465da95921460cefb38474024989060200160405180910390a15b50565b60009182526065602090815260408084206001600160a01b0393909316845291905290205460ff1690565b6000828152606560205260409020600101546106548161065e565b61045683836106ee565b61060b81336107cc565b610672828261060e565b6102415760008281526065602090815260408083206001600160a01b03851684529091529020805460ff191660011790556106aa3390565b6001600160a01b0316816001600160a01b0316837f2f8788117e7eff1d82e926ec794901d17c78024a50270940304540a733656f0d60405160405180910390a45050565b6106f8828261060e565b156102415760008281526065602090815260408083206001600160a01b0385168085529252808320805460ff1916905551339285917ff6391f5c32d9c69d2a47ea670b442974b53935d1edc7fd64eb21e047a839171b9190a45050565b600054610100900460ff166107c05760405162461bcd60e51b815260206004820152602b60248201527f496e697469616c697a61626c653a20636f6e7472616374206973206e6f74206960448201526a6e697469616c697a696e6760a81b60648201526084016104c7565b565b6102418282610668565b6107d6828261060e565b610241576107e381610825565b6107ee836020610837565b6040516020016107ff929190610bec565b60408051601f198184030181529082905262461bcd60e51b82526104c791600401610c61565b60606102a46001600160a01b03831660145b60606000610846836002610c94565b610851906002610cb3565b67ffffffffffffffff81111561086957610869610ccb565b6040519080825280601f01601f191660200182016040528015610893576020820181803683370190505b509050600360fc1b816000815181106108ae576108ae610b7b565b60200101906001600160f81b031916908160001a905350600f60fb1b816001815181106108dd576108dd610b7b565b60200101906001600160f81b031916908160001a9053506000610901846002610c94565b61090c906001610cb3565b90505b6001811115610984576f181899199a1a9b1b9c1cb0b131b232b360811b85600f166010811061094057610940610b7b565b1a60f81b82828151811061095657610956610b7b565b60200101906001600160f81b031916908160001a90535060049490941c9361097d81610ce1565b905061090f565b5083156109d35760405162461bcd60e51b815260206004820181905260248201527f537472696e67733a20686578206c656e67746820696e73756666696369656e7460448201526064016104c7565b9392505050565b6000602082840312156109ec57600080fd5b81356001600160e01b0319811681146109d357600080fd5b80358015158114610a1457600080fd5b919050565b600080600060408486031215610a2e57600080fd5b833567ffffffffffffffff80821115610a4657600080fd5b818601915086601f830112610a5a57600080fd5b813581811115610a6957600080fd5b8760208260051b8501011115610a7e57600080fd5b602092830195509350610a949186019050610a04565b90509250925092565b80356001600160a01b0381168114610a1457600080fd5b60008060408385031215610ac757600080fd5b610ad083610a9d565b9150610ade60208401610a04565b90509250929050565b600060208284031215610af957600080fd5b6109d382610a9d565b600060208284031215610b1457600080fd5b5035919050565b60008060408385031215610b2e57600080fd5b82359150610ade60208401610a9d565b60008060408385031215610b5157600080fd5b610b5a83610a9d565b9150602083013560ff81168114610b7057600080fd5b809150509250929050565b634e487b7160e01b600052603260045260246000fd5b634e487b7160e01b600052601160045260246000fd5b600060018201610bb957610bb9610b91565b5060010190565b60005b83811015610bdb578181015183820152602001610bc3565b838111156103a85750506000910152565b7f416363657373436f6e74726f6c3a206163636f756e7420000000000000000000815260008351610c24816017850160208801610bc0565b7001034b99036b4b9b9b4b733903937b6329607d1b6017918401918201528351610c55816028840160208801610bc0565b01602801949350505050565b6020815260008251806020840152610c80816040850160208701610bc0565b601f01601f19169190910160400192915050565b6000816000190483118215151615610cae57610cae610b91565b500290565b60008219821115610cc657610cc6610b91565b500190565b634e487b7160e01b600052604160045260246000fd5b600081610cf057610cf0610b91565b50600019019056fe57527c1536e7f33d6b842314905b9307508ae79cb438bc0e1a0315e90266ae7fa2646970667358221220c5429a45ba00e55bfe68454a48af219d0e46fb3eff1c48c211ada3ed5a3eff2964736f6c634300080f0033",
    "linkReferences": {}
  },
  "methodIdentifiers": {
    "DEFAULT_ADMIN_ROLE()": "a217fddf",
    "SPACE_OPERATOR_REGISTER_ROLE()": "6ef90741",
    "batchSetSpaceOperatorApproved(address[],bool)": "0d7fc280",
    "getPlatformCommission(address)": "2260494f",
    "getRoleAdmin(bytes32)": "248a9ca3",
    "grantRole(bytes32,address)": "2f2ff15d",
    "hasRole(bytes32,address)": "91d14854",
    "initialize()": "8129fc1c",
    "isApprovedOperator(address)": "5a7d11d3",
    "isApprovedSpaceOperator(address)": "5dc22eff",
    "renounceRole(bytes32,address)": "36568abe",
    "revokeRole(bytes32,address)": "d547741f",
    "setPlatformCommission(address,uint8)": "8c479012",
    "setSpaceOperatorApproved(address,bool)": "153875f3",
    "supportsInterface(bytes4)": "01ffc9a7"
  },
  "id": 64
}