{
  "abi": [
    {
      "inputs": [
        {
          "internalType": "address",
          "name": "_superRareV2Contract",
          "type": "address"
        }
      ],
      "stateMutability": "nonpayable",
      "type": "constructor"
    },
    {
      "anonymous": false,
      "inputs": [
        {
          "indexed": true,
          "internalType": "address",
          "name": "previousOwner",
          "type": "address"
        },
        {
          "indexed": true,
          "internalType": "address",
          "name": "newOwner",
          "type": "address"
        }
      ],
      "name": "OwnershipTransferred",
      "type": "event"
    },
    {
      "anonymous": false,
      "inputs": [
        {
          "indexed": true,
          "internalType": "bytes32",
          "name": "role",
          "type": "bytes32"
        },
        {
          "indexed": true,
          "internalType": "bytes32",
          "name": "previousAdminRole",
          "type": "bytes32"
        },
        {
          "indexed": true,
          "internalType": "bytes32",
          "name": "newAdminRole",
          "type": "bytes32"
        }
      ],
      "name": "RoleAdminChanged",
      "type": "event"
    },
    {
      "anonymous": false,
      "inputs": [
        {
          "indexed": true,
          "internalType": "bytes32",
          "name": "role",
          "type": "bytes32"
        },
        {
          "indexed": true,
          "internalType": "address",
          "name": "account",
          "type": "address"
        },
        {
          "indexed": true,
          "internalType": "address",
          "name": "sender",
          "type": "address"
        }
      ],
      "name": "RoleGranted",
      "type": "event"
    },
    {
      "anonymous": false,
      "inputs": [
        {
          "indexed": true,
          "internalType": "bytes32",
          "name": "role",
          "type": "bytes32"
        },
        {
          "indexed": true,
          "internalType": "address",
          "name": "account",
          "type": "address"
        },
        {
          "indexed": true,
          "internalType": "address",
          "name": "sender",
          "type": "address"
        }
      ],
      "name": "RoleRevoked",
      "type": "event"
    },
    {
      "inputs": [],
      "name": "DEFAULT_ADMIN_ROLE",
      "outputs": [
        {
          "internalType": "bytes32",
          "name": "",
          "type": "bytes32"
        }
      ],
      "stateMutability": "view",
      "type": "function"
    },
    {
      "inputs": [],
      "name": "SUPER_RARE_WHITELIST_ROLE",
      "outputs": [
        {
          "internalType": "bytes32",
          "name": "",
          "type": "bytes32"
        }
      ],
      "stateMutability": "view",
      "type": "function"
    },
    {
      "inputs": [
        {
          "internalType": "address",
          "name": "_newAddress",
          "type": "address"
        }
      ],
      "name": "addToWhitelist",
      "outputs": [],
      "stateMutability": "nonpayable",
      "type": "function"
    },
    {
      "inputs": [
        {
          "internalType": "bytes32",
          "name": "role",
          "type": "bytes32"
        }
      ],
      "name": "getRoleAdmin",
      "outputs": [
        {
          "internalType": "bytes32",
          "name": "",
          "type": "bytes32"
        }
      ],
      "stateMutability": "view",
      "type": "function"
    },
    {
      "inputs": [
        {
          "internalType": "bytes32",
          "name": "role",
          "type": "bytes32"
        },
        {
          "internalType": "address",
          "name": "account",
          "type": "address"
        }
      ],
      "name": "grantRole",
      "outputs": [],
      "stateMutability": "nonpayable",
      "type": "function"
    },
    {
      "inputs": [
        {
          "internalType": "bytes32",
          "name": "role",
          "type": "bytes32"
        },
        {
          "internalType": "address",
          "name": "account",
          "type": "address"
        }
      ],
      "name": "hasRole",
      "outputs": [
        {
          "internalType": "bool",
          "name": "",
          "type": "bool"
        }
      ],
      "stateMutability": "view",
      "type": "function"
    },
    {
      "inputs": [],
      "name": "owner",
      "outputs": [
        {
          "internalType": "address",
          "name": "",
          "type": "address"
        }
      ],
      "stateMutability": "view",
      "type": "function"
    },
    {
      "inputs": [
        {
          "internalType": "address",
          "name": "_removedAddress",
          "type": "address"
        }
      ],
      "name": "removeFromWhitelist",
      "outputs": [],
      "stateMutability": "nonpayable",
      "type": "function"
    },
    {
      "inputs": [],
      "name": "renounceOwnership",
      "outputs": [],
      "stateMutability": "nonpayable",
      "type": "function"
    },
    {
      "inputs": [
        {
          "internalType": "bytes32",
          "name": "role",
          "type": "bytes32"
        },
        {
          "internalType": "address",
          "name": "account",
          "type": "address"
        }
      ],
      "name": "renounceRole",
      "outputs": [],
      "stateMutability": "nonpayable",
      "type": "function"
    },
    {
      "inputs": [
        {
          "internalType": "bytes32",
          "name": "role",
          "type": "bytes32"
        },
        {
          "internalType": "address",
          "name": "account",
          "type": "address"
        }
      ],
      "name": "revokeRole",
      "outputs": [],
      "stateMutability": "nonpayable",
      "type": "function"
    },
    {
      "inputs": [],
      "name": "superRareV2Contract",
      "outputs": [
        {
          "internalType": "address",
          "name": "",
          "type": "address"
        }
      ],
      "stateMutability": "view",
      "type": "function"
    },
    {
      "inputs": [
        {
          "internalType": "bytes4",
          "name": "interfaceId",
          "type": "bytes4"
        }
      ],
      "name": "supportsInterface",
      "outputs": [
        {
          "internalType": "bool",
          "name": "",
          "type": "bool"
        }
      ],
      "stateMutability": "view",
      "type": "function"
    },
    {
      "inputs": [
        {
          "internalType": "address",
          "name": "newOwner",
          "type": "address"
        }
      ],
      "name": "transferOwnership",
      "outputs": [],
      "stateMutability": "nonpayable",
      "type": "function"
    },
    {
      "inputs": [
        {
          "internalType": "address",
          "name": "_newOwner",
          "type": "address"
        }
      ],
      "name": "transferOwnershipOfSuperRareV2",
      "outputs": [],
      "stateMutability": "nonpayable",
      "type": "function"
    }
  ],
  "bytecode": {
    "object": "0x608060405234801561001057600080fd5b50604051610e01380380610e0183398101604081905261002f91610149565b61003833610064565b600280546001600160a01b0319166001600160a01b03831617905561005e6000336100b4565b50610179565b600080546001600160a01b038381166001600160a01b0319831681178455604051919092169283917f8be0079c531659141344cd1fd0a4f28419497f9722a3daafe3b4186f6b6457e09190a35050565b6100be82826100c2565b5050565b60008281526001602090815260408083206001600160a01b038516845290915290205460ff166100be5760008281526001602081815260408084206001600160a01b0386168086529252808420805460ff19169093179092559051339285917f2f8788117e7eff1d82e926ec794901d17c78024a50270940304540a733656f0d9190a45050565b60006020828403121561015b57600080fd5b81516001600160a01b038116811461017257600080fd5b9392505050565b610c79806101886000396000f3fe608060405234801561001057600080fd5b50600436106100f55760003560e01c80637eedb18311610097578063a217fddf11610066578063a217fddf14610220578063d547741f14610228578063e43252d71461023b578063f2fde38b1461024e57600080fd5b80637eedb183146101be5780638ab1d681146101e95780638da5cb5b146101fc57806391d148541461020d57600080fd5b8063248a9ca3116100d3578063248a9ca31461016c5780632f2ff15d1461019057806336568abe146101a3578063715018a6146101b657600080fd5b806301ffc9a7146100fa5780631570c64f1461012257806316ac5f5614610137575b600080fd5b61010d610108366004610a1d565b610261565b60405190151581526020015b60405180910390f35b610135610130366004610a63565b610298565b005b61015e7f9099625456168fa1014632039545443bfd375a6a89598f9953c299c9a35fc31681565b604051908152602001610119565b61015e61017a366004610a7e565b6000908152600160208190526040909120015490565b61013561019e366004610a97565b61036d565b6101356101b1366004610a97565b610398565b610135610416565b6002546101d1906001600160a01b031681565b6040516001600160a01b039091168152602001610119565b6101356101f7366004610a63565b61042a565b6000546001600160a01b03166101d1565b61010d61021b366004610a97565b6104f6565b61015e600081565b610135610236366004610a97565b610521565b610135610249366004610a63565b610547565b61013561025c366004610a63565b610613565b60006001600160e01b03198216637965db0b60e01b148061029257506301ffc9a760e01b6001600160e01b03198316145b92915050565b6102a0610689565b6002546040516001600160a01b038381166024830152600092839291169060440160408051601f198184030181529181526020820180516001600160e01b031663f2fde38b60e01b179052516102f69190610aef565b6000604051808303816000865af19150503d8060008114610333576040519150601f19603f3d011682016040523d82523d6000602084013e610338565b606091505b50915091508181906103665760405162461bcd60e51b815260040161035d9190610b0b565b60405180910390fd5b5050505b50565b60008281526001602081905260409091200154610389816106e3565b61039383836106ed565b505050565b6001600160a01b03811633146104085760405162461bcd60e51b815260206004820152602f60248201527f416363657373436f6e74726f6c3a2063616e206f6e6c792072656e6f756e636560448201526e103937b632b9903337b91039b2b63360891b606482015260840161035d565b6104128282610758565b5050565b61041e610689565b61042860006107bf565b565b6104547f9099625456168fa1014632039545443bfd375a6a89598f9953c299c9a35fc316336104f6565b6104a05760405162461bcd60e51b815260206004820152601a60248201527f646f65736e7420686176652077686974656c69737420726f6c65000000000000604482015260640161035d565b6002546040516001600160a01b038381166024830152600092839291169060440160408051601f198184030181529181526020820180516001600160e01b0316638ab1d68160e01b179052516102f69190610aef565b60009182526001602090815260408084206001600160a01b0393909316845291905290205460ff1690565b6000828152600160208190526040909120015461053d816106e3565b6103938383610758565b6105717f9099625456168fa1014632039545443bfd375a6a89598f9953c299c9a35fc316336104f6565b6105bd5760405162461bcd60e51b815260206004820152601a60248201527f646f65736e7420686176652077686974656c69737420726f6c65000000000000604482015260640161035d565b6002546040516001600160a01b038381166024830152600092839291169060440160408051601f198184030181529181526020820180516001600160e01b031663e43252d760e01b179052516102f69190610aef565b61061b610689565b6001600160a01b0381166106805760405162461bcd60e51b815260206004820152602660248201527f4f776e61626c653a206e6577206f776e657220697320746865207a65726f206160448201526564647265737360d01b606482015260840161035d565b61036a816107bf565b6000546001600160a01b031633146104285760405162461bcd60e51b815260206004820181905260248201527f4f776e61626c653a2063616c6c6572206973206e6f7420746865206f776e6572604482015260640161035d565b61036a813361080f565b6106f782826104f6565b6104125760008281526001602081815260408084206001600160a01b0386168086529252808420805460ff19169093179092559051339285917f2f8788117e7eff1d82e926ec794901d17c78024a50270940304540a733656f0d9190a45050565b61076282826104f6565b156104125760008281526001602090815260408083206001600160a01b0385168085529252808320805460ff1916905551339285917ff6391f5c32d9c69d2a47ea670b442974b53935d1edc7fd64eb21e047a839171b9190a45050565b600080546001600160a01b038381166001600160a01b0319831681178455604051919092169283917f8be0079c531659141344cd1fd0a4f28419497f9722a3daafe3b4186f6b6457e09190a35050565b61081982826104f6565b6104125761082681610868565b61083183602061087a565b604051602001610842929190610b3e565b60408051601f198184030181529082905262461bcd60e51b825261035d91600401610b0b565b60606102926001600160a01b03831660145b60606000610889836002610bc9565b610894906002610be8565b67ffffffffffffffff8111156108ac576108ac610c00565b6040519080825280601f01601f1916602001820160405280156108d6576020820181803683370190505b509050600360fc1b816000815181106108f1576108f1610c16565b60200101906001600160f81b031916908160001a905350600f60fb1b8160018151811061092057610920610c16565b60200101906001600160f81b031916908160001a9053506000610944846002610bc9565b61094f906001610be8565b90505b60018111156109c7576f181899199a1a9b1b9c1cb0b131b232b360811b85600f166010811061098357610983610c16565b1a60f81b82828151811061099957610999610c16565b60200101906001600160f81b031916908160001a90535060049490941c936109c081610c2c565b9050610952565b508315610a165760405162461bcd60e51b815260206004820181905260248201527f537472696e67733a20686578206c656e67746820696e73756666696369656e74604482015260640161035d565b9392505050565b600060208284031215610a2f57600080fd5b81356001600160e01b031981168114610a1657600080fd5b80356001600160a01b0381168114610a5e57600080fd5b919050565b600060208284031215610a7557600080fd5b610a1682610a47565b600060208284031215610a9057600080fd5b5035919050565b60008060408385031215610aaa57600080fd5b82359150610aba60208401610a47565b90509250929050565b60005b83811015610ade578181015183820152602001610ac6565b838111156103665750506000910152565b60008251610b01818460208701610ac3565b9190910192915050565b6020815260008251806020840152610b2a816040850160208701610ac3565b601f01601f19169190910160400192915050565b7f416363657373436f6e74726f6c3a206163636f756e7420000000000000000000815260008351610b76816017850160208801610ac3565b7001034b99036b4b9b9b4b733903937b6329607d1b6017918401918201528351610ba7816028840160208801610ac3565b01602801949350505050565b634e487b7160e01b600052601160045260246000fd5b6000816000190483118215151615610be357610be3610bb3565b500290565b60008219821115610bfb57610bfb610bb3565b500190565b634e487b7160e01b600052604160045260246000fd5b634e487b7160e01b600052603260045260246000fd5b600081610c3b57610c3b610bb3565b50600019019056fea26469706673582212206ded7c2692faf6f3d1b94632dfc445a24820f9d6c3ba17b977b89b5b1a6dc21364736f6c634300080f0033",
    "linkReferences": {}
  },
  "methodIdentifiers": {
    "DEFAULT_ADMIN_ROLE()": "a217fddf",
    "SUPER_RARE_WHITELIST_ROLE()": "16ac5f56",
    "addToWhitelist(address)": "e43252d7",
    "getRoleAdmin(bytes32)": "248a9ca3",
    "grantRole(bytes32,address)": "2f2ff15d",
    "hasRole(bytes32,address)": "91d14854",
    "owner()": "8da5cb5b",
    "removeFromWhitelist(address)": "8ab1d681",
    "renounceOwnership()": "715018a6",
    "renounceRole(bytes32,address)": "36568abe",
    "revokeRole(bytes32,address)": "d547741f",
    "superRareV2Contract()": "7eedb183",
    "supportsInterface(bytes4)": "01ffc9a7",
    "transferOwnership(address)": "f2fde38b",
    "transferOwnershipOfSuperRareV2(address)": "1570c64f"
  },
  "id": 72
}