{
  "abi": [
    {
      "anonymous": false,
      "inputs": [
        {
          "indexed": true,
          "internalType": "address",
          "name": "previousOwner",
          "type": "address"
        },
        {
          "indexed": true,
          "internalType": "address",
          "name": "newOwner",
          "type": "address"
        }
      ],
      "name": "OwnershipTransferred",
      "type": "event"
    },
    {
      "inputs": [
        {
          "internalType": "address",
          "name": "_ownedAddress",
          "type": "address"
        },
        {
          "internalType": "address",
          "name": "_newOwner",
          "type": "address"
        }
      ],
      "name": "migrateThisAsOwner",
      "outputs": [],
      "stateMutability": "nonpayable",
      "type": "function"
    },
    {
      "inputs": [],
      "name": "owner",
      "outputs": [
        {
          "internalType": "address",
          "name": "",
          "type": "address"
        }
      ],
      "stateMutability": "view",
      "type": "function"
    },
    {
      "inputs": [],
      "name": "renounceOwnership",
      "outputs": [],
      "stateMutability": "nonpayable",
      "type": "function"
    },
    {
      "inputs": [
        {
          "internalType": "address",
          "name": "newOwner",
          "type": "address"
        }
      ],
      "name": "transferOwnership",
      "outputs": [],
      "stateMutability": "nonpayable",
      "type": "function"
    },
    {
      "inputs": [],
      "name": "withdraw",
      "outputs": [],
      "stateMutability": "nonpayable",
      "type": "function"
    },
    {
      "stateMutability": "payable",
      "type": "receive"
    }
  ],
  "bytecode": {
    "object": "0x608060405234801561001057600080fd5b5061001a3361001f565b61006f565b600080546001600160a01b038381166001600160a01b0319831681178455604051919092169283917f8be0079c531659141344cd1fd0a4f28419497f9722a3daafe3b4186f6b6457e09190a35050565b6104748061007e6000396000f3fe60806040526004361061004e5760003560e01c80633ccfd60b1461005a578063715018a6146100715780638da5cb5b14610086578063bb560cb9146100b2578063f2fde38b146100d257600080fd5b3661005557005b600080fd5b34801561006657600080fd5b5061006f6100f2565b005b34801561007d57600080fd5b5061006f61017f565b34801561009257600080fd5b50600054604080516001600160a01b039092168252519081900360200190f35b3480156100be57600080fd5b5061006f6100cd36600461036a565b610193565b3480156100de57600080fd5b5061006f6100ed36600461039d565b61022b565b600080546040516001600160a01b039091169147918190849084908381818185875af1925050503d8060008114610145576040519150601f19603f3d011682016040523d82523d6000602084013e61014a565b606091505b50915091508181906101785760405162461bcd60e51b815260040161016f91906103ef565b60405180910390fd5b5050505050565b6101876102a4565b61019160006102fe565b565b61019b6102a4565b6040516001600160a01b038281166024830152600091829185169060440160408051601f198184030181529181526020820180516001600160e01b031663f2fde38b60e01b179052516101ee9190610422565b6000604051808303816000865af19150503d8060008114610145576040519150601f19603f3d011682016040523d82523d6000602084013e61014a565b6102336102a4565b6001600160a01b0381166102985760405162461bcd60e51b815260206004820152602660248201527f4f776e61626c653a206e6577206f776e657220697320746865207a65726f206160448201526564647265737360d01b606482015260840161016f565b6102a1816102fe565b50565b6000546001600160a01b031633146101915760405162461bcd60e51b815260206004820181905260248201527f4f776e61626c653a2063616c6c6572206973206e6f7420746865206f776e6572604482015260640161016f565b600080546001600160a01b038381166001600160a01b0319831681178455604051919092169283917f8be0079c531659141344cd1fd0a4f28419497f9722a3daafe3b4186f6b6457e09190a35050565b80356001600160a01b038116811461036557600080fd5b919050565b6000806040838503121561037d57600080fd5b6103868361034e565b91506103946020840161034e565b90509250929050565b6000602082840312156103af57600080fd5b6103b88261034e565b9392505050565b60005b838110156103da5781810151838201526020016103c2565b838111156103e9576000848401525b50505050565b602081526000825180602084015261040e8160408501602087016103bf565b601f01601f19169190910160400192915050565b600082516104348184602087016103bf565b919091019291505056fea26469706673582212203f16eb7100e9fc5a0ce7bc37438f745d0998a4ed45bd13a0a86433e517b32ae964736f6c634300080f0033",
    "linkReferences": {}
  },
  "methodIdentifiers": {
    "migrateThisAsOwner(address,address)": "bb560cb9",
    "owner()": "8da5cb5b",
    "renounceOwnership()": "715018a6",
    "transferOwnership(address)": "f2fde38b",
    "withdraw()": "3ccfd60b"
  },
  "id": 74
}