{
  "abi": [
    {
      "anonymous": false,
      "inputs": [
        {
          "indexed": false,
          "internalType": "address",
          "name": "previousAdmin",
          "type": "address"
        },
        {
          "indexed": false,
          "internalType": "address",
          "name": "newAdmin",
          "type": "address"
        }
      ],
      "name": "AdminChanged",
      "type": "event"
    },
    {
      "anonymous": false,
      "inputs": [
        {
          "indexed": true,
          "internalType": "address",
          "name": "beacon",
          "type": "address"
        }
      ],
      "name": "BeaconUpgraded",
      "type": "event"
    },
    {
      "anonymous": false,
      "inputs": [
        {
          "indexed": false,
          "internalType": "uint8",
          "name": "version",
          "type": "uint8"
        }
      ],
      "name": "Initialized",
      "type": "event"
    },
    {
      "anonymous": false,
      "inputs": [
        {
          "indexed": true,
          "internalType": "address",
          "name": "previousOwner",
          "type": "address"
        },
        {
          "indexed": true,
          "internalType": "address",
          "name": "newOwner",
          "type": "address"
        }
      ],
      "name": "OwnershipTransferred",
      "type": "event"
    },
    {
      "anonymous": false,
      "inputs": [
        {
          "indexed": true,
          "internalType": "address",
          "name": "implementation",
          "type": "address"
        }
      ],
      "name": "Upgraded",
      "type": "event"
    },
    {
      "inputs": [
        {
          "internalType": "address[]",
          "name": "_splitAddrs",
          "type": "address[]"
        },
        {
          "internalType": "uint256[]",
          "name": "_splitRatios",
          "type": "uint256[]"
        }
      ],
      "name": "initiailize",
      "outputs": [],
      "stateMutability": "nonpayable",
      "type": "function"
    },
    {
      "inputs": [],
      "name": "owner",
      "outputs": [
        {
          "internalType": "address",
          "name": "",
          "type": "address"
        }
      ],
      "stateMutability": "view",
      "type": "function"
    },
    {
      "inputs": [],
      "name": "proxiableUUID",
      "outputs": [
        {
          "internalType": "bytes32",
          "name": "",
          "type": "bytes32"
        }
      ],
      "stateMutability": "view",
      "type": "function"
    },
    {
      "inputs": [],
      "name": "renounceOwnership",
      "outputs": [],
      "stateMutability": "nonpayable",
      "type": "function"
    },
    {
      "inputs": [
        {
          "internalType": "uint256",
          "name": "",
          "type": "uint256"
        }
      ],
      "name": "splitAddrs",
      "outputs": [
        {
          "internalType": "address",
          "name": "",
          "type": "address"
        }
      ],
      "stateMutability": "view",
      "type": "function"
    },
    {
      "inputs": [
        {
          "internalType": "uint256",
          "name": "",
          "type": "uint256"
        }
      ],
      "name": "splitRatios",
      "outputs": [
        {
          "internalType": "uint256",
          "name": "",
          "type": "uint256"
        }
      ],
      "stateMutability": "view",
      "type": "function"
    },
    {
      "inputs": [
        {
          "internalType": "address",
          "name": "newOwner",
          "type": "address"
        }
      ],
      "name": "transferOwnership",
      "outputs": [],
      "stateMutability": "nonpayable",
      "type": "function"
    },
    {
      "inputs": [
        {
          "internalType": "address",
          "name": "newImplementation",
          "type": "address"
        }
      ],
      "name": "upgradeTo",
      "outputs": [],
      "stateMutability": "nonpayable",
      "type": "function"
    },
    {
      "inputs": [
        {
          "internalType": "address",
          "name": "newImplementation",
          "type": "address"
        },
        {
          "internalType": "bytes",
          "name": "data",
          "type": "bytes"
        }
      ],
      "name": "upgradeToAndCall",
      "outputs": [],
      "stateMutability": "payable",
      "type": "function"
    },
    {
      "stateMutability": "payable",
      "type": "receive"
    }
  ],
  "bytecode": {
    "object": "0x60a06040523060805234801561001457600080fd5b5060805161115161004c6000396000818161030701528181610347015281816103e60152818161042601526104b901526111516000f3fe60806040526004361061008a5760003560e01c80636d819363116100595780636d81936314610240578063715018a6146102605780637ab0d1e8146102755780638da5cb5b14610295578063f2fde38b146102b357600080fd5b80631f9f20c9146101ad5780633659cfe6146101ea5780634f1ef2861461020a57806352d1902d1461021d57600080fd5b366101a8573460005b60c9548110156101a657600061271060ca83815481106100b5576100b5610d2a565b9060005260206000200154846100cb9190610d56565b6100d59190610d75565b9050600060c983815481106100ec576100ec610d2a565b60009182526020822001546040516001600160a01b039091169184919081818185875af1925050503d8060008114610140576040519150601f19603f3d011682016040523d82523d6000602084013e610145565b606091505b50509050806101915760405162461bcd60e51b81526020600482015260136024820152721cd95b99081b9bdd081cdd58d8d95cdcd99d5b606a1b60448201526064015b60405180910390fd5b5050808061019e90610d97565b915050610093565b005b600080fd5b3480156101b957600080fd5b506101cd6101c8366004610db0565b6102d3565b6040516001600160a01b0390911681526020015b60405180910390f35b3480156101f657600080fd5b506101a6610205366004610de5565b6102fd565b6101a6610218366004610e16565b6103dc565b34801561022957600080fd5b506102326104ac565b6040519081526020016101e1565b34801561024c57600080fd5b506101a661025b366004610f24565b61055f565b34801561026c57600080fd5b506101a6610752565b34801561028157600080fd5b50610232610290366004610db0565b610766565b3480156102a157600080fd5b506097546001600160a01b03166101cd565b3480156102bf57600080fd5b506101a66102ce366004610de5565b610787565b60c981815481106102e357600080fd5b6000918252602090912001546001600160a01b0316905081565b6001600160a01b037f00000000000000000000000000000000000000000000000000000000000000001630036103455760405162461bcd60e51b815260040161018890610f90565b7f00000000000000000000000000000000000000000000000000000000000000006001600160a01b031661038e6000805160206110d5833981519152546001600160a01b031690565b6001600160a01b0316146103b45760405162461bcd60e51b815260040161018890610fdc565b6103bd816107fd565b604080516000808252602082019092526103d991839190610805565b50565b6001600160a01b037f00000000000000000000000000000000000000000000000000000000000000001630036104245760405162461bcd60e51b815260040161018890610f90565b7f00000000000000000000000000000000000000000000000000000000000000006001600160a01b031661046d6000805160206110d5833981519152546001600160a01b031690565b6001600160a01b0316146104935760405162461bcd60e51b815260040161018890610fdc565b61049c826107fd565b6104a882826001610805565b5050565b6000306001600160a01b037f0000000000000000000000000000000000000000000000000000000000000000161461054c5760405162461bcd60e51b815260206004820152603860248201527f555550535570677261646561626c653a206d757374206e6f742062652063616c60448201527f6c6564207468726f7567682064656c656761746563616c6c00000000000000006064820152608401610188565b506000805160206110d583398151915290565b600054610100900460ff161580801561057f5750600054600160ff909116105b806105995750303b158015610599575060005460ff166001145b6105fc5760405162461bcd60e51b815260206004820152602e60248201527f496e697469616c697a61626c653a20636f6e747261637420697320616c72656160448201526d191e481a5b9a5d1a585b1a5e995960921b6064820152608401610188565b6000805460ff19166001179055801561061f576000805461ff0019166101001790555b8382146106605760405162461bcd60e51b815260206004820152600f60248201526e0dcdee840e6c2daca40d8cadccee8d608b1b6044820152606401610188565b6000805b838110156106a45784848281811061067e5761067e610d2a565b90506020020135826106909190611028565b91508061069c81610d97565b915050610664565b5080612710146106ea5760405162461bcd60e51b81526020600482015260116024820152706e6f7420656e6f75676820726174696f7360781b6044820152606401610188565b6106f660c98787610c77565b5061070360ca8585610cda565b5050801561074b576000805461ff0019169055604051600181527f7f26b83ff96e1f2b6a682f133852f6798a09c465da95921460cefb38474024989060200160405180910390a15b5050505050565b61075a610975565b61076460006109cf565b565b60ca818154811061077657600080fd5b600091825260209091200154905081565b61078f610975565b6001600160a01b0381166107f45760405162461bcd60e51b815260206004820152602660248201527f4f776e61626c653a206e6577206f776e657220697320746865207a65726f206160448201526564647265737360d01b6064820152608401610188565b6103d9816109cf565b6103d9610975565b7f4910fdfa16fed3260ed0e7147f7cc6da11a60208b5b9406d12a635614ffd91435460ff161561083d5761083883610a21565b505050565b826001600160a01b03166352d1902d6040518163ffffffff1660e01b8152600401602060405180830381865afa925050508015610897575060408051601f3d908101601f1916820190925261089491810190611040565b60015b6108fa5760405162461bcd60e51b815260206004820152602e60248201527f45524331393637557067726164653a206e657720696d706c656d656e7461746960448201526d6f6e206973206e6f74205555505360901b6064820152608401610188565b6000805160206110d583398151915281146109695760405162461bcd60e51b815260206004820152602960248201527f45524331393637557067726164653a20756e737570706f727465642070726f786044820152681a58589b195555525160ba1b6064820152608401610188565b50610838838383610abd565b6097546001600160a01b031633146107645760405162461bcd60e51b815260206004820181905260248201527f4f776e61626c653a2063616c6c6572206973206e6f7420746865206f776e65726044820152606401610188565b609780546001600160a01b038381166001600160a01b0319831681179093556040519116919082907f8be0079c531659141344cd1fd0a4f28419497f9722a3daafe3b4186f6b6457e090600090a35050565b6001600160a01b0381163b610a8e5760405162461bcd60e51b815260206004820152602d60248201527f455243313936373a206e657720696d706c656d656e746174696f6e206973206e60448201526c1bdd08184818dbdb9d1c9858dd609a1b6064820152608401610188565b6000805160206110d583398151915280546001600160a01b0319166001600160a01b0392909216919091179055565b610ac683610ae8565b600082511180610ad35750805b1561083857610ae28383610b28565b50505050565b610af181610a21565b6040516001600160a01b038216907fbc7cd75a20ee27fd9adebab32041f755214dbc6bffa90cc0225b39da2e5c2d3b90600090a250565b6060610b4d83836040518060600160405280602781526020016110f560279139610b54565b9392505050565b6060600080856001600160a01b031685604051610b719190611085565b600060405180830381855af49150503d8060008114610bac576040519150601f19603f3d011682016040523d82523d6000602084013e610bb1565b606091505b5091509150610bc286838387610bcc565b9695505050505050565b60608315610c3b578251600003610c34576001600160a01b0385163b610c345760405162461bcd60e51b815260206004820152601d60248201527f416464726573733a2063616c6c20746f206e6f6e2d636f6e74726163740000006044820152606401610188565b5081610c45565b610c458383610c4d565b949350505050565b815115610c5d5781518083602001fd5b8060405162461bcd60e51b815260040161018891906110a1565b828054828255906000526020600020908101928215610cca579160200282015b82811115610cca5781546001600160a01b0319166001600160a01b03843516178255602090920191600190910190610c97565b50610cd6929150610d15565b5090565b828054828255906000526020600020908101928215610cca579160200282015b82811115610cca578235825591602001919060010190610cfa565b5b80821115610cd65760008155600101610d16565b634e487b7160e01b600052603260045260246000fd5b634e487b7160e01b600052601160045260246000fd5b6000816000190483118215151615610d7057610d70610d40565b500290565b600082610d9257634e487b7160e01b600052601260045260246000fd5b500490565b600060018201610da957610da9610d40565b5060010190565b600060208284031215610dc257600080fd5b5035919050565b80356001600160a01b0381168114610de057600080fd5b919050565b600060208284031215610df757600080fd5b610b4d82610dc9565b634e487b7160e01b600052604160045260246000fd5b60008060408385031215610e2957600080fd5b610e3283610dc9565b9150602083013567ffffffffffffffff80821115610e4f57600080fd5b818501915085601f830112610e6357600080fd5b813581811115610e7557610e75610e00565b604051601f8201601f19908116603f01168101908382118183101715610e9d57610e9d610e00565b81604052828152886020848701011115610eb657600080fd5b8260208601602083013760006020848301015280955050505050509250929050565b60008083601f840112610eea57600080fd5b50813567ffffffffffffffff811115610f0257600080fd5b6020830191508360208260051b8501011115610f1d57600080fd5b9250929050565b60008060008060408587031215610f3a57600080fd5b843567ffffffffffffffff80821115610f5257600080fd5b610f5e88838901610ed8565b90965094506020870135915080821115610f7757600080fd5b50610f8487828801610ed8565b95989497509550505050565b6020808252602c908201527f46756e6374696f6e206d7573742062652063616c6c6564207468726f7567682060408201526b19195b1959d85d1958d85b1b60a21b606082015260800190565b6020808252602c908201527f46756e6374696f6e206d7573742062652063616c6c6564207468726f7567682060408201526b6163746976652070726f787960a01b606082015260800190565b6000821982111561103b5761103b610d40565b500190565b60006020828403121561105257600080fd5b5051919050565b60005b8381101561107457818101518382015260200161105c565b83811115610ae25750506000910152565b60008251611097818460208701611059565b9190910192915050565b60208152600082518060208401526110c0816040850160208701611059565b601f01601f1916919091016040019291505056fe360894a13ba1a3210667c828492db98dca3e2076cc3735a920a3ca505d382bbc416464726573733a206c6f772d6c6576656c2064656c65676174652063616c6c206661696c6564a26469706673582212207419665c3569615db061a803bb9fd0e9524f2f42bc8b4b9002404b9b5d36252464736f6c634300080f0033",
    "linkReferences": {}
  },
  "methodIdentifiers": {
    "initiailize(address[],uint256[])": "6d819363",
    "owner()": "8da5cb5b",
    "proxiableUUID()": "52d1902d",
    "renounceOwnership()": "715018a6",
    "splitAddrs(uint256)": "1f9f20c9",
    "splitRatios(uint256)": "7ab0d1e8",
    "transferOwnership(address)": "f2fde38b",
    "upgradeTo(address)": "3659cfe6",
    "upgradeToAndCall(address,bytes)": "4f1ef286"
  },
  "id": 73
}