{
  "abi": [
    {
      "inputs": [
        {
          "internalType": "address",
          "name": "superRareToken",
          "type": "address"
        },
        {
          "internalType": "bytes32",
          "name": "merkleRoot",
          "type": "bytes32"
        }
      ],
      "stateMutability": "nonpayable",
      "type": "constructor"
    },
    {
      "anonymous": false,
      "inputs": [
        {
          "indexed": true,
          "internalType": "address",
          "name": "previousOwner",
          "type": "address"
        },
        {
          "indexed": true,
          "internalType": "address",
          "name": "newOwner",
          "type": "address"
        }
      ],
      "name": "OwnershipTransferred",
      "type": "event"
    },
    {
      "anonymous": false,
      "inputs": [
        {
          "indexed": true,
          "internalType": "bytes32",
          "name": "root",
          "type": "bytes32"
        },
        {
          "indexed": true,
          "internalType": "address",
          "name": "addr",
          "type": "address"
        },
        {
          "indexed": false,
          "internalType": "uint256",
          "name": "amount",
          "type": "uint256"
        }
      ],
      "name": "TokensClaimed",
      "type": "event"
    },
    {
      "inputs": [
        {
          "internalType": "uint256",
          "name": "amount",
          "type": "uint256"
        },
        {
          "internalType": "bytes32[]",
          "name": "proof",
          "type": "bytes32[]"
        }
      ],
      "name": "claim",
      "outputs": [],
      "stateMutability": "nonpayable",
      "type": "function"
    },
    {
      "inputs": [],
      "name": "claimRoot",
      "outputs": [
        {
          "internalType": "bytes32",
          "name": "",
          "type": "bytes32"
        }
      ],
      "stateMutability": "view",
      "type": "function"
    },
    {
      "inputs": [],
      "name": "owner",
      "outputs": [
        {
          "internalType": "address",
          "name": "",
          "type": "address"
        }
      ],
      "stateMutability": "view",
      "type": "function"
    },
    {
      "inputs": [],
      "name": "renounceOwnership",
      "outputs": [],
      "stateMutability": "nonpayable",
      "type": "function"
    },
    {
      "inputs": [
        {
          "internalType": "address",
          "name": "",
          "type": "address"
        }
      ],
      "name": "rewardClaimed",
      "outputs": [
        {
          "internalType": "bool",
          "name": "",
          "type": "bool"
        }
      ],
      "stateMutability": "view",
      "type": "function"
    },
    {
      "inputs": [],
      "name": "token",
      "outputs": [
        {
          "internalType": "contract IERC20",
          "name": "",
          "type": "address"
        }
      ],
      "stateMutability": "view",
      "type": "function"
    },
    {
      "inputs": [
        {
          "internalType": "address",
          "name": "newOwner",
          "type": "address"
        }
      ],
      "name": "transferOwnership",
      "outputs": [],
      "stateMutability": "nonpayable",
      "type": "function"
    },
    {
      "inputs": [
        {
          "internalType": "bytes32",
          "name": "newRoot",
          "type": "bytes32"
        }
      ],
      "name": "updateMerkleRoot",
      "outputs": [],
      "stateMutability": "nonpayable",
      "type": "function"
    },
    {
      "inputs": [
        {
          "internalType": "address",
          "name": "_token",
          "type": "address"
        }
      ],
      "name": "updateTokenAddress",
      "outputs": [],
      "stateMutability": "nonpayable",
      "type": "function"
    },
    {
      "inputs": [
        {
          "internalType": "address",
          "name": "recipient",
          "type": "address"
        },
        {
          "internalType": "uint256",
          "name": "value",
          "type": "uint256"
        },
        {
          "internalType": "bytes32[]",
          "name": "proof",
          "type": "bytes32[]"
        }
      ],
      "name": "verifyEntitled",
      "outputs": [
        {
          "internalType": "bool",
          "name": "",
          "type": "bool"
        }
      ],
      "stateMutability": "view",
      "type": "function"
    }
  ],
  "bytecode": {
    "object": "0x608060405234801561001057600080fd5b50604051610a8f380380610a8f83398101604081905261002f91610159565b61003833610109565b6001600160a01b0382166100935760405162461bcd60e51b815260206004820181905260248201527f546f6b656e20616464726573732063616e74206265203020616464726573732e60448201526064015b60405180910390fd5b806100e05760405162461bcd60e51b815260206004820152601960248201527f4d65726b6c65526f6f742063616e7420626520656d7074792e00000000000000604482015260640161008a565b600280546001600160a01b0319166001600160a01b039390931692909217909155600155610193565b600080546001600160a01b038381166001600160a01b0319831681178455604051919092169283917f8be0079c531659141344cd1fd0a4f28419497f9722a3daafe3b4186f6b6457e09190a35050565b6000806040838503121561016c57600080fd5b82516001600160a01b038116811461018357600080fd5b6020939093015192949293505050565b6108ed806101a26000396000f3fe608060405234801561001057600080fd5b506004361061009e5760003560e01c8063715018a611610066578063715018a61461012d5780638da5cb5b14610135578063c3709caf1461015a578063f2fde38b1461016d578063fc0c546a1461018057600080fd5b806314ea35e7146100a357806329e19704146100bf5780632f52ebb7146100f25780634783f0ef146101075780636691461a1461011a575b600080fd5b6100ac60015481565b6040519081526020015b60405180910390f35b6100e26100cd3660046106b5565b60036020526000908152604090205460ff1681565b60405190151581526020016100b6565b6101056101003660046106d0565b610193565b005b61010561011536600461074f565b6103ae565b6101056101283660046106b5565b6103bb565b610105610450565b6000546001600160a01b03165b6040516001600160a01b0390911681526020016100b6565b6100e261016836600461077e565b610464565b61010561017b3660046106b5565b6104ba565b600254610142906001600160a01b031681565b6101d1338484848080602002602001604051908101604052809392919081815260200183836020028082843760009201919091525061046492505050565b6102225760405162461bcd60e51b815260206004820181905260248201527f5468652070726f6f6620636f756c64206e6f742062652076657269666965642e60448201526064015b60405180910390fd5b3360009081526003602052604090205460ff161561029a5760405162461bcd60e51b815260206004820152602f60248201527f596f75206861766520616c72656164792077697468647261776e20796f75722060448201526e32b73a34ba3632b2103a37b5b2b71760891b6064820152608401610219565b336000818152600360209081526040808320805460ff19166001179055600254815163a9059cbb60e01b815260048101959095526024850188905290516001600160a01b03919091169363a9059cbb93604480830194939283900301908290875af115801561030d573d6000803e3d6000fd5b505050506040513d601f19601f820116820180604052508101906103319190610858565b6103705760405162461bcd60e51b815260206004820152601060248201526f2a3930b739b332b9103330b4b632b21760811b6044820152606401610219565b6001546040518481523391907fb6a3782a350d2b8520b7fe13e8e97b61f22902243ad29c4c3a9a8f714935718c9060200160405180910390a3505050565b6103b6610533565b600155565b6103c3610533565b6001600160a01b03811661042e5760405162461bcd60e51b815260206004820152602c60248201527f4e657720746f6b656e20616464726573732063616e6e6f74206265207468652060448201526b7a65726f206164647265737360a01b6064820152608401610219565b600280546001600160a01b0319166001600160a01b0392909216919091179055565b610458610533565b610462600061058d565b565b6040516bffffffffffffffffffffffff19606085901b1660208201526034810183905260009081906054016040516020818303038152906040528051906020012090506104b181846105dd565b95945050505050565b6104c2610533565b6001600160a01b0381166105275760405162461bcd60e51b815260206004820152602660248201527f4f776e61626c653a206e6577206f776e657220697320746865207a65726f206160448201526564647265737360d01b6064820152608401610219565b6105308161058d565b50565b6000546001600160a01b031633146104625760405162461bcd60e51b815260206004820181905260248201527f4f776e61626c653a2063616c6c6572206973206e6f7420746865206f776e65726044820152606401610219565b600080546001600160a01b038381166001600160a01b0319831681178455604051919092169283917f8be0079c531659141344cd1fd0a4f28419497f9722a3daafe3b4186f6b6457e09190a35050565b600082815b83518110156106225761060e828583815181106106015761060161087a565b602002602001015161062e565b91508061061a81610890565b9150506105e2565b50600154149392505050565b60008183111561066757604080516020810184905290810184905260600160405160208183030381529060405280519060200120610692565b6040805160208101859052908101839052606001604051602081830303815290604052805190602001205b9392505050565b80356001600160a01b03811681146106b057600080fd5b919050565b6000602082840312156106c757600080fd5b61069282610699565b6000806000604084860312156106e557600080fd5b83359250602084013567ffffffffffffffff8082111561070457600080fd5b818601915086601f83011261071857600080fd5b81358181111561072757600080fd5b8760208260051b850101111561073c57600080fd5b6020830194508093505050509250925092565b60006020828403121561076157600080fd5b5035919050565b634e487b7160e01b600052604160045260246000fd5b60008060006060848603121561079357600080fd5b61079c84610699565b92506020808501359250604085013567ffffffffffffffff808211156107c157600080fd5b818701915087601f8301126107d557600080fd5b8135818111156107e7576107e7610768565b8060051b604051601f19603f8301168101818110858211171561080c5761080c610768565b60405291825284820192508381018501918a83111561082a57600080fd5b938501935b828510156108485784358452938501939285019261082f565b8096505050505050509250925092565b60006020828403121561086a57600080fd5b8151801515811461069257600080fd5b634e487b7160e01b600052603260045260246000fd5b6000600182016108b057634e487b7160e01b600052601160045260246000fd5b506001019056fea2646970667358221220f3732e922375032c8d3eba9ee329efad89486cf2b49673c60ae142d6d086956e64736f6c634300080f0033",
    "linkReferences": {}
  },
  "methodIdentifiers": {
    "claim(uint256,bytes32[])": "2f52ebb7",
    "claimRoot()": "14ea35e7",
    "owner()": "8da5cb5b",
    "renounceOwnership()": "715018a6",
    "rewardClaimed(address)": "29e19704",
    "token()": "fc0c546a",
    "transferOwnership(address)": "f2fde38b",
    "updateMerkleRoot(bytes32)": "4783f0ef",
    "updateTokenAddress(address)": "6691461a",
    "verifyEntitled(address,uint256,bytes32[])": "c3709caf"
  },
  "id": 16
}